{
  "contractName": "Entrance",
  "abi": [
    {
      "inputs": [
        {
          "internalType": "contract Reserve",
          "name": "reserve_",
          "type": "address"
        },
        {
          "internalType": "contract GovernorAlphaProxyFactory",
          "name": "governorAlphaProxyFactory_",
          "type": "address"
        },
        {
          "internalType": "contract JudgerOrgProxyFactory",
          "name": "judgerOrgProxyFactory_",
          "type": "address"
        },
        {
          "internalType": "contract MainContractProxyFactory",
          "name": "mainContractProxyFactory_",
          "type": "address"
        },
        {
          "internalType": "contract TimelockProxyFactory",
          "name": "timelockProxyFactory_",
          "type": "address"
        },
        {
          "internalType": "contract ControlledTokenProxyFactory",
          "name": "controlledTokenProxyFactory_",
          "type": "address"
        }
      ],
      "stateMutability": "nonpayable",
      "type": "constructor"
    },
    {
      "anonymous": false,
      "inputs": [
        {
          "indexed": true,
          "internalType": "address",
          "name": "previousOwner",
          "type": "address"
        },
        {
          "indexed": true,
          "internalType": "address",
          "name": "newOwner",
          "type": "address"
        }
      ],
      "name": "OwnershipTransferred",
      "type": "event"
    },
    {
      "anonymous": false,
      "inputs": [
        {
          "indexed": true,
          "internalType": "address",
          "name": "from",
          "type": "address"
        },
        {
          "indexed": false,
          "internalType": "address",
          "name": "judgerOrgAddr",
          "type": "address"
        },
        {
          "indexed": false,
          "internalType": "uint256",
          "name": "mainContractOrder",
          "type": "uint256"
        },
        {
          "indexed": false,
          "internalType": "uint8",
          "name": "contractOrder",
          "type": "uint8"
        },
        {
          "indexed": false,
          "internalType": "string",
          "name": "contentOrIpfsHash",
          "type": "string"
        }
      ],
      "name": "addContractEvent",
      "type": "event"
    },
    {
      "anonymous": false,
      "inputs": [
        {
          "indexed": true,
          "internalType": "address",
          "name": "from",
          "type": "address"
        },
        {
          "indexed": false,
          "internalType": "address",
          "name": "judgerOrgAddr",
          "type": "address"
        },
        {
          "indexed": false,
          "internalType": "uint256",
          "name": "mainContractOrder",
          "type": "uint256"
        },
        {
          "indexed": false,
          "internalType": "uint256",
          "name": "stakeBalance",
          "type": "uint256"
        }
      ],
      "name": "addStakeEvent",
      "type": "event"
    },
    {
      "anonymous": false,
      "inputs": [
        {
          "indexed": true,
          "internalType": "address",
          "name": "from",
          "type": "address"
        },
        {
          "indexed": false,
          "internalType": "address",
          "name": "judgerOrgAddr",
          "type": "address"
        },
        {
          "indexed": false,
          "internalType": "uint256",
          "name": "mainContractOrder",
          "type": "uint256"
        }
      ],
      "name": "applyExitEvent",
      "type": "event"
    },
    {
      "anonymous": false,
      "inputs": [
        {
          "indexed": true,
          "internalType": "address",
          "name": "from",
          "type": "address"
        },
        {
          "indexed": false,
          "internalType": "address",
          "name": "judgerOrgAddr",
          "type": "address"
        },
        {
          "indexed": false,
          "internalType": "uint256",
          "name": "mainContractOrder",
          "type": "uint256"
        },
        {
          "indexed": false,
          "internalType": "address[]",
          "name": "judgerAddr",
          "type": "address[]"
        }
      ],
      "name": "applyJudgeEvent",
      "type": "event"
    },
    {
      "anonymous": false,
      "inputs": [
        {
          "indexed": true,
          "internalType": "address",
          "name": "from",
          "type": "address"
        },
        {
          "indexed": true,
          "internalType": "address",
          "name": "judgerOrgAddr",
          "type": "address"
        },
        {
          "indexed": false,
          "internalType": "address",
          "name": "governAddr",
          "type": "address"
        }
      ],
      "name": "createKindleEvent",
      "type": "event"
    },
    {
      "anonymous": false,
      "inputs": [
        {
          "indexed": true,
          "internalType": "address",
          "name": "from",
          "type": "address"
        },
        {
          "indexed": false,
          "internalType": "address",
          "name": "judgerOrgAddr",
          "type": "address"
        },
        {
          "indexed": false,
          "internalType": "address",
          "name": "mainContractAddr",
          "type": "address"
        },
        {
          "indexed": false,
          "internalType": "uint256",
          "name": "mainContractOrder",
          "type": "uint256"
        },
        {
          "indexed": false,
          "internalType": "string",
          "name": "contentOrIpfsHash",
          "type": "string"
        }
      ],
      "name": "createMainContractEvent",
      "type": "event"
    },
    {
      "anonymous": false,
      "inputs": [
        {
          "indexed": true,
          "internalType": "address",
          "name": "from",
          "type": "address"
        },
        {
          "indexed": false,
          "internalType": "address",
          "name": "judgerOrgAddr",
          "type": "address"
        },
        {
          "indexed": false,
          "internalType": "uint256",
          "name": "mainContractOrder",
          "type": "uint256"
        },
        {
          "indexed": false,
          "internalType": "uint256",
          "name": "stakeBalance",
          "type": "uint256"
        }
      ],
      "name": "exitStakeEvent",
      "type": "event"
    },
    {
      "anonymous": false,
      "inputs": [
        {
          "indexed": false,
          "internalType": "address",
          "name": "judgerOrgAddr",
          "type": "address"
        },
        {
          "indexed": false,
          "internalType": "uint256",
          "name": "mainContractOrder",
          "type": "uint256"
        },
        {
          "indexed": false,
          "internalType": "uint256",
          "name": "proposalOrder",
          "type": "uint256"
        }
      ],
      "name": "finishConProposalEvent",
      "type": "event"
    },
    {
      "anonymous": false,
      "inputs": [
        {
          "indexed": false,
          "internalType": "address",
          "name": "judgerOrgAddr",
          "type": "address"
        },
        {
          "indexed": false,
          "internalType": "uint256",
          "name": "mainContractOrder",
          "type": "uint256"
        },
        {
          "indexed": false,
          "internalType": "uint8",
          "name": "contractOrder",
          "type": "uint8"
        }
      ],
      "name": "finishContractSignEvent",
      "type": "event"
    },
    {
      "anonymous": false,
      "inputs": [
        {
          "indexed": false,
          "internalType": "address",
          "name": "judgerOrgAddr",
          "type": "address"
        },
        {
          "indexed": false,
          "internalType": "uint256",
          "name": "mainContractOrder",
          "type": "uint256"
        }
      ],
      "name": "finishExitEvent",
      "type": "event"
    },
    {
      "anonymous": false,
      "inputs": [
        {
          "indexed": true,
          "internalType": "address",
          "name": "addr",
          "type": "address"
        },
        {
          "indexed": false,
          "internalType": "address",
          "name": "judgerOrgAddr",
          "type": "address"
        },
        {
          "indexed": false,
          "internalType": "uint256",
          "name": "mainContractOrder",
          "type": "uint256"
        },
        {
          "indexed": false,
          "internalType": "uint256",
          "name": "proposalOrder",
          "type": "uint256"
        }
      ],
      "name": "finishJudgerProposalEvent",
      "type": "event"
    },
    {
      "anonymous": false,
      "inputs": [
        {
          "indexed": true,
          "internalType": "address",
          "name": "from",
          "type": "address"
        },
        {
          "indexed": false,
          "internalType": "address",
          "name": "judgerOrgAddr",
          "type": "address"
        },
        {
          "indexed": false,
          "internalType": "uint256",
          "name": "mainContractOrder",
          "type": "uint256"
        },
        {
          "indexed": false,
          "internalType": "uint256",
          "name": "proposalOrder",
          "type": "uint256"
        }
      ],
      "name": "launchJudgerProposalEvent",
      "type": "event"
    },
    {
      "anonymous": false,
      "inputs": [
        {
          "indexed": true,
          "internalType": "address",
          "name": "from",
          "type": "address"
        },
        {
          "indexed": false,
          "internalType": "address",
          "name": "judgerOrgAddr",
          "type": "address"
        },
        {
          "indexed": false,
          "internalType": "uint256",
          "name": "mainContractOrder",
          "type": "uint256"
        },
        {
          "indexed": false,
          "internalType": "uint256",
          "name": "proposalOrder",
          "type": "uint256"
        }
      ],
      "name": "launchProposalEvent",
      "type": "event"
    },
    {
      "anonymous": false,
      "inputs": [
        {
          "indexed": true,
          "internalType": "address",
          "name": "token",
          "type": "address"
        },
        {
          "indexed": true,
          "internalType": "address",
          "name": "tokenFaucet",
          "type": "address"
        }
      ],
      "name": "setTokenFaucetEvent",
      "type": "event"
    },
    {
      "anonymous": false,
      "inputs": [
        {
          "indexed": true,
          "internalType": "address",
          "name": "from",
          "type": "address"
        },
        {
          "indexed": false,
          "internalType": "address",
          "name": "judgerOrgAddr",
          "type": "address"
        },
        {
          "indexed": false,
          "internalType": "uint256",
          "name": "mainContractOrder",
          "type": "uint256"
        },
        {
          "indexed": false,
          "internalType": "uint8",
          "name": "contractOrder",
          "type": "uint8"
        },
        {
          "indexed": false,
          "internalType": "int8",
          "name": "signStatus",
          "type": "int8"
        }
      ],
      "name": "signContractEvent",
      "type": "event"
    },
    {
      "anonymous": false,
      "inputs": [
        {
          "indexed": true,
          "internalType": "address",
          "name": "from",
          "type": "address"
        },
        {
          "indexed": false,
          "internalType": "address",
          "name": "judgerOrgAddr",
          "type": "address"
        },
        {
          "indexed": false,
          "internalType": "uint256",
          "name": "mainContractOrder",
          "type": "uint256"
        },
        {
          "indexed": false,
          "internalType": "uint256",
          "name": "proposalOrder",
          "type": "uint256"
        },
        {
          "indexed": false,
          "internalType": "int8",
          "name": "signStatus",
          "type": "int8"
        }
      ],
      "name": "signJudgerProposalEvent",
      "type": "event"
    },
    {
      "anonymous": false,
      "inputs": [
        {
          "indexed": true,
          "internalType": "address",
          "name": "from",
          "type": "address"
        },
        {
          "indexed": false,
          "internalType": "address",
          "name": "judgerOrgAddr",
          "type": "address"
        },
        {
          "indexed": false,
          "internalType": "uint256",
          "name": "mainContractOrder",
          "type": "uint256"
        },
        {
          "indexed": false,
          "internalType": "uint256",
          "name": "proposalOrder",
          "type": "uint256"
        },
        {
          "indexed": false,
          "internalType": "int8",
          "name": "signStatus",
          "type": "int8"
        }
      ],
      "name": "signProposalEvent",
      "type": "event"
    },
    {
      "inputs": [
        {
          "internalType": "address",
          "name": "",
          "type": "address"
        }
      ],
      "name": "controlledTokenMap",
      "outputs": [
        {
          "internalType": "contract ControlledToken",
          "name": "",
          "type": "address"
        }
      ],
      "stateMutability": "view",
      "type": "function",
      "constant": true
    },
    {
      "inputs": [],
      "name": "controlledTokenProxyFactory",
      "outputs": [
        {
          "internalType": "contract ControlledTokenProxyFactory",
          "name": "",
          "type": "address"
        }
      ],
      "stateMutability": "view",
      "type": "function",
      "constant": true
    },
    {
      "inputs": [],
      "name": "governorAlphaProxyFactory",
      "outputs": [
        {
          "internalType": "contract GovernorAlphaProxyFactory",
          "name": "",
          "type": "address"
        }
      ],
      "stateMutability": "view",
      "type": "function",
      "constant": true
    },
    {
      "inputs": [
        {
          "internalType": "address",
          "name": "",
          "type": "address"
        }
      ],
      "name": "judgerOrgMap",
      "outputs": [
        {
          "internalType": "bool",
          "name": "",
          "type": "bool"
        }
      ],
      "stateMutability": "view",
      "type": "function",
      "constant": true
    },
    {
      "inputs": [],
      "name": "judgerOrgProxyFactory",
      "outputs": [
        {
          "internalType": "contract JudgerOrgProxyFactory",
          "name": "",
          "type": "address"
        }
      ],
      "stateMutability": "view",
      "type": "function",
      "constant": true
    },
    {
      "inputs": [
        {
          "internalType": "address",
          "name": "",
          "type": "address"
        },
        {
          "internalType": "uint256",
          "name": "",
          "type": "uint256"
        }
      ],
      "name": "mainContractMap",
      "outputs": [
        {
          "internalType": "contract MainContract",
          "name": "",
          "type": "address"
        }
      ],
      "stateMutability": "view",
      "type": "function",
      "constant": true
    },
    {
      "inputs": [],
      "name": "mainContractProxyFactory",
      "outputs": [
        {
          "internalType": "contract MainContractProxyFactory",
          "name": "",
          "type": "address"
        }
      ],
      "stateMutability": "view",
      "type": "function",
      "constant": true
    },
    {
      "inputs": [],
      "name": "owner",
      "outputs": [
        {
          "internalType": "address",
          "name": "",
          "type": "address"
        }
      ],
      "stateMutability": "view",
      "type": "function",
      "constant": true
    },
    {
      "inputs": [],
      "name": "renounceOwnership",
      "outputs": [],
      "stateMutability": "nonpayable",
      "type": "function"
    },
    {
      "inputs": [],
      "name": "reserve",
      "outputs": [
        {
          "internalType": "contract Reserve",
          "name": "",
          "type": "address"
        }
      ],
      "stateMutability": "view",
      "type": "function",
      "constant": true
    },
    {
      "inputs": [],
      "name": "timelockProxyFactory",
      "outputs": [
        {
          "internalType": "contract TimelockProxyFactory",
          "name": "",
          "type": "address"
        }
      ],
      "stateMutability": "view",
      "type": "function",
      "constant": true
    },
    {
      "inputs": [
        {
          "internalType": "address",
          "name": "",
          "type": "address"
        }
      ],
      "name": "tokenFaucetMap",
      "outputs": [
        {
          "internalType": "contract TokenFaucet",
          "name": "",
          "type": "address"
        }
      ],
      "stateMutability": "view",
      "type": "function",
      "constant": true
    },
    {
      "inputs": [
        {
          "internalType": "address",
          "name": "newOwner",
          "type": "address"
        }
      ],
      "name": "transferOwnership",
      "outputs": [],
      "stateMutability": "nonpayable",
      "type": "function"
    },
    {
      "inputs": [
        {
          "internalType": "address[]",
          "name": "persons",
          "type": "address[]"
        },
        {
          "internalType": "address",
          "name": "judgerOrgAddr",
          "type": "address"
        },
        {
          "internalType": "string",
          "name": "contentOrIpfsHash",
          "type": "string"
        },
        {
          "internalType": "uint256",
          "name": "stakeBalance",
          "type": "uint256"
        },
        {
          "internalType": "contract ERC20",
          "name": "token",
          "type": "address"
        }
      ],
      "name": "createMainContract",
      "outputs": [],
      "stateMutability": "nonpayable",
      "type": "function"
    },
    {
      "inputs": [
        {
          "internalType": "address",
          "name": "token",
          "type": "address"
        },
        {
          "internalType": "contract TokenFaucet",
          "name": "tokenFaucet",
          "type": "address"
        }
      ],
      "name": "setTokenFaucet",
      "outputs": [],
      "stateMutability": "nonpayable",
      "type": "function"
    },
    {
      "inputs": [
        {
          "internalType": "address",
          "name": "from",
          "type": "address"
        },
        {
          "internalType": "address",
          "name": "to",
          "type": "address"
        },
        {
          "internalType": "uint256",
          "name": "amount",
          "type": "uint256"
        }
      ],
      "name": "beforeTokenTransfer",
      "outputs": [],
      "stateMutability": "nonpayable",
      "type": "function"
    },
    {
      "inputs": [
        {
          "internalType": "address",
          "name": "judgerOrgAddr",
          "type": "address"
        },
        {
          "internalType": "uint256",
          "name": "mainContractOrder",
          "type": "uint256"
        },
        {
          "internalType": "string",
          "name": "contentOrIpfsHash",
          "type": "string"
        },
        {
          "internalType": "uint256",
          "name": "stakeBalance",
          "type": "uint256"
        }
      ],
      "name": "addContract",
      "outputs": [],
      "stateMutability": "nonpayable",
      "type": "function"
    },
    {
      "inputs": [
        {
          "internalType": "address",
          "name": "judgerOrgAddr",
          "type": "address"
        },
        {
          "internalType": "uint256",
          "name": "mainContractOrder",
          "type": "uint256"
        },
        {
          "internalType": "uint256",
          "name": "stakeBalance",
          "type": "uint256"
        }
      ],
      "name": "addStakeBalance",
      "outputs": [],
      "stateMutability": "nonpayable",
      "type": "function"
    },
    {
      "inputs": [
        {
          "internalType": "address",
          "name": "judgerOrgAddr",
          "type": "address"
        },
        {
          "internalType": "uint256",
          "name": "mainContractOrder",
          "type": "uint256"
        }
      ],
      "name": "applyExit",
      "outputs": [],
      "stateMutability": "nonpayable",
      "type": "function"
    },
    {
      "inputs": [
        {
          "internalType": "address",
          "name": "judgerOrgAddr",
          "type": "address"
        },
        {
          "internalType": "uint256",
          "name": "mainContractOrder",
          "type": "uint256"
        },
        {
          "internalType": "uint256",
          "name": "stakeBalance",
          "type": "uint256"
        }
      ],
      "name": "exitStakeBalance",
      "outputs": [],
      "stateMutability": "nonpayable",
      "type": "function"
    },
    {
      "inputs": [
        {
          "internalType": "address",
          "name": "judgerOrgAddr",
          "type": "address"
        },
        {
          "internalType": "uint256",
          "name": "mainContractOrder",
          "type": "uint256"
        },
        {
          "internalType": "uint8",
          "name": "contractOrder",
          "type": "uint8"
        },
        {
          "internalType": "int8",
          "name": "signStatus",
          "type": "int8"
        },
        {
          "internalType": "uint256",
          "name": "stakeBalance",
          "type": "uint256"
        }
      ],
      "name": "signContract",
      "outputs": [],
      "stateMutability": "nonpayable",
      "type": "function"
    },
    {
      "inputs": [],
      "name": "createKindle",
      "outputs": [
        {
          "internalType": "address",
          "name": "",
          "type": "address"
        }
      ],
      "stateMutability": "nonpayable",
      "type": "function"
    },
    {
      "inputs": [
        {
          "internalType": "address",
          "name": "judgerOrgAddr",
          "type": "address"
        },
        {
          "internalType": "uint256",
          "name": "mainContractOrder",
          "type": "uint256"
        },
        {
          "internalType": "address[]",
          "name": "persons",
          "type": "address[]"
        },
        {
          "internalType": "uint256[]",
          "name": "balances",
          "type": "uint256[]"
        }
      ],
      "name": "launchProposal",
      "outputs": [],
      "stateMutability": "nonpayable",
      "type": "function"
    },
    {
      "inputs": [
        {
          "internalType": "address",
          "name": "judgerOrgAddr",
          "type": "address"
        },
        {
          "internalType": "uint256",
          "name": "mainContractOrder",
          "type": "uint256"
        },
        {
          "internalType": "uint256",
          "name": "proposalOrder",
          "type": "uint256"
        },
        {
          "internalType": "int8",
          "name": "signStatus",
          "type": "int8"
        }
      ],
      "name": "signProposal",
      "outputs": [],
      "stateMutability": "nonpayable",
      "type": "function"
    },
    {
      "inputs": [
        {
          "internalType": "address",
          "name": "judgerOrgAddr",
          "type": "address"
        },
        {
          "internalType": "uint256",
          "name": "mainContractOrder",
          "type": "uint256"
        },
        {
          "internalType": "address[]",
          "name": "persons",
          "type": "address[]"
        },
        {
          "internalType": "uint256[]",
          "name": "balance",
          "type": "uint256[]"
        }
      ],
      "name": "launchJudgerProposal",
      "outputs": [],
      "stateMutability": "nonpayable",
      "type": "function"
    },
    {
      "inputs": [
        {
          "internalType": "address",
          "name": "judgerOrgAddr",
          "type": "address"
        },
        {
          "internalType": "uint256",
          "name": "mainContractOrder",
          "type": "uint256"
        },
        {
          "internalType": "uint256",
          "name": "proposalOrder",
          "type": "uint256"
        },
        {
          "internalType": "int8",
          "name": "signStatus",
          "type": "int8"
        }
      ],
      "name": "signJudgerProposal",
      "outputs": [],
      "stateMutability": "nonpayable",
      "type": "function"
    },
    {
      "inputs": [
        {
          "internalType": "address",
          "name": "judgerOrgAddr",
          "type": "address"
        },
        {
          "internalType": "uint256",
          "name": "mainContractOrder",
          "type": "uint256"
        }
      ],
      "name": "applyJudge",
      "outputs": [],
      "stateMutability": "nonpayable",
      "type": "function"
    }
  ],
  "bytecode": "0x60806040523480156200001157600080fd5b506040516200401738038062004017833981810160405260c08110156200003757600080fd5b508051602082015160408301516060840151608085015160a090950151939492939192909160006200006862000129565b600080546001600160a01b0319166001600160a01b0383169081178255604051929350917f8be0079c531659141344cd1fd0a4f28419497f9722a3daafe3b4186f6b6457e0908290a35060018055600680546001600160a01b03199081166001600160a01b0398891617909155600780548216968816969096179095556008805486169487169490941790935560098054851692861692909217909155600a80548416918516919091179055600b805490921692169190911790556200012d565b3390565b613eda806200013d6000396000f3fe608060405234801561001057600080fd5b50600436106101495760003560e01c8063079c3a3b1461014e57806307a298b114610288578063087d1a4f146102cc57806308988f02146102fe5780630ba835dc1461032257806316f4c7ef14610348578063277031c114610376578063284b65081461037e5780633945e679146103aa57806349b5cbb0146104e2578063563966741461051d57806368218821146105585780636a81d8bd146105605780636d0ef26b14610568578063715018a6146105a25780637cbab1c7146105aa5780637d67de20146105e05780638da5cb5b14610612578063a134dc011461061a578063b4d508be146106d5578063b589094c146106fb578063cd3293de14610840578063ce8a670414610848578063db5a5aaa14610850578063dbdde86b1461087c578063f1534a5f14610884578063f2fde38b146108b0575b600080fd5b6102866004803603608081101561016457600080fd5b6001600160a01b0382351691602081013591810190606081016040820135600160201b81111561019357600080fd5b8201836020820111156101a557600080fd5b803590602001918460208302840111600160201b831117156101c657600080fd5b9190808060200260200160405190810160405280939291908181526020018383602002808284376000920191909152509295949360208101935035915050600160201b81111561021557600080fd5b82018360208201111561022757600080fd5b803590602001918460208302840111600160201b8311171561024857600080fd5b9190808060200260200160405190810160405280939291908181526020018383602002808284376000920191909152509295506108d6945050505050565b005b610286600480360360a081101561029e57600080fd5b506001600160a01b038135169060208101359060ff60408201351690606081013560000b9060800135610b92565b610286600480360360608110156102e257600080fd5b506001600160a01b038135169060208101359060400135610bbc565b610306610bdf565b604080516001600160a01b039092168252519081900360200190f35b6103066004803603602081101561033857600080fd5b50356001600160a01b0316610bee565b6102866004803603604081101561035e57600080fd5b506001600160a01b0381358116916020013516610c09565b610306610cb8565b6102866004803603604081101561039457600080fd5b506001600160a01b038135169060200135610cc7565b610286600480360360808110156103c057600080fd5b6001600160a01b0382351691602081013591810190606081016040820135600160201b8111156103ef57600080fd5b82018360208201111561040157600080fd5b803590602001918460208302840111600160201b8311171561042257600080fd5b9190808060200260200160405190810160405280939291908181526020018383602002808284376000920191909152509295949360208101935035915050600160201b81111561047157600080fd5b82018360208201111561048357600080fd5b803590602001918460208302840111600160201b831117156104a457600080fd5b9190808060200260200160405190810160405280939291908181526020018383602002808284376000920191909152509295506112f7945050505050565b610286600480360360808110156104f857600080fd5b506001600160a01b03813516906020810135906040810135906060013560000b6115ac565b6102866004803603608081101561053357600080fd5b506001600160a01b03813516906020810135906040810135906060013560000b6115d1565b6103066115f0565b6103066119ea565b61058e6004803603602081101561057e57600080fd5b50356001600160a01b03166119f9565b604080519115158252519081900360200190f35b610286611a0e565b610286600480360360608110156105c057600080fd5b506001600160a01b03813581169160208101359091169060400135611a9e565b610286600480360360608110156105f657600080fd5b506001600160a01b038135169060208101359060400135611b3b565b610306611f63565b6102866004803603608081101561063057600080fd5b6001600160a01b0382351691602081013591810190606081016040820135600160201b81111561065f57600080fd5b82018360208201111561067157600080fd5b803590602001918460018302840111600160201b8311171561069257600080fd5b91908080601f0160208091040260200160405190810160405280939291908181526020018383808284376000920191909152509295505091359250611f72915050565b610306600480360360208110156106eb57600080fd5b50356001600160a01b03166121c7565b610286600480360360a081101561071157600080fd5b810190602081018135600160201b81111561072b57600080fd5b82018360208201111561073d57600080fd5b803590602001918460208302840111600160201b8311171561075e57600080fd5b91908080602002602001604051908101604052809392919081815260200183836020028082843760009201919091525092956001600160a01b03853516959094909350604081019250602001359050600160201b8111156107be57600080fd5b8201836020820111156107d057600080fd5b803590602001918460018302840111600160201b831117156107f157600080fd5b91908080601f01602080910402602001604051908101604052809392919081815260200183838082843760009201919091525092955050823593505050602001356001600160a01b03166121e2565b610306612762565b610306612771565b6103066004803603604081101561086657600080fd5b506001600160a01b038135169060200135612780565b6103066127b5565b6102866004803603604081101561089a57600080fd5b506001600160a01b0381351690602001356127c4565b610286600480360360208110156108c657600080fd5b50356001600160a01b03166128af565b6108df84612995565b6108e984846129f5565b600a825110610937576040805162461bcd60e51b8152602060048201526015602482015274139d5b48195e18d959591cc81d1a19481b1a5b5a5d605a1b604482015290519081900360640190fd5b6001600160a01b038416600090815260026020526040812080548590811061095b57fe5b60009182526020808320909101546040516302fc878160e31b815233600482018181526060602484019081528951606485015289516001600160a01b03909516975087966317e43c089693958b958b956044820193608490920192888201929102908190849084905b838110156109dc5781810151838201526020016109c4565b50505050905001838103825284818151815260200191508051906020019060200280838360005b83811015610a1b578181015183820152602001610a03565b5050505090500195505050505050600060405180830381600087803b158015610a4357600080fd5b505af1158015610a57573d6000803e3d6000fd5b50505050336001600160a01b03167ffd72de17668b99db48dd545c3fae6525821a5399f6b5a25ed4081f588597902586866001856001600160a01b0316637f9ca4946040518163ffffffff1660e01b815260040160206040518083038186803b158015610ac357600080fd5b505afa158015610ad7573d6000803e3d6000fd5b505050506040513d6020811015610aed57600080fd5b5051604080516001600160a01b03909516855260208501939093520382820152519081900360600190a2610b8b85856001846001600160a01b0316637f9ca4946040518163ffffffff1660e01b815260040160206040518083038186803b158015610b5757600080fd5b505afa158015610b6b573d6000803e3d6000fd5b505050506040513d6020811015610b8157600080fd5b5051036001612a59565b5050505050565b610b9b85612995565b610ba585856129f5565b610bb185858585612eb9565b610b8b858583613024565b610bc583612995565b610bcf83836129f5565b610bda838383613024565b505050565b6007546001600160a01b031681565b6004602052600090815260409020546001600160a01b031681565b610c11613321565b6000546001600160a01b03908116911614610c61576040805162461bcd60e51b81526020600482018190526024820152600080516020613e3b833981519152604482015290519081900360640190fd5b6001600160a01b0382811660008181526005602052604080822080546001600160a01b0319169486169485179055517f5e304a7f38fcd3b6874450c0c3cac775bf694ac63af233353469888c448775909190a35050565b6008546001600160a01b031681565b610cd082612995565b610cda82826129f5565b6001600160a01b0382166000908152600260205260408120805483908110610cfe57fe5b60009182526020822001546001600160a01b0316915083905b826001600160a01b031663d285ae8b6040518163ffffffff1660e01b815260040160206040518083038186803b158015610d5057600080fd5b505afa158015610d64573d6000803e3d6000fd5b505050506040513d6020811015610d7a57600080fd5b505160ff9081169082161015610e7657846001600160a01b031663305ec69e846001600160a01b0316638b77949d846040518263ffffffff1660e01b8152600401808260ff16815260200191505060206040518083038186803b158015610de057600080fd5b505afa158015610df4573d6000803e3d6000fd5b505050506040513d6020811015610e0a57600080fd5b5051604080516001600160e01b031960e085901b1681526001600160a01b03909216600483015251602480830192600092919082900301818387803b158015610e5257600080fd5b505af1158015610e66573d6000803e3d6000fd5b505060019092019150610d179050565b50816001600160a01b0316637fb3456433836001600160a01b031663e36364ff6040518163ffffffff1660e01b815260040160206040518083038186803b158015610ec057600080fd5b505afa158015610ed4573d6000803e3d6000fd5b505050506040513d6020811015610eea57600080fd5b5051604080516001600160e01b031960e086901b1681526001600160a01b03909316600484015260ff909116602483015251604480830192600092919082900301818387803b158015610f3c57600080fd5b505af1158015610f50573d6000803e3d6000fd5b505050506000600143034060001c905060008190506000836001600160a01b031663e36364ff6040518163ffffffff1660e01b815260040160206040518083038186803b158015610fa057600080fd5b505afa158015610fb4573d6000803e3d6000fd5b505050506040513d6020811015610fca57600080fd5b50519050606060ff82166001600160401b0381118015610fe957600080fd5b50604051908082528060200260200182016040528015611013578160200160208202803683370190505b50905060005b8260ff168160ff161015611254576000866001600160a01b031663aa03429a86846040518363ffffffff1660e01b8152600401808381526020018260ff16815260200192505050602060405180830381600087803b15801561107a57600080fd5b505af115801561108e573d6000803e3d6000fd5b505050506040513d60208110156110a457600080fd5b505190506001600160a01b0381166110f7576040805162461bcd60e51b81526020600482015260116024820152704e6f7420656e6f756768206a756467657360781b604482015290519081900360640190fd5b80838360ff168151811061110757fe5b60200260200101906001600160a01b031690816001600160a01b031681525050876001600160a01b031663a442966d60018a6001600160a01b031663d285ae8b6040518163ffffffff1660e01b815260040160206040518083038186803b15801561117157600080fd5b505afa158015611185573d6000803e3d6000fd5b505050506040513d602081101561119b57600080fd5b50516040805160e085901b6001600160e01b03191681529290910360ff9081166004840152861660248301526001600160a01b038516604483015251606480830192600092919082900301818387803b1580156111f757600080fd5b505af115801561120b573d6000803e3d6000fd5b50506040805161ffff61020960ff88160216989098016101f3016020808a01919091528151808a0382018152988201909152875197019690962095505060019091019050611019565b50336001600160a01b03167f733262d884771bc7e2f3c517dcd7500850ab9a9d6bec30e0a880f2f2a4c92f2389898460405180846001600160a01b0316815260200183815260200180602001828103825283818151815260200191508051906020019060200280838360005b838110156112d85781810151838201526020016112c0565b5050505090500194505050505060405180910390a25050505050505050565b61130084612995565b61130a84846129f5565b600a825110611358576040805162461bcd60e51b8152602060048201526015602482015274139d5b48195e18d959591cc81d1a19481b1a5b5a5d605a1b604482015290519081900360640190fd5b6001600160a01b038416600090815260026020526040812080548590811061137c57fe5b600091825260208083209091015460405163dbda5beb60e01b815233600482018181526060602484019081528951606485015289516001600160a01b039095169750879663dbda5beb9693958b958b956044820193608490920192888201929102908190849084905b838110156113fd5781810151838201526020016113e5565b50505050905001838103825284818151815260200191508051906020019060200280838360005b8381101561143c578181015183820152602001611424565b5050505090500195505050505050600060405180830381600087803b15801561146457600080fd5b505af1158015611478573d6000803e3d6000fd5b50505050336001600160a01b03167f71b9906cd70b45b8960d766688bbdf0836fed64822dfeffc150bd8b8515899e286866001856001600160a01b0316634fb095e86040518163ffffffff1660e01b815260040160206040518083038186803b1580156114e457600080fd5b505afa1580156114f8573d6000803e3d6000fd5b505050506040513d602081101561150e57600080fd5b5051604080516001600160a01b03909516855260208501939093520382820152519081900360600190a2610b8b85856001846001600160a01b0316634fb095e86040518163ffffffff1660e01b815260040160206040518083038186803b15801561157857600080fd5b505afa15801561158c573d6000803e3d6000fd5b505050506040513d60208110156115a257600080fd5b5051036001613325565b6115b584612995565b6115bf84846129f5565b6115cb84848484613325565b50505050565b6115da84612995565b6115e484846129f5565b6115cb84848484612a59565b600080600860009054906101000a90046001600160a01b03166001600160a01b031663efc81a8c6040518163ffffffff1660e01b8152600401602060405180830381600087803b15801561164357600080fd5b505af1158015611657573d6000803e3d6000fd5b505050506040513d602081101561166d57600080fd5b50516040805163c0c53b8b60e01b81523060048201819052602482015233604482015290519192506001600160a01b0383169163c0c53b8b9160648082019260009290919082900301818387803b1580156116c757600080fd5b505af11580156116db573d6000803e3d6000fd5b505050506000600760009054906101000a90046001600160a01b03166001600160a01b031663efc81a8c6040518163ffffffff1660e01b8152600401602060405180830381600087803b15801561173157600080fd5b505af1158015611745573d6000803e3d6000fd5b505050506040513d602081101561175b57600080fd5b50516040805163485cc95560e01b81523060048201526001600160a01b03858116602483015291519293509083169163485cc9559160448082019260009290919082900301818387803b1580156117b157600080fd5b505af11580156117c5573d6000803e3d6000fd5b505050506000600a60009054906101000a90046001600160a01b03166001600160a01b031663efc81a8c6040518163ffffffff1660e01b8152600401602060405180830381600087803b15801561181b57600080fd5b505af115801561182f573d6000803e3d6000fd5b505050506040513d602081101561184557600080fd5b50516040805163cd6dc68760e01b81526001600160a01b038581166004830152600a602483015291519293509083169163cd6dc6879160448082019260009290919082900301818387803b15801561189c57600080fd5b505af11580156118b0573d6000803e3d6000fd5b50505050826001600160a01b03166313af4035826040518263ffffffff1660e01b815260040180826001600160a01b03168152602001915050600060405180830381600087803b15801561190357600080fd5b505af1158015611917573d6000803e3d6000fd5b50505050816001600160a01b031663bdacb303826040518263ffffffff1660e01b815260040180826001600160a01b03168152602001915050600060405180830381600087803b15801561196a57600080fd5b505af115801561197e573d6000803e3d6000fd5b5050506001600160a01b03808516600081815260036020908152604091829020805460ff1916600117905581519387168452905191935033927f9c5ed68b75d46eb0f719d24e0859f211ebb7c61f50787b08666fb9d6c208c38a929081900390910190a3509091505090565b600b546001600160a01b031681565b60036020526000908152604090205460ff1681565b611a16613321565b6000546001600160a01b03908116911614611a66576040805162461bcd60e51b81526020600482018190526024820152600080516020613e3b833981519152604482015290519081900360640190fd5b600080546040516001600160a01b0390911690600080516020613e5b833981519152908390a3600080546001600160a01b0319169055565b336000908152600560205260409020546001600160a01b031680156115cb576040805163b221095760e01b81526001600160a01b03868116600483015285811660248301526044820185905233606483015291519183169163b22109579160848082019260009290919082900301818387803b158015611b1d57600080fd5b505af1158015611b31573d6000803e3d6000fd5b5050505050505050565b611b4483612995565b611b4e83836129f5565b6001600160a01b0383166000908152600260205260408120805484908110611b7257fe5b6000918252602091829020015460408051637e062a3560e11b815290516001600160a01b039092169263fc0c546a92600480840193829003018186803b158015611bbb57600080fd5b505afa158015611bcf573d6000803e3d6000fd5b505050506040513d6020811015611be557600080fd5b50516001600160a01b03851660009081526002602052604081208054929350909182919086908110611c1357fe5b600091825260208220015460408051632126402b60e11b81523360048201526024810188905281516001600160a01b039093169363424c805693604480840194939192918390030190829087803b158015611c6d57600080fd5b505af1158015611c81573d6000803e3d6000fd5b505050506040513d6040811015611c9757600080fd5b5080516020918201516001600160a01b03808716600090815260049485905260408082205481516390596dd160e01b81523397810197909752602487018b905290519497509295509116926390596dd1926044808301939282900301818387803b158015611d0457600080fd5b505af1158015611d18573d6000803e3d6000fd5b505050508015611ebf576001600160a01b0386166000908152600260205260408120805487908110611d4657fe5b60009182526020822001546001600160a01b031691505b816001600160a01b031663d285ae8b6040518163ffffffff1660e01b815260040160206040518083038186803b158015611d9657600080fd5b505afa158015611daa573d6000803e3d6000fd5b505050506040513d6020811015611dc057600080fd5b505160ff9081169082161015611ebc57876001600160a01b031663305ec69e836001600160a01b0316638b77949d846040518263ffffffff1660e01b8152600401808260ff16815260200191505060206040518083038186803b158015611e2657600080fd5b505afa158015611e3a573d6000803e3d6000fd5b505050506040513d6020811015611e5057600080fd5b5051604080516001600160e01b031960e085901b1681526001600160a01b03909216600483015251602480830192600092919082900301818387803b158015611e9857600080fd5b505af1158015611eac573d6000803e3d6000fd5b505060019092019150611d5d9050565b50505b8115611f0e57604080516001600160a01b03881681526020810187905281517fcc3c28638d469c426621bdaa841bf5855a9a1a2540d83006db915a972bec509e929181900390910190a1611f5b565b604080516001600160a01b038816815260208101879052808201869052905133917f39191e1f16712c9d005f40fb8a22508daa852705d161d57f91cba244056ac88a919081900360600190a25b505050505050565b6000546001600160a01b031690565b611f7b84612995565b611f8584846129f5565b6001600160a01b0384166000908152600260205260408120805485908110611fa957fe5b600091825260208220015460408051635f539d6960e01b815233600482015290516001600160a01b0390921693508392635f539d699260248084019382900301818387803b158015611ffa57600080fd5b505af115801561200e573d6000803e3d6000fd5b50505050336001600160a01b03167f17b437b71baa689cb753ab34c8d2784e90045d13e162b07a0f09d17c812c835d86866001856001600160a01b03166392accd376040518163ffffffff1660e01b815260040160206040518083038186803b15801561207a57600080fd5b505afa15801561208e573d6000803e3d6000fd5b505050506040513d60208110156120a457600080fd5b5051604080516001600160a01b0386168152602081810186905260ff94909303938416918101919091526080606082018181528b51918301919091528a518b9360a08401919085019080838360005b8381101561210b5781810151838201526020016120f3565b50505050905090810190601f1680156121385780820380516001836020036101000a031916815260200191505b509550505050505060405180910390a26121bc85856001846001600160a01b03166392accd376040518163ffffffff1660e01b815260040160206040518083038186803b15801561218857600080fd5b505afa15801561219c573d6000803e3d6000fd5b505050506040513d60208110156121b257600080fd5b5051036001612eb9565b610b8b858584613024565b6005602052600090815260409020546001600160a01b031681565b6001600160a01b03841660009081526003602052604090205460ff1661224b576040805162461bcd60e51b8152602060048201526019602482015278129d5919d95c93dc99c81b9bdd081a5b9a5d1a585b1a5e9959603a1b604482015290519081900360640190fd5b600a855110612299576040805162461bcd60e51b8152602060048201526015602482015274139d5b48195e18d959591cc81d1a19481b1a5b5a5d605a1b604482015290519081900360640190fd5b60095460408051633bf206a360e21b815290516000926001600160a01b03169163efc81a8c91600480830192602092919082900301818787803b1580156122df57600080fd5b505af11580156122f3573d6000803e3d6000fd5b505050506040513d602081101561230957600080fd5b50516040805163204a7f0760e21b815290519192506001600160a01b03831691638129fc1c9160048082019260009290919082900301818387803b15801561235057600080fd5b505af1158015612364573d6000803e3d6000fd5b5050506001600160a01b0380871660009081526002602090815260408083208785168452600490925290912054909250168061255e57600b60009054906101000a90046001600160a01b03166001600160a01b031663efc81a8c6040518163ffffffff1660e01b8152600401602060405180830381600087803b1580156123ea57600080fd5b505af11580156123fe573d6000803e3d6000fd5b505050506040513d602081101561241457600080fd5b50516040805163313ce56760e01b815290519192506001600160a01b038084169263de7ea79d929188169163313ce567916004808301926020929190829003018186803b15801561246457600080fd5b505afa158015612478573d6000803e3d6000fd5b505050506040513d602081101561248e57600080fd5b5051604080516001600160e01b031960e085901b16815260ff909216604483015230606483015260806004830152600c60848301526b21b7b73a3937b62a37b5b2b760a11b60a483015260c06024830152600660c48301526521aa37b5b2b760d11b60e48301525161010480830192600092919082900301818387803b15801561251757600080fd5b505af115801561252b573d6000803e3d6000fd5b505050506001600160a01b03848116600090815260046020526040902080546001600160a01b0319169183169190911790555b826001600160a01b031663c5625911338a8888868d6040518763ffffffff1660e01b815260040180876001600160a01b0316815260200180602001868152602001856001600160a01b03168152602001846001600160a01b03168152602001836001600160a01b03168152602001828103825287818151815260200191508051906020019060200280838360005b838110156126045781810151838201526020016125ec565b50505050905001975050505050505050600060405180830381600087803b15801561262e57600080fd5b505af1158015612642573d6000803e3d6000fd5b505083546001810185556000858152602080822090920180546001600160a01b0319166001600160a01b03898116918217909255875460408051938f16845283860192909252600019019082018190526080606083018181528d51918401919091528c513397507ffbd2057371398721bb58f77dd63095479497d1d7fa5f79134df83789f18c629796508e958b9593948f9490939260a08501928601918190849084905b838110156126fe5781810151838201526020016126e6565b50505050905090810190601f16801561272b5780820380516001836020036101000a031916815260200191505b509550505050505060405180910390a281546127509088906000190160006001612eb9565b8154611b319088906000190187613024565b6006546001600160a01b031681565b6009546001600160a01b031681565b6002602052816000526040600020818154811061279957fe5b6000918252602090912001546001600160a01b03169150829050565b600a546001600160a01b031681565b6127cd82612995565b6127d782826129f5565b6001600160a01b03821660009081526002602052604090208054839190839081106127fe57fe5b6000918252602082200154604080516372cd5f4b60e11b815233600482015290516001600160a01b039092169263e59abe969260248084019382900301818387803b15801561284c57600080fd5b505af1158015612860573d6000803e3d6000fd5b5050604080516001600160a01b03871681526020810186905281513394507f0d376ca757eae0fb080b9942bb3cdfea5950c5e9b8435448af91db2cf6f4d42393509081900390910190a2505050565b6128b7613321565b6000546001600160a01b03908116911614612907576040805162461bcd60e51b81526020600482018190526024820152600080516020613e3b833981519152604482015290519081900360640190fd5b6001600160a01b03811661294c5760405162461bcd60e51b8152600401808060200182810382526026815260200180613dce6026913960400191505060405180910390fd5b600080546040516001600160a01b0380851693921691600080516020613e5b83398151915291a3600080546001600160a01b0319166001600160a01b0392909216919091179055565b6001600160a01b0381166000908152600260205260409020546129f2576040805162461bcd60e51b815260206004820152601060248201526f4e6f742076616c6964206b696e646c6560801b604482015290519081900360640190fd5b50565b6001600160a01b0382166000908152600260205260409020548110612a55576040805162461bcd60e51b815260206004820152601160248201527036b0b4b721b7b73a3930b1ba27b93232b960791b604482015290519081900360640190fd5b5050565b6001600160a01b0384166000908152600260205260408120805485908110612a7d57fe5b6000918252602080832090910154604080516308cf4ad360e01b81523360048201526024810188905286850b604482015290516001600160a01b03909216945084926308cf4ad39260648084019382900301818787803b158015612ae057600080fd5b505af1158015612af4573d6000803e3d6000fd5b505050506040513d6020811015612b0a57600080fd5b505190508015612e5b576001600160a01b0386166000908152600260205260408120805487908110612b3857fe5b6000918252602091829020015460408051637e062a3560e11b815290516001600160a01b039092169263fc0c546a92600480840193829003018186803b158015612b8157600080fd5b505afa158015612b95573d6000803e3d6000fd5b505050506040513d6020811015612bab57600080fd5b5051905060005b836001600160a01b031663cb26d99f6040518163ffffffff1660e01b815260040160206040518083038186803b158015612beb57600080fd5b505afa158015612bff573d6000803e3d6000fd5b505050506040513d6020811015612c1557600080fd5b505160ff9081169082161015612e0f576000846001600160a01b031663e7de534a836040518263ffffffff1660e01b8152600401808260ff16815260200191505060206040518083038186803b158015612c6e57600080fd5b505afa158015612c82573d6000803e3d6000fd5b505050506040513d6020811015612c9857600080fd5b5051604080516313cb53f560e21b81526001600160a01b03808416600483015282519394506000938493918a1692634f2d4fd4926024808301939192829003018186803b158015612ce857600080fd5b505afa158015612cfc573d6000803e3d6000fd5b505050506040513d6040811015612d1257600080fd5b5080516020918201516001600160a01b03808916600090815260049485905260408082205481516390596dd160e01b81528a8516978101979097526024870185905290519497509295509116926390596dd1926044808301939282900301818387803b158015612d8157600080fd5b505af1158015612d95573d6000803e3d6000fd5b50505050866001600160a01b031663f6eb1f36846040518263ffffffff1660e01b815260040180826001600160a01b03168152602001915050600060405180830381600087803b158015612de857600080fd5b505af1158015612dfc573d6000803e3d6000fd5b505060019095019450612bb29350505050565b50604080516001600160a01b03891681526020810188905280820187905290517ff57fea9246b8fedd8189f493a9befd94dc571483765efc79681d71e2acff7e9f9181900360600190a1505b604080516001600160a01b038816815260208101879052808201869052600085900b6060820152905133917fd2ea79b7dc9e650cdb58d423e080d5cfecff088d5a03ac962e5dda8f0c1faf58919081900360800190a2505050505050565b6001600160a01b0384166000908152600260205260408120805485908110612edd57fe5b6000918252602080832090910154604080516333f0754960e21b815233600482015260ff8816602482015286850b604482015290516001600160a01b039092169363cfc1d5249360648084019491939192918390030190829087803b158015612f4557600080fd5b505af1158015612f59573d6000803e3d6000fd5b505050506040513d6020811015612f6f57600080fd5b505190508015612fc557604080516001600160a01b03871681526020810186905260ff85168183015290517f9884ed586902e598c38c8fd9038dbbe8c22af8f2a82d6ddee393d3155f0db7a39181900360600190a15b604080516001600160a01b03871681526020810186905260ff851681830152600084900b6060820152905133917faf38e3a033dcbe1e4e6d1f516769bda7f092d29033cc82239a69e099e0790190919081900360800190a25050505050565b8015610bda576001600160a01b038316600090815260026020526040812080548490811061304e57fe5b6000918252602091829020015460408051637e062a3560e11b815290516001600160a01b039092169263fc0c546a92600480840193829003018186803b15801561309757600080fd5b505afa1580156130ab573d6000803e3d6000fd5b505050506040513d60208110156130c157600080fd5b505160065460408051633e0b06db60e01b815290519293506000926131459286926001600160a01b0390911691633e0b06db91600480820192602092909190829003018186803b15801561311457600080fd5b505afa158015613128573d6000803e3d6000fd5b505050506040513d602081101561313e57600080fd5b5051613925565b600654909150613164906001600160a01b038481169133911684613950565b80830361317c6001600160a01b038416333084613950565b6001600160a01b038084166000908152600460208190526040808320548151630baf60eb60e31b81523393810193909352602483018690529051931692635d7b07589260448084019391929182900301818387803b1580156131dd57600080fd5b505af11580156131f1573d6000803e3d6000fd5b5050506001600160a01b0387166000908152600260205260409020805461323c92508790811061321d57fe5b6000918252602090912001546001600160a01b038581169116836139aa565b6001600160a01b038616600090815260026020526040902080548690811061326057fe5b600091825260208220015460408051632978042760e21b81523360048201526024810185905290516001600160a01b039092169263a5e0109c9260448084019382900301818387803b1580156132b557600080fd5b505af11580156132c9573d6000803e3d6000fd5b5050604080516001600160a01b038a1681526020810189905280820188905290513393507f51957e6df29efb48f7ff90e23ebb43b3d2cfd5e760b24ae2d7d147e2ffd8097292509081900360600190a2505050505050565b3390565b6001600160a01b038416600090815260026020526040812080548590811061334957fe5b60009182526020808320909101546001600160a01b0388811684526002909252604083208054929091169350908690811061338057fe5b6000918252602080832090910154604080516390607a7160e01b81523360048201526024810189905287850b604482015290516001600160a01b03909216936390607a719360648084019491939192918390030190829087803b1580156133e657600080fd5b505af11580156133fa573d6000803e3d6000fd5b505050506040513d602081101561341057600080fd5b5051905080156138c7576001600160a01b038616600090815260026020526040812080548790811061343e57fe5b6000918252602091829020015460408051637e062a3560e11b815290516001600160a01b039092169263fc0c546a92600480840193829003018186803b15801561348757600080fd5b505afa15801561349b573d6000803e3d6000fd5b505050506040513d60208110156134b157600080fd5b5051905060005b836001600160a01b031663cb26d99f6040518163ffffffff1660e01b815260040160206040518083038186803b1580156134f157600080fd5b505afa158015613505573d6000803e3d6000fd5b505050506040513d602081101561351b57600080fd5b505160ff9081169082161015613715576000846001600160a01b031663e7de534a836040518263ffffffff1660e01b8152600401808260ff16815260200191505060206040518083038186803b15801561357457600080fd5b505afa158015613588573d6000803e3d6000fd5b505050506040513d602081101561359e57600080fd5b5051604080516313cb53f560e21b81526001600160a01b03808416600483015282519394506000938493918a1692634f2d4fd4926024808301939192829003018186803b1580156135ee57600080fd5b505afa158015613602573d6000803e3d6000fd5b505050506040513d604081101561361857600080fd5b5080516020918201516001600160a01b03808916600090815260049485905260408082205481516390596dd160e01b81528a8516978101979097526024870185905290519497509295509116926390596dd1926044808301939282900301818387803b15801561368757600080fd5b505af115801561369b573d6000803e3d6000fd5b50505050866001600160a01b031663f6eb1f36846040518263ffffffff1660e01b815260040180826001600160a01b03168152602001915050600060405180830381600087803b1580156136ee57600080fd5b505af1158015613702573d6000803e3d6000fd5b5050600190950194506134b89350505050565b5060005b836001600160a01b031663d285ae8b6040518163ffffffff1660e01b815260040160206040518083038186803b15801561375257600080fd5b505afa158015613766573d6000803e3d6000fd5b505050506040513d602081101561377c57600080fd5b505160ff908116908216101561387857876001600160a01b031663305ec69e856001600160a01b0316638b77949d846040518263ffffffff1660e01b8152600401808260ff16815260200191505060206040518083038186803b1580156137e257600080fd5b505afa1580156137f6573d6000803e3d6000fd5b505050506040513d602081101561380c57600080fd5b5051604080516001600160e01b031960e085901b1681526001600160a01b03909216600483015251602480830192600092919082900301818387803b15801561385457600080fd5b505af1158015613868573d6000803e3d6000fd5b5050600190920191506137199050565b50604080516001600160a01b038916815260208101889052808201879052905133917fc12f23da773ddbd4bd2febe5780c0488ecbc661852e4498869cf4b72cf9907e0919081900360600190a2505b604080516001600160a01b038816815260208101879052808201869052600085900b6060820152905133917f2471b47c34e0f4f270d478fcc7345dad344f1d83dcfb1db2487886e90ef5e5f7919081900360800190a2505050505050565b60008061393283856139fc565b905061394681670de0b6b3a7640000613a5c565b9150505b92915050565b604080516001600160a01b0380861660248301528416604482015260648082018490528251808303909101815260849091019091526020810180516001600160e01b03166323b872dd60e01b1790526115cb908590613a9b565b604080516001600160a01b038416602482015260448082018490528251808303909101815260649091019091526020810180516001600160e01b031663a9059cbb60e01b179052610bda908490613a9b565b600082613a0b5750600061394a565b82820282848281613a1857fe5b0414613a555760405162461bcd60e51b8152600401808060200182810382526021815260200180613e1a6021913960400191505060405180910390fd5b9392505050565b6000613a5583836040518060400160405280601a815260200179536166654d6174683a206469766973696f6e206279207a65726f60301b815250613b4c565b6060613af0826040518060400160405280602081526020017f5361666545524332303a206c6f772d6c6576656c2063616c6c206661696c6564815250856001600160a01b0316613bee9092919063ffffffff16565b805190915015610bda57808060200190516020811015613b0f57600080fd5b5051610bda5760405162461bcd60e51b815260040180806020018281038252602a815260200180613e7b602a913960400191505060405180910390fd5b60008183613bd85760405162461bcd60e51b81526004018080602001828103825283818151815260200191508051906020019080838360005b83811015613b9d578181015183820152602001613b85565b50505050905090810190601f168015613bca5780820380516001836020036101000a031916815260200191505b509250505060405180910390fd5b506000838581613be457fe5b0495945050505050565b6060613bfd8484600085613c05565b949350505050565b606082471015613c465760405162461bcd60e51b8152600401808060200182810382526026815260200180613df46026913960400191505060405180910390fd5b613c4f85613d61565b613ca0576040805162461bcd60e51b815260206004820152601d60248201527f416464726573733a2063616c6c20746f206e6f6e2d636f6e7472616374000000604482015290519081900360640190fd5b60006060866001600160a01b031685876040518082805190602001908083835b60208310613cdf5780518252601f199092019160209182019101613cc0565b6001836020036101000a03801982511681845116808217855250505050505090500191505060006040518083038185875af1925050503d8060008114613d41576040519150601f19603f3d011682016040523d82523d6000602084013e613d46565b606091505b5091509150613d56828286613d67565b979650505050505050565b3b151590565b60608315613d76575081613a55565b825115613d865782518084602001fd5b60405162461bcd60e51b8152602060048201818152845160248401528451859391928392604401919085019080838360008315613b9d578181015183820152602001613b8556fe4f776e61626c653a206e6577206f776e657220697320746865207a65726f2061646472657373416464726573733a20696e73756666696369656e742062616c616e636520666f722063616c6c536166654d6174683a206d756c7469706c69636174696f6e206f766572666c6f774f776e61626c653a2063616c6c6572206973206e6f7420746865206f776e65728be0079c531659141344cd1fd0a4f28419497f9722a3daafe3b4186f6b6457e05361666545524332303a204552433230206f7065726174696f6e20646964206e6f742073756363656564a264697066735822122008825326f625cb6b296037e193a64974c0d85b8cf7d935e0370b6ced76094c2564736f6c634300060c0033",
  "immutableReferences": {},
  "source": "pragma solidity 0.6.12;\r\nimport \"./helpers/ERC20.sol\";\r\n\r\nimport \"./libraries/Address.sol\";\r\n\r\nimport \"./libraries/SafeERC20.sol\";\r\n\r\nimport \"./libraries/EnumerableSet.sol\";\r\n\r\nimport \"./helpers/Ownable.sol\";\r\n\r\nimport \"./helpers/ReentrancyGuard.sol\";\r\n\r\nimport \"sortition-sum-tree-factory/contracts/SortitionSumTreeFactory.sol\";\r\n\r\nimport \"./MainContractProxyFactory.sol\";\r\nimport \"./JudgerOrgProxyFactory.sol\";\r\nimport \"./GovernorAlphaProxyFactory.sol\";\r\nimport \"./TimelockProxyFactory.sol\";\r\nimport \"./Reserve.sol\";\r\nimport \"@pooltogether/fixed-point/contracts/FixedPoint.sol\";\r\nimport \"./token/ControlledToken.sol\";\r\nimport \"./token/ControlledTokenProxyFactory.sol\";\r\nimport \"./token/TokenControllerInterface.sol\";\r\nimport \"./token/TokenFaucet.sol\";\r\nimport \"./token/TokenFaucetProxyFactory.sol\";\r\ncontract Entrance is Ownable, ReentrancyGuard,TokenControllerInterface {\r\n    using SafeMath for uint256;\r\n    using SafeERC20 for IERC20;\r\n\r\n\r\n    mapping(address => MainContract[]) public mainContractMap; \r\n    mapping(address => bool) public judgerOrgMap; \r\n    mapping(address => ControlledToken) public controlledTokenMap; \r\n    mapping(address => TokenFaucet) public tokenFaucetMap; \r\n    Reserve public reserve; \r\n    GovernorAlphaProxyFactory public governorAlphaProxyFactory; \r\n    JudgerOrgProxyFactory public judgerOrgProxyFactory; \r\n    MainContractProxyFactory public mainContractProxyFactory; \r\n    TimelockProxyFactory public timelockProxyFactory; \r\n    ControlledTokenProxyFactory public controlledTokenProxyFactory; \r\n    event createMainContractEvent(address indexed from,address judgerOrgAddr,address mainContractAddr,uint256 mainContractOrder,string contentOrIpfsHash);\r\n    event addContractEvent(address indexed from,address judgerOrgAddr,uint256 mainContractOrder,uint8 contractOrder,string contentOrIpfsHash);\r\n    event addStakeEvent(address indexed from, address judgerOrgAddr,uint256 mainContractOrder,uint256 stakeBalance);\r\n    event applyExitEvent(address indexed from, address judgerOrgAddr,uint256 mainContractOrder);\r\n    event finishExitEvent(address judgerOrgAddr,uint256 mainContractOrder);\r\n\r\n    event exitStakeEvent(address indexed from, address judgerOrgAddr,uint256 mainContractOrder,uint256 stakeBalance);\r\n    event signContractEvent(address indexed from, address judgerOrgAddr,uint256 mainContractOrder,uint8 contractOrder,int8 signStatus);\r\n    event finishContractSignEvent(address judgerOrgAddr,uint256 mainContractOrder,uint8 contractOrder);\r\n    event createKindleEvent(address indexed from,address indexed judgerOrgAddr,address governAddr);\r\n    event launchProposalEvent(address indexed from,address judgerOrgAddr,uint256 mainContractOrder,uint256 proposalOrder);\r\n    event signProposalEvent(address indexed from,address judgerOrgAddr,uint256 mainContractOrder,uint256 proposalOrder,int8 signStatus);\r\n    event finishConProposalEvent(address judgerOrgAddr,uint256 mainContractOrder,uint256 proposalOrder);\r\n    event launchJudgerProposalEvent(address indexed from,address judgerOrgAddr,uint256 mainContractOrder,uint256 proposalOrder);\r\n    event signJudgerProposalEvent(address indexed from,address judgerOrgAddr,uint256 mainContractOrder,uint256 proposalOrder,int8 signStatus);\r\n    event finishJudgerProposalEvent(address indexed addr,address judgerOrgAddr,uint256 mainContractOrder,uint256 proposalOrder);\r\n    // event assignJudgerEvent( address indexed judgerOrgAddr,uint256 mainContractOrder,address[] addr);\r\n\r\n    event applyJudgeEvent(address indexed from, address judgerOrgAddr,uint256 mainContractOrder,address[] judgerAddr);\r\n    event setTokenFaucetEvent(address indexed token,address indexed tokenFaucet);\r\n\r\n    constructor(Reserve reserve_,\r\n        GovernorAlphaProxyFactory governorAlphaProxyFactory_,\r\n        JudgerOrgProxyFactory judgerOrgProxyFactory_,\r\n        MainContractProxyFactory mainContractProxyFactory_,\r\n        TimelockProxyFactory timelockProxyFactory_,\r\n        ControlledTokenProxyFactory controlledTokenProxyFactory_) public {\r\n        reserve = reserve_;\r\n        governorAlphaProxyFactory = governorAlphaProxyFactory_;\r\n        judgerOrgProxyFactory = judgerOrgProxyFactory_;\r\n        mainContractProxyFactory = mainContractProxyFactory_;\r\n        timelockProxyFactory = timelockProxyFactory_;\r\n        controlledTokenProxyFactory = controlledTokenProxyFactory_;\r\n    }\r\n\r\n    function createMainContract(\r\n        address[] memory persons,\r\n        address judgerOrgAddr,\r\n        string memory contentOrIpfsHash,\r\n        uint256 stakeBalance,\r\n        ERC20 token\r\n    ) public {\r\n        require(judgerOrgMap[judgerOrgAddr] != false,\"JudgerOrg not initialized\");\r\n        require(persons.length < 10,\"Num exceeds the limit\");\r\n        MainContract mainContract = mainContractProxyFactory.create();\r\n        mainContract.initialize();\r\n        MainContract[] storage mainContractArray = mainContractMap[judgerOrgAddr];\r\n        \r\n        ControlledToken conToken = controlledTokenMap[address(token)];\r\n        if (address(conToken) == address(0)){\r\n           conToken = controlledTokenProxyFactory.create();\r\n           conToken.initialize(\"ControlToken\",\"CToken\",token.decimals(),TokenControllerInterface(this));\r\n           controlledTokenMap[address(token)] = conToken;\r\n        }\r\n        mainContract.createMainContract(msg.sender,persons,stakeBalance,token,conToken,judgerOrgAddr);\r\n        mainContractArray.push(mainContract);\r\n\r\n        emit createMainContractEvent(msg.sender,judgerOrgAddr,address(mainContract),mainContractArray.length-1,contentOrIpfsHash);\r\n\r\n        _signContract(judgerOrgAddr,mainContractArray.length-1,0,1);\r\n        _addStakeBalance(judgerOrgAddr,mainContractArray.length-1,stakeBalance);\r\n    }\r\n    function setTokenFaucet(address token,TokenFaucet tokenFaucet) external onlyOwner {\r\n        tokenFaucetMap[token] = tokenFaucet;\r\n        emit setTokenFaucetEvent(token,address(tokenFaucet));\r\n    }\r\n    function beforeTokenTransfer(address from, address to, uint256 amount) external override {\r\n        // require(address(controlledTokenMap[msg.sender])!= address(0), \"Not correct token\");\r\n\r\n        TokenFaucet tokenFaucet = tokenFaucetMap[msg.sender];\r\n        if (address(tokenFaucet) != address(0)) {\r\n            tokenFaucet.beforeTokenTransfer(from, to, amount, msg.sender);\r\n        }\r\n    }\r\n    function addContract(address judgerOrgAddr,uint256 mainContractOrder,\r\n        string memory contentOrIpfsHash,uint256 stakeBalance) external  {\r\n        onlyValidKindle(judgerOrgAddr);\r\n        onlyValidMainContractOrder(judgerOrgAddr,mainContractOrder);\r\n        \r\n        MainContract mainContract = mainContractMap[judgerOrgAddr][mainContractOrder];\r\n\r\n        mainContract.addContract(msg.sender);\r\n        emit addContractEvent(msg.sender,judgerOrgAddr,mainContractOrder,mainContract.contractMapNum()-1,contentOrIpfsHash);\r\n        _signContract(judgerOrgAddr,mainContractOrder,mainContract.contractMapNum()-1,1);\r\n        _addStakeBalance(judgerOrgAddr,mainContractOrder,stakeBalance);\r\n    }\r\n    function addStakeBalance(address judgerOrgAddr,uint256 mainContractOrder,uint256 stakeBalance) external  {\r\n        onlyValidKindle(judgerOrgAddr);\r\n        onlyValidMainContractOrder(judgerOrgAddr,mainContractOrder);\r\n        _addStakeBalance(judgerOrgAddr,mainContractOrder,stakeBalance);\r\n    }\r\n    function _addStakeBalance(address judgerOrgAddr,uint256 mainContractOrder,uint256 stakeBalance) internal  {\r\n        \r\n        // require(stakeBalance>0,\"Amount cannot be zero\");\r\n\r\n        if (stakeBalance>0){\r\n            address tokenAddr = mainContractMap[judgerOrgAddr][mainContractOrder].token();\r\n            uint256 reserveBal = FixedPoint.multiplyUintByMantissa(stakeBalance, reserve.rateMantissa());\r\n            IERC20(tokenAddr).safeTransferFrom(msg.sender,address(reserve), reserveBal);\r\n            uint256 finalBalance = stakeBalance-reserveBal;\r\n            IERC20(tokenAddr).safeTransferFrom(msg.sender,address(this), finalBalance);\r\n            \r\n            controlledTokenMap[tokenAddr].controllerMint(msg.sender,finalBalance);\r\n\r\n            IERC20(tokenAddr).safeTransfer(address(mainContractMap[judgerOrgAddr][mainContractOrder]), finalBalance);\r\n            mainContractMap[judgerOrgAddr][mainContractOrder].addStakeBalance(msg.sender,finalBalance);\r\n            \r\n            emit addStakeEvent(msg.sender,judgerOrgAddr,mainContractOrder,stakeBalance);\r\n        }\r\n    }\r\n\r\n    function applyExit(address judgerOrgAddr,uint256 mainContractOrder) external  {\r\n        onlyValidKindle(judgerOrgAddr);\r\n        onlyValidMainContractOrder(judgerOrgAddr,mainContractOrder);\r\n\r\n        JudgerOrg judgerOrg = JudgerOrg(judgerOrgAddr);\r\n        // require(judgerOrg.assignJudgerNum() > judgerOrg.idleJudgerSupply(), \"Enough Judgers\");\r\n        mainContractMap[judgerOrgAddr][mainContractOrder].applyExit(msg.sender);\r\n        emit applyExitEvent(msg.sender,judgerOrgAddr,mainContractOrder);\r\n    }\r\n    function exitStakeBalance(address judgerOrgAddr,uint256 mainContractOrder,uint256 stakeBalance) external  {\r\n        onlyValidKindle(judgerOrgAddr);\r\n        onlyValidMainContractOrder(judgerOrgAddr,mainContractOrder);\r\n        address tokenAddr = mainContractMap[judgerOrgAddr][mainContractOrder].token();\r\n        (bool isFinished,bool isJudgeFinished) =mainContractMap[judgerOrgAddr][mainContractOrder].exitStakeBalance(msg.sender,stakeBalance);\r\n        controlledTokenMap[tokenAddr].controllerBurn(msg.sender,stakeBalance);\r\n\r\n        if (isJudgeFinished){\r\n            \r\n            MainContract mainContract = mainContractMap[judgerOrgAddr][mainContractOrder];\r\n\r\n            for (uint8 j=0; j< mainContract.judgerMapNum();j++){\r\n                JudgerOrg(judgerOrgAddr).finish(mainContract.judgerMap(j));\r\n            }\r\n        }\r\n\r\n        if (isFinished){\r\n            emit finishExitEvent(judgerOrgAddr,mainContractOrder);\r\n        }else{\r\n            emit exitStakeEvent(msg.sender,judgerOrgAddr,mainContractOrder,stakeBalance);\r\n        }\r\n    }\r\n     function _signContract(address judgerOrgAddr,uint256 mainContractOrder,uint8 contractOrder,int8 signStatus) internal  {\r\n\r\n        bool isFinished = mainContractMap[judgerOrgAddr][mainContractOrder].signContract(msg.sender,contractOrder,signStatus);\r\n\r\n        if (isFinished){\r\n            emit finishContractSignEvent(judgerOrgAddr,mainContractOrder,contractOrder);\r\n        }\r\n        emit signContractEvent(msg.sender,judgerOrgAddr,mainContractOrder,contractOrder,signStatus);\r\n       \r\n    }\r\n    function signContract(address judgerOrgAddr,uint256 mainContractOrder,uint8 contractOrder,int8 signStatus,uint256 stakeBalance) external  {\r\n        \r\n        onlyValidKindle(judgerOrgAddr);\r\n        onlyValidMainContractOrder(judgerOrgAddr,mainContractOrder);\r\n\r\n        _signContract(judgerOrgAddr,mainContractOrder,contractOrder,signStatus);\r\n        _addStakeBalance(judgerOrgAddr,mainContractOrder,stakeBalance);\r\n    }\r\n\r\n    function createKindle() external returns (address){\r\n\r\n        JudgerOrg judgerOrg = judgerOrgProxyFactory.create();\r\n        judgerOrg.initialize(address(this),address(this),msg.sender);\r\n        GovernorAlpha governorAlpha = governorAlphaProxyFactory.create();\r\n        governorAlpha.initialize(address(this), address(judgerOrg));\r\n        Timelock timelock = timelockProxyFactory.create();\r\n        timelock.initialize(address(governorAlpha), 10);\r\n        judgerOrg.setOwner(address(timelock));\r\n        governorAlpha.setTimelock(address(timelock));\r\n\r\n        judgerOrgMap[address(judgerOrg)] = true;\r\n\r\n        emit createKindleEvent(msg.sender,address(judgerOrg),address(governorAlpha));\r\n        return address(judgerOrg);\r\n    }\r\n\r\n    \r\n    function launchProposal(address judgerOrgAddr,uint256 mainContractOrder,address[] memory persons,uint256[] memory balances) external  {\r\n        onlyValidKindle(judgerOrgAddr);\r\n        onlyValidMainContractOrder(judgerOrgAddr,mainContractOrder);\r\n        require(persons.length < 10,\"Num exceeds the limit\");\r\n        MainContract mainContract = mainContractMap[judgerOrgAddr][mainContractOrder];\r\n        mainContract.launchProposal(msg.sender,persons,balances);\r\n        \r\n        emit launchProposalEvent(msg.sender,judgerOrgAddr,mainContractOrder,mainContract.conPersonProposalMapNum()-1);        \r\n        _signProposal(judgerOrgAddr,mainContractOrder,mainContract.conPersonProposalMapNum()-1, 1);\r\n\r\n    }\r\n    function _signProposal(address judgerOrgAddr,uint256 mainContractOrder,uint256 proposalOrder,int8 signStatus) internal{\r\n        MainContract mainContract = mainContractMap[judgerOrgAddr][mainContractOrder];\r\n\r\n        bool isFinished = mainContract.signProposal(msg.sender,proposalOrder,signStatus);\r\n\r\n        if (isFinished){\r\n            address tokenAddr = mainContractMap[judgerOrgAddr][mainContractOrder].token();\r\n\r\n            for (uint8 i=0;i<mainContract.contractPersonAddrMapNum();i++){       \r\n                address person = mainContract.contractPersonAddrMap(i);\r\n                (bool isJoined ,uint256 balance) = mainContract.contractPersonMap(person);\r\n                controlledTokenMap[tokenAddr].controllerBurn(person,balance);\r\n\r\n                mainContract.clearContractPersonBalance(person);\r\n            }\r\n            emit finishConProposalEvent(judgerOrgAddr,mainContractOrder,proposalOrder);\r\n        }\r\n        emit signProposalEvent(msg.sender,judgerOrgAddr,mainContractOrder,proposalOrder,signStatus);\r\n\r\n    }\r\n    function signProposal(address judgerOrgAddr,uint256 mainContractOrder,uint256 proposalOrder,int8 signStatus) external{\r\n        onlyValidKindle(judgerOrgAddr);\r\n        onlyValidMainContractOrder(judgerOrgAddr,mainContractOrder);\r\n        _signProposal(judgerOrgAddr,mainContractOrder,proposalOrder, signStatus);\r\n    }\r\n\r\n    \r\n    function launchJudgerProposal(address judgerOrgAddr,uint256 mainContractOrder,address[] memory persons,uint256[] memory balance) external{\r\n        onlyValidKindle(judgerOrgAddr);\r\n        onlyValidMainContractOrder(judgerOrgAddr,mainContractOrder);\r\n        require(persons.length < 10,\"Num exceeds the limit\");\r\n        // onlyJudgerPerson(judgerOrgAddr,mainContractOrder);\r\n\r\n        MainContract mainContract = mainContractMap[judgerOrgAddr][mainContractOrder];\r\n        mainContract.launchJudgerProposal(msg.sender,persons,balance);\r\n        \r\n        emit launchJudgerProposalEvent(msg.sender,judgerOrgAddr,mainContractOrder,mainContract.judgerProposalMapNum()-1);        \r\n        _signJudgerProposal(judgerOrgAddr,mainContractOrder,mainContract.judgerProposalMapNum()-1, 1);\r\n\r\n    }\r\n    function _signJudgerProposal(address judgerOrgAddr,uint256 mainContractOrder,uint256 proposalOrder,int8 signStatus) internal  {\r\n        MainContract mainContract = mainContractMap[judgerOrgAddr][mainContractOrder];\r\n        bool isFinished = mainContractMap[judgerOrgAddr][mainContractOrder].signJudgerProposal(msg.sender,proposalOrder,signStatus);\r\n\r\n        if (isFinished){\r\n            \r\n            address tokenAddr = mainContractMap[judgerOrgAddr][mainContractOrder].token();\r\n\r\n            for (uint8 i=0;i<mainContract.contractPersonAddrMapNum();i++){       \r\n                address person = mainContract.contractPersonAddrMap(i);\r\n                (bool isJoined ,uint256 balance) = mainContract.contractPersonMap(person);\r\n                controlledTokenMap[tokenAddr].controllerBurn(person,balance);\r\n\r\n                mainContract.clearContractPersonBalance(person);\r\n            }\r\n\r\n            for (uint8 j=0; j< mainContract.judgerMapNum();j++){\r\n                JudgerOrg(judgerOrgAddr).finish(mainContract.judgerMap(j));\r\n            }\r\n            emit finishJudgerProposalEvent(msg.sender,judgerOrgAddr,mainContractOrder,proposalOrder);\r\n        }\r\n        emit signJudgerProposalEvent(msg.sender,judgerOrgAddr,mainContractOrder,proposalOrder,signStatus);\r\n    }\r\n    function signJudgerProposal(address judgerOrgAddr,uint256 mainContractOrder,uint256 proposalOrder,int8 signStatus) external  {\r\n        onlyValidKindle(judgerOrgAddr);\r\n        onlyValidMainContractOrder(judgerOrgAddr,mainContractOrder);\r\n        _signJudgerProposal(judgerOrgAddr,mainContractOrder,proposalOrder, signStatus);\r\n    }\r\n\r\n    function applyJudge(address judgerOrgAddr, uint256 mainContractOrder) external  {\r\n        onlyValidKindle(judgerOrgAddr);\r\n        onlyValidMainContractOrder(judgerOrgAddr,mainContractOrder);\r\n        // onlyContractPerson(judgerOrgAddr,mainContractOrder);\r\n        MainContract mainContract  = mainContractMap[judgerOrgAddr][mainContractOrder];\r\n        JudgerOrg judgerOrg = JudgerOrg(judgerOrgAddr);\r\n        \r\n        for (uint8 j=0; j< mainContract.judgerMapNum();j++){\r\n            JudgerOrg(judgerOrgAddr).finish(mainContract.judgerMap(j));\r\n        }\r\n        mainContract.applyJudge(msg.sender,judgerOrg.assignJudgerNum());\r\n        \r\n        uint256 randomNumber = uint256(blockhash(block.number - 1));\r\n\r\n        uint256 nextRandom = randomNumber;\r\n        uint8 judgerNum = judgerOrg.assignJudgerNum();\r\n        address[] memory judgerArray = new address[](judgerNum);\r\n        for (uint8 i=0; i<judgerNum; i++){\r\n            address judger = judgerOrg.assignJudger(nextRandom,i);\r\n            require(judger != address(0),\"Not enough judges\");\r\n            judgerArray[i]=judger;\r\n            \r\n            mainContract.setJudger(mainContract.judgerMapNum()-1,i,judger);\r\n            \r\n            bytes32 nextRandomHash = keccak256(abi.encodePacked(nextRandom + 499 + i*521));\r\n            nextRandom = uint256(nextRandomHash);\r\n        }\r\n            \r\n        emit applyJudgeEvent(msg.sender,judgerOrgAddr,mainContractOrder,judgerArray);\r\n    }\r\n    function onlyValidKindle(address judgerOrg) private{\r\n        require(mainContractMap[judgerOrg].length>0, \"Not valid kindle\");\r\n    }\r\n    \r\n    function onlyValidMainContractOrder(address judgerOrg, uint256 mainContractOrder) private{\r\n        require(mainContractOrder < mainContractMap[judgerOrg].length , \"mainContractOrder\");\r\n    }\r\n    \r\n}\r\n",
  "sourcePath": "D:/DesignCode/Eth/cyberCourt/cybercourt-private/cybercourt-core/contracts/Entrance.sol",
  "compiler": {
    "name": "solc",
    "version": "0.6.12+commit.27d51765.Emscripten.clang"
  },
  "schemaVersion": "3.4.1",
  "updatedAt": "2021-09-19T08:54:08.948Z",
  "networkType": "ethereum",
  "devdoc": {
    "kind": "dev",
    "methods": {
      "beforeTokenTransfer(address,address,uint256)": {
        "details": "Controller hook to provide notifications & rule validations on token transfers to the controller. This includes minting and burning.",
        "params": {
          "amount": "Amount of tokens being transferred",
          "from": "Address of the account sending the tokens (address(0x0) on minting)",
          "to": "Address of the account receiving the tokens (address(0x0) on burning)"
        }
      },
      "owner()": {
        "details": "Returns the address of the current owner."
      },
      "renounceOwnership()": {
        "details": "Leaves the contract without owner. It will not be possible to call `onlyOwner` functions anymore. Can only be called by the current owner. NOTE: Renouncing ownership will leave the contract without an owner, thereby removing any functionality that is only available to the owner."
      },
      "transferOwnership(address)": {
        "details": "Transfers ownership of the contract to a new account (`newOwner`). Can only be called by the current owner."
      }
    },
    "version": 1
  },
  "userdoc": {
    "kind": "user",
    "methods": {},
    "version": 1
  }
}