{
  "contractName": "GovernorAlpha",
  "abi": [
    {
      "anonymous": false,
      "inputs": [
        {
          "indexed": false,
          "internalType": "uint256",
          "name": "id",
          "type": "uint256"
        }
      ],
      "name": "ProposalCanceled",
      "type": "event"
    },
    {
      "anonymous": false,
      "inputs": [
        {
          "indexed": false,
          "internalType": "uint256",
          "name": "id",
          "type": "uint256"
        },
        {
          "indexed": false,
          "internalType": "address",
          "name": "proposer",
          "type": "address"
        },
        {
          "indexed": false,
          "internalType": "address[]",
          "name": "targets",
          "type": "address[]"
        },
        {
          "indexed": false,
          "internalType": "uint256[]",
          "name": "values",
          "type": "uint256[]"
        },
        {
          "indexed": false,
          "internalType": "string[]",
          "name": "signatures",
          "type": "string[]"
        },
        {
          "indexed": false,
          "internalType": "bytes[]",
          "name": "calldatas",
          "type": "bytes[]"
        },
        {
          "indexed": false,
          "internalType": "uint256",
          "name": "startBlock",
          "type": "uint256"
        },
        {
          "indexed": false,
          "internalType": "uint256",
          "name": "endBlock",
          "type": "uint256"
        },
        {
          "indexed": false,
          "internalType": "string",
          "name": "description",
          "type": "string"
        }
      ],
      "name": "ProposalCreated",
      "type": "event"
    },
    {
      "anonymous": false,
      "inputs": [
        {
          "indexed": false,
          "internalType": "uint256",
          "name": "id",
          "type": "uint256"
        }
      ],
      "name": "ProposalExecuted",
      "type": "event"
    },
    {
      "anonymous": false,
      "inputs": [
        {
          "indexed": false,
          "internalType": "uint256",
          "name": "id",
          "type": "uint256"
        },
        {
          "indexed": false,
          "internalType": "uint256",
          "name": "eta",
          "type": "uint256"
        }
      ],
      "name": "ProposalQueued",
      "type": "event"
    },
    {
      "anonymous": false,
      "inputs": [
        {
          "indexed": false,
          "internalType": "address",
          "name": "voter",
          "type": "address"
        },
        {
          "indexed": false,
          "internalType": "uint256",
          "name": "proposalId",
          "type": "uint256"
        },
        {
          "indexed": false,
          "internalType": "bool",
          "name": "support",
          "type": "bool"
        },
        {
          "indexed": false,
          "internalType": "uint256",
          "name": "votes",
          "type": "uint256"
        }
      ],
      "name": "VoteCast",
      "type": "event"
    },
    {
      "inputs": [],
      "name": "BALLOT_TYPEHASH",
      "outputs": [
        {
          "internalType": "bytes32",
          "name": "",
          "type": "bytes32"
        }
      ],
      "stateMutability": "view",
      "type": "function"
    },
    {
      "inputs": [],
      "name": "DOMAIN_TYPEHASH",
      "outputs": [
        {
          "internalType": "bytes32",
          "name": "",
          "type": "bytes32"
        }
      ],
      "stateMutability": "view",
      "type": "function"
    },
    {
      "inputs": [
        {
          "internalType": "address",
          "name": "",
          "type": "address"
        }
      ],
      "name": "latestProposalIds",
      "outputs": [
        {
          "internalType": "uint256",
          "name": "",
          "type": "uint256"
        }
      ],
      "stateMutability": "view",
      "type": "function"
    },
    {
      "inputs": [],
      "name": "name",
      "outputs": [
        {
          "internalType": "string",
          "name": "",
          "type": "string"
        }
      ],
      "stateMutability": "view",
      "type": "function"
    },
    {
      "inputs": [],
      "name": "pool",
      "outputs": [
        {
          "internalType": "contract GovernanceTokenInterface",
          "name": "",
          "type": "address"
        }
      ],
      "stateMutability": "view",
      "type": "function"
    },
    {
      "inputs": [],
      "name": "proposalCount",
      "outputs": [
        {
          "internalType": "uint256",
          "name": "",
          "type": "uint256"
        }
      ],
      "stateMutability": "view",
      "type": "function"
    },
    {
      "inputs": [
        {
          "internalType": "uint256",
          "name": "",
          "type": "uint256"
        }
      ],
      "name": "proposals",
      "outputs": [
        {
          "internalType": "uint256",
          "name": "id",
          "type": "uint256"
        },
        {
          "internalType": "address",
          "name": "proposer",
          "type": "address"
        },
        {
          "internalType": "uint256",
          "name": "eta",
          "type": "uint256"
        },
        {
          "internalType": "uint256",
          "name": "startBlock",
          "type": "uint256"
        },
        {
          "internalType": "uint256",
          "name": "endBlock",
          "type": "uint256"
        },
        {
          "internalType": "uint256",
          "name": "forVotes",
          "type": "uint256"
        },
        {
          "internalType": "uint256",
          "name": "againstVotes",
          "type": "uint256"
        },
        {
          "internalType": "bool",
          "name": "canceled",
          "type": "bool"
        },
        {
          "internalType": "bool",
          "name": "executed",
          "type": "bool"
        }
      ],
      "stateMutability": "view",
      "type": "function"
    },
    {
      "inputs": [],
      "name": "timelock",
      "outputs": [
        {
          "internalType": "contract TimelockInterface",
          "name": "",
          "type": "address"
        }
      ],
      "stateMutability": "view",
      "type": "function"
    },
    {
      "inputs": [],
      "name": "quorumVotes",
      "outputs": [
        {
          "internalType": "uint256",
          "name": "",
          "type": "uint256"
        }
      ],
      "stateMutability": "view",
      "type": "function"
    },
    {
      "inputs": [],
      "name": "proposalThreshold",
      "outputs": [
        {
          "internalType": "uint256",
          "name": "",
          "type": "uint256"
        }
      ],
      "stateMutability": "pure",
      "type": "function"
    },
    {
      "inputs": [],
      "name": "proposalMaxOperations",
      "outputs": [
        {
          "internalType": "uint256",
          "name": "",
          "type": "uint256"
        }
      ],
      "stateMutability": "pure",
      "type": "function"
    },
    {
      "inputs": [],
      "name": "votingDelay",
      "outputs": [
        {
          "internalType": "uint256",
          "name": "",
          "type": "uint256"
        }
      ],
      "stateMutability": "pure",
      "type": "function"
    },
    {
      "inputs": [],
      "name": "votingPeriod",
      "outputs": [
        {
          "internalType": "uint256",
          "name": "",
          "type": "uint256"
        }
      ],
      "stateMutability": "pure",
      "type": "function"
    },
    {
      "inputs": [
        {
          "internalType": "address",
          "name": "hermes_",
          "type": "address"
        },
        {
          "internalType": "address",
          "name": "pool_",
          "type": "address"
        }
      ],
      "name": "initialize",
      "outputs": [],
      "stateMutability": "nonpayable",
      "type": "function"
    },
    {
      "inputs": [
        {
          "internalType": "address",
          "name": "timelock_",
          "type": "address"
        }
      ],
      "name": "setTimelock",
      "outputs": [],
      "stateMutability": "nonpayable",
      "type": "function"
    },
    {
      "inputs": [
        {
          "internalType": "address[]",
          "name": "targets",
          "type": "address[]"
        },
        {
          "internalType": "uint256[]",
          "name": "values",
          "type": "uint256[]"
        },
        {
          "internalType": "string[]",
          "name": "signatures",
          "type": "string[]"
        },
        {
          "internalType": "bytes[]",
          "name": "calldatas",
          "type": "bytes[]"
        },
        {
          "internalType": "string",
          "name": "description",
          "type": "string"
        }
      ],
      "name": "propose",
      "outputs": [
        {
          "internalType": "uint256",
          "name": "",
          "type": "uint256"
        }
      ],
      "stateMutability": "nonpayable",
      "type": "function"
    },
    {
      "inputs": [
        {
          "internalType": "uint256",
          "name": "proposalId",
          "type": "uint256"
        }
      ],
      "name": "queue",
      "outputs": [],
      "stateMutability": "nonpayable",
      "type": "function"
    },
    {
      "inputs": [
        {
          "internalType": "uint256",
          "name": "proposalId",
          "type": "uint256"
        }
      ],
      "name": "execute",
      "outputs": [],
      "stateMutability": "payable",
      "type": "function"
    },
    {
      "inputs": [
        {
          "internalType": "uint256",
          "name": "proposalId",
          "type": "uint256"
        }
      ],
      "name": "cancel",
      "outputs": [],
      "stateMutability": "nonpayable",
      "type": "function"
    },
    {
      "inputs": [
        {
          "internalType": "uint256",
          "name": "proposalId",
          "type": "uint256"
        }
      ],
      "name": "getActions",
      "outputs": [
        {
          "internalType": "address[]",
          "name": "targets",
          "type": "address[]"
        },
        {
          "internalType": "uint256[]",
          "name": "values",
          "type": "uint256[]"
        },
        {
          "internalType": "string[]",
          "name": "signatures",
          "type": "string[]"
        },
        {
          "internalType": "bytes[]",
          "name": "calldatas",
          "type": "bytes[]"
        }
      ],
      "stateMutability": "view",
      "type": "function"
    },
    {
      "inputs": [
        {
          "internalType": "uint256",
          "name": "proposalId",
          "type": "uint256"
        },
        {
          "internalType": "address",
          "name": "voter",
          "type": "address"
        }
      ],
      "name": "getReceipt",
      "outputs": [
        {
          "components": [
            {
              "internalType": "bool",
              "name": "hasVoted",
              "type": "bool"
            },
            {
              "internalType": "bool",
              "name": "support",
              "type": "bool"
            },
            {
              "internalType": "uint96",
              "name": "votes",
              "type": "uint96"
            }
          ],
          "internalType": "struct GovernorAlpha.Receipt",
          "name": "",
          "type": "tuple"
        }
      ],
      "stateMutability": "view",
      "type": "function"
    },
    {
      "inputs": [
        {
          "internalType": "uint256",
          "name": "proposalId",
          "type": "uint256"
        }
      ],
      "name": "state",
      "outputs": [
        {
          "internalType": "enum GovernorAlpha.ProposalState",
          "name": "",
          "type": "uint8"
        }
      ],
      "stateMutability": "view",
      "type": "function"
    },
    {
      "inputs": [
        {
          "internalType": "uint256",
          "name": "proposalId",
          "type": "uint256"
        },
        {
          "internalType": "bool",
          "name": "support",
          "type": "bool"
        }
      ],
      "name": "castVote",
      "outputs": [],
      "stateMutability": "nonpayable",
      "type": "function"
    },
    {
      "inputs": [
        {
          "internalType": "uint256",
          "name": "proposalId",
          "type": "uint256"
        },
        {
          "internalType": "bool",
          "name": "support",
          "type": "bool"
        },
        {
          "internalType": "uint8",
          "name": "v",
          "type": "uint8"
        },
        {
          "internalType": "bytes32",
          "name": "r",
          "type": "bytes32"
        },
        {
          "internalType": "bytes32",
          "name": "s",
          "type": "bytes32"
        }
      ],
      "name": "castVoteBySig",
      "outputs": [],
      "stateMutability": "nonpayable",
      "type": "function"
    }
  ],
  "bytecode": "0x608060405234801561001057600080fd5b50612e26806100206000396000f3fe60806040526004361061011b5760003560e01c8063013cf08b1461012057806302a251a31461015e57806306fdde031461018057806315373e3d146101a257806316f0115b146101c457806317977c61146101e657806320606b701461020657806324bc1a641461021b578063328dd982146102305780633932abb11461021b5780633e4f49e61461026057806340e58ee51461028d5780634634c61f146102ad578063485cc955146102cd5780637bdbe4d0146102ed578063b58131b01461021b578063bdacb30314610302578063d33219b414610322578063da35c66414610337578063da95691a1461034c578063ddf0b0091461036c578063deaaa7cc1461038c578063e23a9a52146103a1578063fe0d94c1146103ce575b600080fd5b34801561012c57600080fd5b5061014061013b366004612154565b6103e1565b60405161015599989796959493929190612c64565b60405180910390f35b34801561016a57600080fd5b5061017361043a565b60405161015591906124f1565b34801561018c57600080fd5b5061019561043f565b604051610155919061257c565b3480156101ae57600080fd5b506101c26101bd36600461218f565b61046d565b005b3480156101d057600080fd5b506101d961047c565b6040516101559190612554565b3480156101f257600080fd5b50610173610201366004611f94565b61048b565b34801561021257600080fd5b5061017361049d565b34801561022757600080fd5b506101736104af565b34801561023c57600080fd5b5061025061024b366004612154565b6104b4565b6040516101559493929190612499565b34801561026c57600080fd5b5061028061027b366004612154565b610743565b6040516101559190612568565b34801561029957600080fd5b506101c26102a8366004612154565b6108d8565b3480156102b957600080fd5b506101c26102c83660046121be565b610b39565b3480156102d957600080fd5b506101c26102e8366004611faf565b610cc3565b3480156102f957600080fd5b50610173610d78565b34801561030e57600080fd5b506101c261031d366004611f94565b610d7d565b34801561032e57600080fd5b506101d9610de1565b34801561034357600080fd5b50610173610df6565b34801561035857600080fd5b50610173610367366004611fe3565b610dfc565b34801561037857600080fd5b506101c2610387366004612154565b61121d565b34801561039857600080fd5b5061017361149d565b3480156103ad57600080fd5b506103c16103bc36600461216c565b6114af565b6040516101559190612b9e565b6101c26103dc366004612154565b61151e565b6003602052600090815260409020805460018201546002830154600784015460088501546009860154600a870154600b9097015495966001600160a01b0390951695939492939192909160ff8082169161010090041689565b605090565b60405180604001604052806012815260200171253ab233b2b927b9339023b7bb32b93737b960711b81525081565b6104783383836116f0565b5050565b6001546001600160a01b031681565b60046020526000908152604090205481565b600080516020612d9183398151915281565b600190565b6060806060806000600360008781526020019081526020016000209050806003018160040182600501836006018380548060200260200160405190810160405280929190818152602001828054801561053657602002820191906000526020600020905b81546001600160a01b03168152600190910190602001808311610518575b505050505093508280548060200260200160405190810160405280929190818152602001828054801561058857602002820191906000526020600020905b815481526020019060010190808311610574575b5050505050925081805480602002602001604051908101604052809291908181526020016000905b8282101561065b5760008481526020908190208301805460408051601f60026000196101006001871615020190941693909304928301859004850281018501909152818152928301828280156106475780601f1061061c57610100808354040283529160200191610647565b820191906000526020600020905b81548152906001019060200180831161062a57829003601f168201915b5050505050815260200190600101906105b0565b50505050915080805480602002602001604051908101604052809291908181526020016000905b8282101561072d5760008481526020908190208301805460408051601f60026000196101006001871615020190941693909304928301859004850281018501909152818152928301828280156107195780601f106106ee57610100808354040283529160200191610719565b820191906000526020600020905b8154815290600101906020018083116106fc57829003601f168201915b505050505081526020019060010190610682565b5050505090509450945094509450509193509193565b600081600254101580156107575750600082115b61077c5760405162461bcd60e51b815260040161077390612664565b60405180910390fd5b6000828152600360205260409020600b81015460ff16156107a15760029150506108d3565b806007015443116107b65760009150506108d3565b806008015443116107cb5760019150506108d3565b80600a015481600901541115806107ec57506107e56104af565b8160090154105b156107fb5760039150506108d3565b600281015461080e5760049150506108d3565b600b810154610100900460ff161561082a5760079150506108d3565b6108bd8160020154600060029054906101000a90046001600160a01b03166001600160a01b031663a06db7dc6040518163ffffffff1660e01b815260040160206040518083038186803b15801561088057600080fd5b505afa158015610894573d6000803e3d6000fd5b505050506040513d601f19601f820116820180604052508101906108b891906120ca565b6118b4565b42106108cd5760069150506108d3565b60059150505b919050565b60006108e382610743565b905060078160078111156108f357fe5b14156109115760405162461bcd60e51b815260040161077390612acf565b60008281526003602052604090206109276104af565b60018054838201546001600160a01b039182169263782d6fe192909116906109509043906118e0565b6040518363ffffffff1660e01b815260040161096d9291906123ca565b60206040518083038186803b15801561098557600080fd5b505afa158015610999573d6000803e3d6000fd5b505050506040513d601f19601f820116820180604052508101906109bd9190612214565b6001600160601b0316106109e35760405162461bcd60e51b815260040161077390612880565b600b8101805460ff1916600117905560005b6003820154811015610afc57600060029054906101000a90046001600160a01b03166001600160a01b031663591fcdfe836003018381548110610a3457fe5b6000918252602090912001546004850180546001600160a01b039092169185908110610a5c57fe5b9060005260206000200154856005018581548110610a7657fe5b90600052602060002001866006018681548110610a8f57fe5b9060005260206000200187600201546040518663ffffffff1660e01b8152600401610abe959493929190612460565b600060405180830381600087803b158015610ad857600080fd5b505af1158015610aec573d6000803e3d6000fd5b5050600190920191506109f59050565b507f789cf55be980739dad1d0699b93b58e806b51c9d96619bfa8fe0a28abaa7b30c83604051610b2c91906124f1565b60405180910390a1505050565b604080518082019091526012815271253ab233b2b927b9339023b7bb32b93737b960711b6020909101526000600080516020612d918339815191527f56d8fd3d48bf9a39794f7a3f9559d22caf787ee6265ca77add30a52c98dd6ba5610b9d611908565b30604051602001610bb194939291906124fa565b6040516020818303038152906040528051906020012090506000600080516020612dd18339815191528787604051602001610bee9392919061251e565b60405160208183030381529060405280519060200120905060008282604051602001610c1b9291906123af565b604051602081830303815290604052805190602001209050600060018288888860405160008152602001604052604051610c589493929190612536565b6020604051602081039080840390855afa158015610c7a573d6000803e3d6000fd5b5050604051601f1901519150506001600160a01b038116610cad5760405162461bcd60e51b815260040161077390612a26565b610cb8818a8a6116f0565b505050505050505050565b600054610100900460ff1680610cdc5750610cdc61190c565b80610cea575060005460ff16155b610d065760405162461bcd60e51b815260040161077390612755565b600054610100900460ff16158015610d31576000805460ff1961ff0019909116610100171660011790555b600580546001600160a01b038086166001600160a01b03199283161790925560018054928516929091169190911790558015610d73576000805461ff00191690555b505050565b600a90565b6005546001600160a01b03163314610da75760405162461bcd60e51b815260040161077390612985565b600080546001600160a01b03909216620100000262010000600160b01b0319909216919091179055600580546001600160a01b0319169055565b6000546201000090046001600160a01b031681565b60025481565b6000610e066104af565b600180546001600160a01b03169063782d6fe1903390610e279043906118e0565b6040518363ffffffff1660e01b8152600401610e449291906123ca565b60206040518083038186803b158015610e5c57600080fd5b505afa158015610e70573d6000803e3d6000fd5b505050506040513d601f19601f82011682018060405250810190610e949190612214565b6001600160601b03161015610ebb5760405162461bcd60e51b8152600401610773906129c9565b84518651148015610ecd575083518651145b8015610eda575082518651145b610ef65760405162461bcd60e51b815260040161077390612816565b8551610f145760405162461bcd60e51b815260040161077390612939565b610f1c610d78565b86511115610f3c5760405162461bcd60e51b8152600401610773906127a3565b336000908152600460205260409020548015610fb9576000610f5d82610743565b90506001816007811115610f6d57fe5b1415610f8b5760405162461bcd60e51b815260040161077390612a75565b6000816007811115610f9957fe5b1415610fb75760405162461bcd60e51b8152600401610773906126fa565b505b6000610fc7436108b86104af565b90506000610fd7826108b861043a565b6002805460010190559050610fea611a96565b604051806101a001604052806002548152602001336001600160a01b03168152602001600081526020018b81526020018a815260200189815260200188815260200184815260200183815260200160008152602001600081526020016000151581526020016000151581525090508060036000836000015181526020019081526020016000206000820151816000015560208201518160010160006101000a8154816001600160a01b0302191690836001600160a01b031602179055506040820151816002015560608201518160030190805190602001906110cd929190611b0b565b50608082015180516110e9916004840191602090910190611b70565b5060a08201518051611105916005840191602090910190611bb7565b5060c08201518051611121916006840191602090910190611c10565b5060e082015181600701556101008201518160080155610120820151816009015561014082015181600a015561016082015181600b0160006101000a81548160ff02191690831515021790555061018082015181600b0160016101000a81548160ff02191690831515021790555090505080600001516004600083602001516001600160a01b03166001600160a01b03168152602001908152602001600020819055507f7d84a6263ae0d98d3329bd7b46bb4e8d6f98cd35a7adb45c274c8b7fd5ebd5e08160000151338c8c8c8c89898e60405161120799989796959493929190612bcc565b60405180910390a1519998505050505050505050565b600461122882610743565b600781111561123357fe5b146112505760405162461bcd60e51b81526004016107739061258f565b600060036000838152602001908152602001600020905060006112bb42600060029054906101000a90046001600160a01b03166001600160a01b0316636a42b8f86040518163ffffffff1660e01b815260040160206040518083038186803b15801561088057600080fd5b905060005b60038301548110156114635761145b8360030182815481106112de57fe5b6000918252602090912001546004850180546001600160a01b03909216918490811061130657fe5b906000526020600020015485600501848154811061132057fe5b600091825260209182902001805460408051601f60026000196101006001871615020190941693909304928301859004850281018501909152818152928301828280156113ae5780601f10611383576101008083540402835291602001916113ae565b820191906000526020600020905b81548152906001019060200180831161139157829003601f168201915b50505050508660060185815481106113c257fe5b600091825260209182902001805460408051601f60026000196101006001871615020190941693909304928301859004850281018501909152818152928301828280156114505780601f1061142557610100808354040283529160200191611450565b820191906000526020600020905b81548152906001019060200180831161143357829003601f168201915b50505050508661191d565b6001016112c0565b50600282018190556040517f9a2e42fd6722813d69113e7d0079d3d940171428df7373df9c7f7617cfda289290610b2c9085908490612cb0565b600080516020612dd183398151915281565b6114b7611c69565b5060008281526003602090815260408083206001600160a01b0385168452600c018252918290208251606081018452905460ff80821615158352610100820416151592820192909252620100009091046001600160601b0316918101919091525b92915050565b600561152982610743565b600781111561153457fe5b146115515760405162461bcd60e51b8152600401610773906125f9565b6000818152600360205260408120600b8101805461ff001916610100179055905b60038201548110156116b457600060029054906101000a90046001600160a01b03166001600160a01b0316630825f38f8360040183815481106115b157fe5b90600052602060002001548460030184815481106115cb57fe5b6000918252602090912001546004860180546001600160a01b0390921691869081106115f357fe5b906000526020600020015486600501868154811061160d57fe5b9060005260206000200187600601878154811061162657fe5b9060005260206000200188600201546040518763ffffffff1660e01b8152600401611655959493929190612460565b6000604051808303818588803b15801561166e57600080fd5b505af1158015611682573d6000803e3d6000fd5b50505050506040513d6000823e601f3d908101601f191682016040526116ab91908101906120e2565b50600101611572565b507f712ae1383f79ac853f8d882153778e0260ef8f03b504e2866e0593e04d2b291f826040516116e491906124f1565b60405180910390a15050565b60016116fb83610743565b600781111561170657fe5b146117235760405162461bcd60e51b815260040161077390612b25565b60008281526003602090815260408083206001600160a01b0387168452600c8101909252909120805460ff161561176c5760405162461bcd60e51b8152600401610773906126ad565b600154600783015460405163782d6fe160e01b81526000926001600160a01b03169163782d6fe1916117a2918a916004016123ca565b60206040518083038186803b1580156117ba57600080fd5b505afa1580156117ce573d6000803e3d6000fd5b505050506040513d601f19601f820116820180604052508101906117f29190612214565b9050831561181b576118118360090154826001600160601b03166118b4565b6009840155611838565b61183283600a0154826001600160601b03166118b4565b600a8401555b8154600160ff199091161761ff001916610100851515021762010000600160701b031916620100006001600160601b038316021782556040517f877856338e13f63d0c36822ff0ef736b80934cd90574a3a5bc9262c39d217c46906118a49088908890889086906123e3565b60405180910390a1505050505050565b6000828201838110156118d95760405162461bcd60e51b8152600401610773906127eb565b9392505050565b6000828211156119025760405162461bcd60e51b815260040161077390612b6f565b50900390565b4690565b600061191730611a90565b15905090565b600060029054906101000a90046001600160a01b03166001600160a01b031663f2b06537868686868660405160200161195a959493929190612414565b604051602081830303815290604052805190602001206040518263ffffffff1660e01b815260040161198c91906124f1565b60206040518083038186803b1580156119a457600080fd5b505afa1580156119b8573d6000803e3d6000fd5b505050506040513d601f19601f820116820180604052508101906119dc91906120ae565b156119f95760405162461bcd60e51b8152600401610773906128cf565b600054604051633a66f90160e01b8152620100009091046001600160a01b031690633a66f90190611a369088908890889088908890600401612414565b602060405180830381600087803b158015611a5057600080fd5b505af1158015611a64573d6000803e3d6000fd5b505050506040513d601f19601f82011682018060405250810190611a8891906120ca565b505050505050565b3b151590565b604051806101a001604052806000815260200160006001600160a01b031681526020016000815260200160608152602001606081526020016060815260200160608152602001600081526020016000815260200160008152602001600081526020016000151581526020016000151581525090565b828054828255906000526020600020908101928215611b60579160200282015b82811115611b6057825182546001600160a01b0319166001600160a01b03909116178255602090920191600190910190611b2b565b50611b6c929150611c89565b5090565b828054828255906000526020600020908101928215611bab579160200282015b82811115611bab578251825591602001919060010190611b90565b50611b6c929150611ca8565b828054828255906000526020600020908101928215611c04579160200282015b82811115611c045782518051611bf4918491602090910190611cbd565b5091602001919060010190611bd7565b50611b6c929150611d2a565b828054828255906000526020600020908101928215611c5d579160200282015b82811115611c5d5782518051611c4d918491602090910190611cbd565b5091602001919060010190611c30565b50611b6c929150611d47565b604080516060810182526000808252602082018190529181019190915290565b5b80821115611b6c5780546001600160a01b0319168155600101611c8a565b5b80821115611b6c5760008155600101611ca9565b828054600181600116156101000203166002900490600052602060002090601f016020900481019282601f10611cfe57805160ff1916838001178555611bab565b82800160010185558215611bab5791820182811115611bab578251825591602001919060010190611b90565b80821115611b6c576000611d3e8282611d64565b50600101611d2a565b80821115611b6c576000611d5b8282611d64565b50600101611d47565b50805460018160011615610100020316600290046000825580601f10611d8a5750611da8565b601f016020900490600052602060002090810190611da89190611ca8565b50565b80356001600160a01b038116811461151857600080fd5b600082601f830112611dd2578081fd5b8135611de5611de082612ce4565b612cbe565b818152915060208083019084810181840286018201871015611e0657600080fd5b60005b84811015611e2d57611e1b8883611dab565b84529282019290820190600101611e09565b505050505092915050565b600082601f830112611e48578081fd5b8135611e56611de082612ce4565b818152915060208083019084810160005b84811015611e2d57611e7e888484358a0101611f46565b84529282019290820190600101611e67565b600082601f830112611ea0578081fd5b8135611eae611de082612ce4565b818152915060208083019084810160005b84811015611e2d57611ed6888484358a0101611f46565b84529282019290820190600101611ebf565b600082601f830112611ef8578081fd5b8135611f06611de082612ce4565b818152915060208083019084810181840286018201871015611f2757600080fd5b60005b84811015611e2d57813584529282019290820190600101611f2a565b600082601f830112611f56578081fd5b8135611f64611de082612d03565b9150808252836020828501011115611f7b57600080fd5b8060208401602084013760009082016020015292915050565b600060208284031215611fa5578081fd5b6118d98383611dab565b60008060408385031215611fc1578081fd5b611fcb8484611dab565b9150611fda8460208501611dab565b90509250929050565b600080600080600060a08688031215611ffa578081fd5b85356001600160401b0380821115612010578283fd5b61201c89838a01611dc2565b96506020880135915080821115612031578283fd5b61203d89838a01611ee8565b95506040880135915080821115612052578283fd5b61205e89838a01611e90565b94506060880135915080821115612073578283fd5b61207f89838a01611e38565b93506080880135915080821115612094578283fd5b506120a188828901611f46565b9150509295509295909350565b6000602082840312156120bf578081fd5b81516118d981612d62565b6000602082840312156120db578081fd5b5051919050565b6000602082840312156120f3578081fd5b81516001600160401b03811115612108578182fd5b8201601f81018413612118578182fd5b8051612126611de082612d03565b81815285602083850101111561213a578384fd5b61214b826020830160208601612d32565b95945050505050565b600060208284031215612165578081fd5b5035919050565b6000806040838503121561217e578182fd5b82359150611fda8460208501611dab565b600080604083850312156121a1578182fd5b8235915060208301356121b381612d62565b809150509250929050565b600080600080600060a086880312156121d5578283fd5b8535945060208601356121e781612d62565b9350604086013560ff811681146121fc578384fd5b94979396509394606081013594506080013592915050565b600060208284031215612225578081fd5b81516001600160601b03811681146118d9578182fd5b6000815180845260208085019450808401835b838110156122735781516001600160a01b03168752958201959082019060010161224e565b509495945050505050565b6000815180845260208085018081965082840281019150828601855b858110156122c45782840389526122b2848351612300565b9885019893509084019060010161229a565b5091979650505050505050565b6000815180845260208085019450808401835b83811015612273578151875295820195908201906001016122e4565b60008151808452612318816020860160208601612d32565b601f01601f19169290920160200192915050565b6000815460018082166000811461234a5760018114612368576123a6565b60028304607f16865260ff19831660208701526040860193506123a6565b6002830480875261237886612d26565b60005b8281101561239c5781546020828b010152848201915060208101905061237b565b8801602001955050505b50505092915050565b61190160f01b81526002810192909252602282015260420190565b6001600160a01b03929092168252602082015260400190565b6001600160a01b039490941684526020840192909252151560408301526001600160601b0316606082015260800190565b600060018060a01b038716825285602083015260a0604083015261243b60a0830186612300565b828103606084015261244d8186612300565b9150508260808301529695505050505050565b600060018060a01b038716825285602083015260a0604083015261248760a083018661232c565b828103606084015261244d818661232c565b6000608082526124ac608083018761223b565b82810360208401526124be81876122d1565b905082810360408401526124d2818661227e565b905082810360608401526124e6818561227e565b979650505050505050565b90815260200190565b938452602084019290925260408301526001600160a01b0316606082015260800190565b92835260208301919091521515604082015260600190565b93845260ff9290921660208401526040830152606082015260800190565b6001600160a01b0391909116815260200190565b602081016008831061257657fe5b91905290565b6000602082526118d96020830184612300565b60208082526044908201527f476f7665726e6f72416c7068613a3a71756575653a2070726f706f73616c206360408201527f616e206f6e6c79206265207175657565642069662069742069732073756363656060820152631959195960e21b608082015260a00190565b60208082526045908201527f476f7665726e6f72416c7068613a3a657865637574653a2070726f706f73616c60408201527f2063616e206f6e6c7920626520657865637574656420696620697420697320716060820152641d595d595960da1b608082015260a00190565b60208082526029908201527f476f7665726e6f72416c7068613a3a73746174653a20696e76616c69642070726040820152681bdc1bdcd85b081a5960ba1b606082015260800190565b6020808252602d908201527f476f7665726e6f72416c7068613a3a5f63617374566f74653a20766f7465722060408201526c185b1c9958591e481d9bdd1959609a1b606082015260800190565b6020808252605990820152600080516020612d718339815191526040820152600080516020612db183398151915260608201527808185b1c9958591e481c195b991a5b99c81c1c9bdc1bdcd85b603a1b608082015260a00190565b6020808252602e908201527f496e697469616c697a61626c653a20636f6e747261637420697320616c72656160408201526d191e481a5b9a5d1a585b1a5e995960921b606082015260800190565b60208082526028908201527f476f7665726e6f72416c7068613a3a70726f706f73653a20746f6f206d616e7960408201526720616374696f6e7360c01b606082015260800190565b6020808252601190820152706164646974696f6e206f766572666c6f7760781b604082015260600190565b60208082526044908201527f476f7665726e6f72416c7068613a3a70726f706f73653a2070726f706f73616c60408201527f2066756e6374696f6e20696e666f726d6174696f6e206172697479206d69736d6060820152630c2e8c6d60e31b608082015260a00190565b6020808252602f908201527f476f7665726e6f72416c7068613a3a63616e63656c3a2070726f706f7365722060408201526e18589bdd99481d1a1c995cda1bdb19608a1b606082015260800190565b60208082526044908201527f476f7665726e6f72416c7068613a3a5f71756575654f725265766572743a207060408201527f726f706f73616c20616374696f6e20616c7265616479207175657565642061746060820152632065746160e01b608082015260a00190565b6020808252602c908201527f476f7665726e6f72416c7068613a3a70726f706f73653a206d7573742070726f60408201526b7669646520616374696f6e7360a01b606082015260800190565b60208082526024908201527f6f6e6c79206865726d65732063616e2064656c69766572207468652074696d656040820152636c6f636b60e01b606082015260800190565b6020808252603f908201527f476f7665726e6f72416c7068613a3a70726f706f73653a2070726f706f73657260408201527f20766f7465732062656c6f772070726f706f73616c207468726573686f6c6400606082015260800190565b6020808252602f908201527f476f7665726e6f72416c7068613a3a63617374566f746542795369673a20696e60408201526e76616c6964207369676e617475726560881b606082015260800190565b6020808252605890820152600080516020612d718339815191526040820152600080516020612db183398151915260608201527708185b1c9958591e481858dd1a5d99481c1c9bdc1bdcd85b60421b608082015260a00190565b60208082526036908201527f476f7665726e6f72416c7068613a3a63616e63656c3a2063616e6e6f742063616040820152751b98d95b08195e1958dd5d1959081c1c9bdc1bdcd85b60521b606082015260800190565b6020808252602a908201527f476f7665726e6f72416c7068613a3a5f63617374566f74653a20766f74696e67604082015269081a5cc818db1bdcd95960b21b606082015260800190565b6020808252601590820152747375627472616374696f6e20756e646572666c6f7760581b604082015260600190565b8151151581526020808301511515908201526040918201516001600160601b03169181019190915260600190565b8981526001600160a01b038916602082015261012060408201819052600090612bf78382018b61223b565b90508281036060840152612c0b818a6122d1565b90508281036080840152612c1f818961227e565b905082810360a0840152612c33818861227e565b90508560c08401528460e0840152828103610100840152612c548185612300565b9c9b505050505050505050505050565b9889526001600160a01b0397909716602089015260408801959095526060870193909352608086019190915260a085015260c0840152151560e083015215156101008201526101200190565b918252602082015260400190565b6040518181016001600160401b0381118282101715612cdc57600080fd5b604052919050565b60006001600160401b03821115612cf9578081fd5b5060209081020190565b60006001600160401b03821115612d18578081fd5b50601f01601f191660200190565b60009081526020902090565b60005b83811015612d4d578181015183820152602001612d35565b83811115612d5c576000848401525b50505050565b8015158114611da857600080fdfe476f7665726e6f72416c7068613a3a70726f706f73653a206f6e65206c6976658cad95687ba82c2ce50e74f7b754645e5117c3a5bec8151c0726d5857980a8662070726f706f73616c207065722070726f706f7365722c20666f756e6420616e8e25870c07e0b0b3884c78da52790939a455c275406c44ae8b434b692fb916eea2646970667358221220fc5c817efc054c5164100527941a2d8d9dbefa5823bd7edae9c30927ae60edd164736f6c634300060c0033",
  "immutableReferences": {},
  "source": "pragma solidity >=0.6.0 <0.7.0;\r\npragma experimental ABIEncoderV2;\r\n\r\n\r\nimport \"@openzeppelin/contracts-upgradeable/proxy/Initializable.sol\";\r\n\r\ncontract GovernorAlpha is Initializable{\r\n    /// @notice The name of this contract\r\n    string public constant name = \"JudgerOrg Governor\";\r\n\r\n    /// @notice The number of votes in support of a proposal required in order for a quorum to be reached and for a vote to succeed\r\n    function quorumVotes() public view returns (uint) { return (1); } // 1% of Pool\r\n\r\n    /// @notice The number of votes required in order for a voter to become a proposer\r\n    function proposalThreshold() public pure returns (uint) { return 1; } // 0.1% of Pool\r\n\r\n    /// @notice The maximum number of actions that can be included in a proposal\r\n    function proposalMaxOperations() public pure returns (uint) { return 10; } // 10 actions\r\n\r\n    /// @notice The delay before voting on a proposal may take place, once proposed\r\n    function votingDelay() public pure returns (uint) { return 1; } // 1 block\r\n\r\n    /// @notice The duration of voting on a proposal, in blocks\r\n    function votingPeriod() public pure returns (uint) { return 80; } // ~5 days in blocks (assuming 15s blocks)\r\n\r\n    /// @notice The address of the Pool Protocol Timelock\r\n    TimelockInterface public timelock;\r\n\r\n    /// @notice The address of the Pool governance token\r\n    GovernanceTokenInterface public pool;\r\n\r\n    /// @notice The total number of proposals\r\n    uint public proposalCount;\r\n\r\n    struct Proposal {\r\n        /// @notice Unique id for looking up a proposal\r\n        uint id;\r\n\r\n        /// @notice Creator of the proposal\r\n        address proposer;\r\n\r\n        /// @notice The timestamp that the proposal will be available for execution, set once the vote succeeds\r\n        uint eta;\r\n\r\n        /// @notice the ordered list of target addresses for calls to be made\r\n        address[] targets;\r\n\r\n        /// @notice The ordered list of values (i.e. msg.value) to be passed to the calls to be made\r\n        uint[] values;\r\n\r\n        /// @notice The ordered list of function signatures to be called\r\n        string[] signatures;\r\n\r\n        /// @notice The ordered list of calldata to be passed to each call\r\n        bytes[] calldatas;\r\n\r\n        /// @notice The block at which voting begins: holders must delegate their votes prior to this block\r\n        uint startBlock;\r\n\r\n        /// @notice The block at which voting ends: votes must be cast prior to this block\r\n        uint endBlock;\r\n\r\n        /// @notice Current number of votes in favor of this proposal\r\n        uint forVotes;\r\n\r\n        /// @notice Current number of votes in opposition to this proposal\r\n        uint againstVotes;\r\n\r\n        /// @notice Flag marking whether the proposal has been canceled\r\n        bool canceled;\r\n\r\n        /// @notice Flag marking whether the proposal has been executed\r\n        bool executed;\r\n\r\n        /// @notice Receipts of ballots for the entire set of voters\r\n        mapping (address => Receipt) receipts;\r\n    }\r\n\r\n    /// @notice Ballot receipt record for a voter\r\n    struct Receipt {\r\n        /// @notice Whether or not a vote has been cast\r\n        bool hasVoted;\r\n\r\n        /// @notice Whether or not the voter supports the proposal\r\n        bool support;\r\n\r\n        /// @notice The number of votes the voter had, which were cast\r\n        uint96 votes;\r\n    }\r\n\r\n    /// @notice Possible states that a proposal may be in\r\n    enum ProposalState {\r\n        Pending,\r\n        Active,\r\n        Canceled,\r\n        Defeated,\r\n        Succeeded,\r\n        Queued,\r\n        Expired,\r\n        Executed\r\n    }\r\n\r\n    /// @notice The official record of all proposals ever proposed\r\n    mapping (uint => Proposal) public proposals;\r\n\r\n    /// @notice The latest proposal for each proposer\r\n    mapping (address => uint) public latestProposalIds;\r\n\r\n    /// @notice The EIP-712 typehash for the contract's domain\r\n    bytes32 public constant DOMAIN_TYPEHASH = keccak256(\"EIP712Domain(string name,uint256 chainId,address verifyingContract)\");\r\n\r\n    /// @notice The EIP-712 typehash for the ballot struct used by the contract\r\n    bytes32 public constant BALLOT_TYPEHASH = keccak256(\"Ballot(uint256 proposalId,bool support)\");\r\n\r\n    /// @notice An event emitted when a new proposal is created\r\n    event ProposalCreated(uint id, address proposer, address[] targets, uint[] values, string[] signatures, bytes[] calldatas, uint startBlock, uint endBlock, string description);\r\n\r\n    /// @notice An event emitted when a vote has been cast on a proposal\r\n    event VoteCast(address voter, uint proposalId, bool support, uint votes);\r\n\r\n    /// @notice An event emitted when a proposal has been canceled\r\n    event ProposalCanceled(uint id);\r\n\r\n    /// @notice An event emitted when a proposal has been queued in the Timelock\r\n    event ProposalQueued(uint id, uint eta);\r\n\r\n    /// @notice An event emitted when a proposal has been executed in the Timelock\r\n    event ProposalExecuted(uint id);\r\n\r\n    /// @notice Hermes' only job is to deliver the timelock\r\n    address hermes;\r\n    function initialize(\r\n        address hermes_, address pool_\r\n    ) public virtual initializer {\r\n        hermes = hermes_;\r\n        pool = GovernanceTokenInterface(pool_);\r\n    }\r\n\r\n    function setTimelock(address timelock_) public {\r\n        require(msg.sender == hermes, \"only hermes can deliver the timelock\");\r\n        timelock = TimelockInterface(timelock_);\r\n        // Thanks hermes, your job is done\r\n        hermes = address(0);\r\n    }\r\n\r\n    function propose(address[] memory targets, uint[] memory values, string[] memory signatures, bytes[] memory calldatas, string memory description) public returns (uint) {\r\n        require(pool.getPriorVotes(msg.sender, sub256(block.number, 1)) >= proposalThreshold(), \"GovernorAlpha::propose: proposer votes below proposal threshold\");\r\n        require(targets.length == values.length && targets.length == signatures.length && targets.length == calldatas.length, \"GovernorAlpha::propose: proposal function information arity mismatch\");\r\n        require(targets.length != 0, \"GovernorAlpha::propose: must provide actions\");\r\n        require(targets.length <= proposalMaxOperations(), \"GovernorAlpha::propose: too many actions\");\r\n\r\n        uint latestProposalId = latestProposalIds[msg.sender];\r\n        if (latestProposalId != 0) {\r\n          ProposalState proposersLatestProposalState = state(latestProposalId);\r\n          require(proposersLatestProposalState != ProposalState.Active, \"GovernorAlpha::propose: one live proposal per proposer, found an already active proposal\");\r\n          require(proposersLatestProposalState != ProposalState.Pending, \"GovernorAlpha::propose: one live proposal per proposer, found an already pending proposal\");\r\n        }\r\n\r\n        uint startBlock = add256(block.number, votingDelay());\r\n        uint endBlock = add256(startBlock, votingPeriod());\r\n\r\n        proposalCount++;\r\n        Proposal memory newProposal = Proposal({\r\n            id: proposalCount,\r\n            proposer: msg.sender,\r\n            eta: 0,\r\n            targets: targets,\r\n            values: values,\r\n            signatures: signatures,\r\n            calldatas: calldatas,\r\n            startBlock: startBlock,\r\n            endBlock: endBlock,\r\n            forVotes: 0,\r\n            againstVotes: 0,\r\n            canceled: false,\r\n            executed: false\r\n        });\r\n\r\n        proposals[newProposal.id] = newProposal;\r\n        latestProposalIds[newProposal.proposer] = newProposal.id;\r\n\r\n        emit ProposalCreated(newProposal.id, msg.sender, targets, values, signatures, calldatas, startBlock, endBlock, description);\r\n        return newProposal.id;\r\n    }\r\n\r\n    function queue(uint proposalId) public {\r\n        require(state(proposalId) == ProposalState.Succeeded, \"GovernorAlpha::queue: proposal can only be queued if it is succeeded\");\r\n        Proposal storage proposal = proposals[proposalId];\r\n        uint eta = add256(block.timestamp, timelock.delay());\r\n        for (uint i = 0; i < proposal.targets.length; i++) {\r\n            _queueOrRevert(proposal.targets[i], proposal.values[i], proposal.signatures[i], proposal.calldatas[i], eta);\r\n        }\r\n        proposal.eta = eta;\r\n        emit ProposalQueued(proposalId, eta);\r\n    }\r\n\r\n    function _queueOrRevert(address target, uint value, string memory signature, bytes memory data, uint eta) internal {\r\n        require(!timelock.queuedTransactions(keccak256(abi.encode(target, value, signature, data, eta))), \"GovernorAlpha::_queueOrRevert: proposal action already queued at eta\");\r\n        timelock.queueTransaction(target, value, signature, data, eta);\r\n    }\r\n\r\n    function execute(uint proposalId) public payable {\r\n        require(state(proposalId) == ProposalState.Queued, \"GovernorAlpha::execute: proposal can only be executed if it is queued\");\r\n        Proposal storage proposal = proposals[proposalId];\r\n        proposal.executed = true;\r\n        for (uint i = 0; i < proposal.targets.length; i++) {\r\n            timelock.executeTransaction.value(proposal.values[i])(proposal.targets[i], proposal.values[i], proposal.signatures[i], proposal.calldatas[i], proposal.eta);\r\n        }\r\n        emit ProposalExecuted(proposalId);\r\n    }\r\n\r\n    function cancel(uint proposalId) public {\r\n        ProposalState state = state(proposalId);\r\n        require(state != ProposalState.Executed, \"GovernorAlpha::cancel: cannot cancel executed proposal\");\r\n\r\n        Proposal storage proposal = proposals[proposalId];\r\n        require(pool.getPriorVotes(proposal.proposer, sub256(block.number, 1)) < proposalThreshold(), \"GovernorAlpha::cancel: proposer above threshold\");\r\n\r\n        proposal.canceled = true;\r\n        for (uint i = 0; i < proposal.targets.length; i++) {\r\n            timelock.cancelTransaction(proposal.targets[i], proposal.values[i], proposal.signatures[i], proposal.calldatas[i], proposal.eta);\r\n        }\r\n\r\n        emit ProposalCanceled(proposalId);\r\n    }\r\n\r\n    function getActions(uint proposalId) public view returns (address[] memory targets, uint[] memory values, string[] memory signatures, bytes[] memory calldatas) {\r\n        Proposal storage p = proposals[proposalId];\r\n        return (p.targets, p.values, p.signatures, p.calldatas);\r\n    }\r\n\r\n    function getReceipt(uint proposalId, address voter) public view returns (Receipt memory) {\r\n        return proposals[proposalId].receipts[voter];\r\n    }\r\n\r\n    function state(uint proposalId) public view returns (ProposalState) {\r\n        require(proposalCount >= proposalId && proposalId > 0, \"GovernorAlpha::state: invalid proposal id\");\r\n        Proposal storage proposal = proposals[proposalId];\r\n        if (proposal.canceled) {\r\n            return ProposalState.Canceled;\r\n        } else if (block.number <= proposal.startBlock) {\r\n            return ProposalState.Pending;\r\n        } else if (block.number <= proposal.endBlock) {\r\n            return ProposalState.Active;\r\n        } else if (proposal.forVotes <= proposal.againstVotes || proposal.forVotes < quorumVotes()) {\r\n            return ProposalState.Defeated;\r\n        } else if (proposal.eta == 0) {\r\n            return ProposalState.Succeeded;\r\n        } else if (proposal.executed) {\r\n            return ProposalState.Executed;\r\n        } else if (block.timestamp >= add256(proposal.eta, timelock.gracePeriod())) {\r\n            return ProposalState.Expired;\r\n        } else {\r\n            return ProposalState.Queued;\r\n        }\r\n    }\r\n\r\n    function castVote(uint proposalId, bool support) public {\r\n        return _castVote(msg.sender, proposalId, support);\r\n    }\r\n\r\n    function castVoteBySig(uint proposalId, bool support, uint8 v, bytes32 r, bytes32 s) public {\r\n        bytes32 domainSeparator = keccak256(abi.encode(DOMAIN_TYPEHASH, keccak256(bytes(name)), getChainId(), address(this)));\r\n        bytes32 structHash = keccak256(abi.encode(BALLOT_TYPEHASH, proposalId, support));\r\n        bytes32 digest = keccak256(abi.encodePacked(\"\\x19\\x01\", domainSeparator, structHash));\r\n        address signatory = ecrecover(digest, v, r, s);\r\n        require(signatory != address(0), \"GovernorAlpha::castVoteBySig: invalid signature\");\r\n        return _castVote(signatory, proposalId, support);\r\n    }\r\n\r\n    function _castVote(address voter, uint proposalId, bool support) internal {\r\n        require(state(proposalId) == ProposalState.Active, \"GovernorAlpha::_castVote: voting is closed\");\r\n        Proposal storage proposal = proposals[proposalId];\r\n        Receipt storage receipt = proposal.receipts[voter];\r\n        require(receipt.hasVoted == false, \"GovernorAlpha::_castVote: voter already voted\");\r\n        uint96 votes = pool.getPriorVotes(voter, proposal.startBlock);\r\n\r\n        if (support) {\r\n            proposal.forVotes = add256(proposal.forVotes, votes);\r\n        } else {\r\n            proposal.againstVotes = add256(proposal.againstVotes, votes);\r\n        }\r\n\r\n        receipt.hasVoted = true;\r\n        receipt.support = support;\r\n        receipt.votes = votes;\r\n\r\n        emit VoteCast(voter, proposalId, support, votes);\r\n    }\r\n\r\n    function add256(uint256 a, uint256 b) internal pure returns (uint) {\r\n        uint c = a + b;\r\n        require(c >= a, \"addition overflow\");\r\n        return c;\r\n    }\r\n\r\n    function sub256(uint256 a, uint256 b) internal pure returns (uint) {\r\n        require(b <= a, \"subtraction underflow\");\r\n        return a - b;\r\n    }\r\n\r\n    function getChainId() internal pure returns (uint) {\r\n        uint chainId;\r\n        assembly { chainId := chainid() }\r\n        return chainId;\r\n    }\r\n}\r\n\r\ninterface TimelockInterface {\r\n    function delay() external view returns (uint);\r\n    function gracePeriod() external view returns (uint);\r\n    function acceptAdmin() external;\r\n    function queuedTransactions(bytes32 hash) external view returns (bool);\r\n    function queueTransaction(address target, uint value, string calldata signature, bytes calldata data, uint eta) external returns (bytes32);\r\n    function cancelTransaction(address target, uint value, string calldata signature, bytes calldata data, uint eta) external;\r\n    function executeTransaction(address target, uint value, string calldata signature, bytes calldata data, uint eta) external payable returns (bytes memory);\r\n}\r\n\r\ninterface GovernanceTokenInterface {\r\n    function totalSupply() external view returns (uint256);\r\n    function getPriorVotes(address account, uint blockNumber) external view returns (uint96);\r\n}",
  "sourcePath": "D:\\DesignCode\\Eth\\cyberCourt\\cybercourt-private\\cybercourt-core\\contracts\\GovernorAlpha.sol",
  "compiler": {
    "name": "solc",
    "version": "0.6.12+commit.27d51765.Emscripten.clang"
  },
  "schemaVersion": "3.4.1",
  "updatedAt": "2021-09-19T08:52:46.214Z",
  "devdoc": {
    "kind": "dev",
    "methods": {},
    "version": 1
  },
  "userdoc": {
    "events": {
      "ProposalCanceled(uint256)": {
        "notice": "An event emitted when a proposal has been canceled"
      },
      "ProposalCreated(uint256,address,address[],uint256[],string[],bytes[],uint256,uint256,string)": {
        "notice": "An event emitted when a new proposal is created"
      },
      "ProposalExecuted(uint256)": {
        "notice": "An event emitted when a proposal has been executed in the Timelock"
      },
      "ProposalQueued(uint256,uint256)": {
        "notice": "An event emitted when a proposal has been queued in the Timelock"
      },
      "VoteCast(address,uint256,bool,uint256)": {
        "notice": "An event emitted when a vote has been cast on a proposal"
      }
    },
    "kind": "user",
    "methods": {
      "BALLOT_TYPEHASH()": {
        "notice": "The EIP-712 typehash for the ballot struct used by the contract"
      },
      "DOMAIN_TYPEHASH()": {
        "notice": "The EIP-712 typehash for the contract's domain"
      },
      "latestProposalIds(address)": {
        "notice": "The latest proposal for each proposer"
      },
      "name()": {
        "notice": "The name of this contract"
      },
      "pool()": {
        "notice": "The address of the Pool governance token"
      },
      "proposalCount()": {
        "notice": "The total number of proposals"
      },
      "proposalMaxOperations()": {
        "notice": "The maximum number of actions that can be included in a proposal"
      },
      "proposalThreshold()": {
        "notice": "The number of votes required in order for a voter to become a proposer"
      },
      "proposals(uint256)": {
        "notice": "The official record of all proposals ever proposed"
      },
      "quorumVotes()": {
        "notice": "The number of votes in support of a proposal required in order for a quorum to be reached and for a vote to succeed"
      },
      "timelock()": {
        "notice": "The address of the Pool Protocol Timelock"
      },
      "votingDelay()": {
        "notice": "The delay before voting on a proposal may take place, once proposed"
      },
      "votingPeriod()": {
        "notice": "The duration of voting on a proposal, in blocks"
      }
    },
    "version": 1
  }
}