{
  "contractName": "JudgerOrg",
  "abi": [
    {
      "anonymous": false,
      "inputs": [
        {
          "indexed": true,
          "internalType": "address",
          "name": "delegator",
          "type": "address"
        },
        {
          "indexed": true,
          "internalType": "address",
          "name": "fromDelegate",
          "type": "address"
        },
        {
          "indexed": true,
          "internalType": "address",
          "name": "toDelegate",
          "type": "address"
        }
      ],
      "name": "DelegateChanged",
      "type": "event"
    },
    {
      "anonymous": false,
      "inputs": [
        {
          "indexed": true,
          "internalType": "address",
          "name": "delegate",
          "type": "address"
        },
        {
          "indexed": false,
          "internalType": "uint256",
          "name": "previousBalance",
          "type": "uint256"
        },
        {
          "indexed": false,
          "internalType": "uint256",
          "name": "newBalance",
          "type": "uint256"
        }
      ],
      "name": "DelegateVotesChanged",
      "type": "event"
    },
    {
      "anonymous": false,
      "inputs": [
        {
          "indexed": false,
          "internalType": "address",
          "name": "owner",
          "type": "address"
        },
        {
          "indexed": false,
          "internalType": "address",
          "name": "newOwner",
          "type": "address"
        }
      ],
      "name": "OwnerChanged",
      "type": "event"
    },
    {
      "anonymous": false,
      "inputs": [
        {
          "indexed": true,
          "internalType": "address",
          "name": "from",
          "type": "address"
        },
        {
          "indexed": true,
          "internalType": "address",
          "name": "to",
          "type": "address"
        },
        {
          "indexed": false,
          "internalType": "uint256",
          "name": "amount",
          "type": "uint256"
        }
      ],
      "name": "Transfer",
      "type": "event"
    },
    {
      "anonymous": false,
      "inputs": [
        {
          "indexed": true,
          "internalType": "address",
          "name": "from",
          "type": "address"
        }
      ],
      "name": "assignJudgerEvent",
      "type": "event"
    },
    {
      "anonymous": false,
      "inputs": [
        {
          "indexed": true,
          "internalType": "address",
          "name": "from",
          "type": "address"
        }
      ],
      "name": "finishEvent",
      "type": "event"
    },
    {
      "anonymous": false,
      "inputs": [
        {
          "indexed": true,
          "internalType": "address",
          "name": "token",
          "type": "address"
        },
        {
          "indexed": false,
          "internalType": "bool",
          "name": "isAcceptable",
          "type": "bool"
        },
        {
          "indexed": false,
          "internalType": "uint256",
          "name": "minAmount",
          "type": "uint256"
        }
      ],
      "name": "setAcceptTokenEvent",
      "type": "event"
    },
    {
      "anonymous": false,
      "inputs": [
        {
          "indexed": false,
          "internalType": "uint8",
          "name": "assignJudgerNum",
          "type": "uint8"
        }
      ],
      "name": "setAssignJudgerNumEvent",
      "type": "event"
    },
    {
      "anonymous": false,
      "inputs": [
        {
          "indexed": false,
          "internalType": "string",
          "name": "contact",
          "type": "string"
        }
      ],
      "name": "setContactEvent",
      "type": "event"
    },
    {
      "anonymous": false,
      "inputs": [
        {
          "indexed": true,
          "internalType": "address",
          "name": "from",
          "type": "address"
        },
        {
          "indexed": false,
          "internalType": "string",
          "name": "contact",
          "type": "string"
        }
      ],
      "name": "setContactMapEvent",
      "type": "event"
    },
    {
      "anonymous": false,
      "inputs": [
        {
          "indexed": true,
          "internalType": "address",
          "name": "from",
          "type": "address"
        },
        {
          "indexed": false,
          "internalType": "bool",
          "name": "idleStatus",
          "type": "bool"
        }
      ],
      "name": "setIdleStatusEvent",
      "type": "event"
    },
    {
      "anonymous": false,
      "inputs": [
        {
          "indexed": false,
          "internalType": "uint8",
          "name": "maxCaseNum",
          "type": "uint8"
        }
      ],
      "name": "setMaxCaseNumEvent",
      "type": "event"
    },
    {
      "anonymous": false,
      "inputs": [
        {
          "indexed": false,
          "internalType": "string",
          "name": "name",
          "type": "string"
        }
      ],
      "name": "setNameEvent",
      "type": "event"
    },
    {
      "anonymous": false,
      "inputs": [
        {
          "indexed": false,
          "internalType": "uint256",
          "name": "rateMantissa",
          "type": "uint256"
        }
      ],
      "name": "setRateMantissaEvent",
      "type": "event"
    },
    {
      "anonymous": false,
      "inputs": [
        {
          "indexed": false,
          "internalType": "string",
          "name": "remark",
          "type": "string"
        }
      ],
      "name": "setRemarkEvent",
      "type": "event"
    },
    {
      "anonymous": false,
      "inputs": [
        {
          "indexed": false,
          "internalType": "uint256",
          "name": "limitJudgePeriodTime",
          "type": "uint256"
        },
        {
          "indexed": false,
          "internalType": "uint256",
          "name": "exitWaitPeriodTime",
          "type": "uint256"
        }
      ],
      "name": "setTimesEvent",
      "type": "event"
    },
    {
      "anonymous": false,
      "inputs": [
        {
          "indexed": false,
          "internalType": "string",
          "name": "url",
          "type": "string"
        }
      ],
      "name": "setUrlEvent",
      "type": "event"
    },
    {
      "anonymous": false,
      "inputs": [
        {
          "indexed": true,
          "internalType": "address",
          "name": "dst",
          "type": "address"
        },
        {
          "indexed": false,
          "internalType": "uint256",
          "name": "amount",
          "type": "uint256"
        }
      ],
      "name": "setWhiteJudgerEvent",
      "type": "event"
    },
    {
      "anonymous": false,
      "inputs": [
        {
          "indexed": true,
          "internalType": "address",
          "name": "erc20",
          "type": "address"
        },
        {
          "indexed": true,
          "internalType": "address",
          "name": "dest",
          "type": "address"
        },
        {
          "indexed": false,
          "internalType": "uint256",
          "name": "balance",
          "type": "uint256"
        }
      ],
      "name": "transferERC20Event",
      "type": "event"
    },
    {
      "inputs": [],
      "name": "DELEGATION_TYPEHASH",
      "outputs": [
        {
          "internalType": "bytes32",
          "name": "",
          "type": "bytes32"
        }
      ],
      "stateMutability": "view",
      "type": "function",
      "constant": true
    },
    {
      "inputs": [],
      "name": "DOMAIN_TYPEHASH",
      "outputs": [
        {
          "internalType": "bytes32",
          "name": "",
          "type": "bytes32"
        }
      ],
      "stateMutability": "view",
      "type": "function",
      "constant": true
    },
    {
      "inputs": [],
      "name": "PERMIT_TYPEHASH",
      "outputs": [
        {
          "internalType": "bytes32",
          "name": "",
          "type": "bytes32"
        }
      ],
      "stateMutability": "view",
      "type": "function",
      "constant": true
    },
    {
      "inputs": [
        {
          "internalType": "address",
          "name": "",
          "type": "address"
        }
      ],
      "name": "acceptTokenMap",
      "outputs": [
        {
          "internalType": "bool",
          "name": "isAcceptable",
          "type": "bool"
        },
        {
          "internalType": "uint256",
          "name": "minAmount",
          "type": "uint256"
        }
      ],
      "stateMutability": "view",
      "type": "function",
      "constant": true
    },
    {
      "inputs": [],
      "name": "assignJudgerNum",
      "outputs": [
        {
          "internalType": "uint8",
          "name": "",
          "type": "uint8"
        }
      ],
      "stateMutability": "view",
      "type": "function",
      "constant": true
    },
    {
      "inputs": [
        {
          "internalType": "address",
          "name": "",
          "type": "address"
        }
      ],
      "name": "caseNum",
      "outputs": [
        {
          "internalType": "uint8",
          "name": "",
          "type": "uint8"
        }
      ],
      "stateMutability": "view",
      "type": "function",
      "constant": true
    },
    {
      "inputs": [
        {
          "internalType": "address",
          "name": "",
          "type": "address"
        },
        {
          "internalType": "uint32",
          "name": "",
          "type": "uint32"
        }
      ],
      "name": "checkpoints",
      "outputs": [
        {
          "internalType": "uint32",
          "name": "fromBlock",
          "type": "uint32"
        },
        {
          "internalType": "uint96",
          "name": "votes",
          "type": "uint96"
        }
      ],
      "stateMutability": "view",
      "type": "function",
      "constant": true
    },
    {
      "inputs": [],
      "name": "contact",
      "outputs": [
        {
          "internalType": "string",
          "name": "",
          "type": "string"
        }
      ],
      "stateMutability": "view",
      "type": "function",
      "constant": true
    },
    {
      "inputs": [
        {
          "internalType": "address",
          "name": "",
          "type": "address"
        }
      ],
      "name": "contactMap",
      "outputs": [
        {
          "internalType": "string",
          "name": "",
          "type": "string"
        }
      ],
      "stateMutability": "view",
      "type": "function",
      "constant": true
    },
    {
      "inputs": [],
      "name": "decimals",
      "outputs": [
        {
          "internalType": "uint8",
          "name": "",
          "type": "uint8"
        }
      ],
      "stateMutability": "view",
      "type": "function",
      "constant": true
    },
    {
      "inputs": [
        {
          "internalType": "address",
          "name": "",
          "type": "address"
        }
      ],
      "name": "delegates",
      "outputs": [
        {
          "internalType": "address",
          "name": "",
          "type": "address"
        }
      ],
      "stateMutability": "view",
      "type": "function",
      "constant": true
    },
    {
      "inputs": [],
      "name": "entrance",
      "outputs": [
        {
          "internalType": "address",
          "name": "",
          "type": "address"
        }
      ],
      "stateMutability": "view",
      "type": "function",
      "constant": true
    },
    {
      "inputs": [],
      "name": "exitWaitPeriodTime",
      "outputs": [
        {
          "internalType": "uint256",
          "name": "",
          "type": "uint256"
        }
      ],
      "stateMutability": "view",
      "type": "function",
      "constant": true
    },
    {
      "inputs": [],
      "name": "idleJudgerSupply",
      "outputs": [
        {
          "internalType": "uint256",
          "name": "",
          "type": "uint256"
        }
      ],
      "stateMutability": "view",
      "type": "function",
      "constant": true
    },
    {
      "inputs": [
        {
          "internalType": "address",
          "name": "",
          "type": "address"
        }
      ],
      "name": "isIdle",
      "outputs": [
        {
          "internalType": "bool",
          "name": "",
          "type": "bool"
        }
      ],
      "stateMutability": "view",
      "type": "function",
      "constant": true
    },
    {
      "inputs": [],
      "name": "limitJudgePeriodTime",
      "outputs": [
        {
          "internalType": "uint256",
          "name": "",
          "type": "uint256"
        }
      ],
      "stateMutability": "view",
      "type": "function",
      "constant": true
    },
    {
      "inputs": [],
      "name": "maxCaseNum",
      "outputs": [
        {
          "internalType": "uint8",
          "name": "",
          "type": "uint8"
        }
      ],
      "stateMutability": "view",
      "type": "function",
      "constant": true
    },
    {
      "inputs": [],
      "name": "name",
      "outputs": [
        {
          "internalType": "string",
          "name": "",
          "type": "string"
        }
      ],
      "stateMutability": "view",
      "type": "function",
      "constant": true
    },
    {
      "inputs": [
        {
          "internalType": "address",
          "name": "",
          "type": "address"
        }
      ],
      "name": "nonces",
      "outputs": [
        {
          "internalType": "uint256",
          "name": "",
          "type": "uint256"
        }
      ],
      "stateMutability": "view",
      "type": "function",
      "constant": true
    },
    {
      "inputs": [
        {
          "internalType": "address",
          "name": "",
          "type": "address"
        }
      ],
      "name": "numCheckpoints",
      "outputs": [
        {
          "internalType": "uint32",
          "name": "",
          "type": "uint32"
        }
      ],
      "stateMutability": "view",
      "type": "function",
      "constant": true
    },
    {
      "inputs": [],
      "name": "owner",
      "outputs": [
        {
          "internalType": "address",
          "name": "",
          "type": "address"
        }
      ],
      "stateMutability": "view",
      "type": "function",
      "constant": true
    },
    {
      "inputs": [],
      "name": "rateMantissa",
      "outputs": [
        {
          "internalType": "uint256",
          "name": "",
          "type": "uint256"
        }
      ],
      "stateMutability": "view",
      "type": "function",
      "constant": true
    },
    {
      "inputs": [],
      "name": "remark",
      "outputs": [
        {
          "internalType": "string",
          "name": "",
          "type": "string"
        }
      ],
      "stateMutability": "view",
      "type": "function",
      "constant": true
    },
    {
      "inputs": [],
      "name": "symbol",
      "outputs": [
        {
          "internalType": "string",
          "name": "",
          "type": "string"
        }
      ],
      "stateMutability": "view",
      "type": "function",
      "constant": true
    },
    {
      "inputs": [],
      "name": "totalSupply",
      "outputs": [
        {
          "internalType": "uint256",
          "name": "",
          "type": "uint256"
        }
      ],
      "stateMutability": "view",
      "type": "function",
      "constant": true
    },
    {
      "inputs": [],
      "name": "url",
      "outputs": [
        {
          "internalType": "string",
          "name": "",
          "type": "string"
        }
      ],
      "stateMutability": "view",
      "type": "function",
      "constant": true
    },
    {
      "inputs": [
        {
          "internalType": "address",
          "name": "owner_",
          "type": "address"
        },
        {
          "internalType": "address",
          "name": "entrance_",
          "type": "address"
        },
        {
          "internalType": "address",
          "name": "firstJudger",
          "type": "address"
        }
      ],
      "name": "initialize",
      "outputs": [],
      "stateMutability": "nonpayable",
      "type": "function"
    },
    {
      "inputs": [
        {
          "internalType": "address",
          "name": "acceptToken_",
          "type": "address"
        },
        {
          "internalType": "bool",
          "name": "isAcceptable_",
          "type": "bool"
        },
        {
          "internalType": "uint256",
          "name": "minAmount_",
          "type": "uint256"
        }
      ],
      "name": "setAcceptTokenMap",
      "outputs": [],
      "stateMutability": "nonpayable",
      "type": "function"
    },
    {
      "inputs": [
        {
          "internalType": "uint256",
          "name": "limitJudgePeriodTime_",
          "type": "uint256"
        },
        {
          "internalType": "uint256",
          "name": "exitWaitPeriodTime_",
          "type": "uint256"
        }
      ],
      "name": "setTimes",
      "outputs": [],
      "stateMutability": "nonpayable",
      "type": "function"
    },
    {
      "inputs": [
        {
          "internalType": "uint8",
          "name": "assignJudgerNum_",
          "type": "uint8"
        }
      ],
      "name": "setAssignJudgerNum",
      "outputs": [],
      "stateMutability": "nonpayable",
      "type": "function"
    },
    {
      "inputs": [
        {
          "internalType": "address[]",
          "name": "tokens",
          "type": "address[]"
        },
        {
          "internalType": "address[]",
          "name": "dests",
          "type": "address[]"
        },
        {
          "internalType": "uint256[]",
          "name": "balances",
          "type": "uint256[]"
        }
      ],
      "name": "transferERC20Bat",
      "outputs": [],
      "stateMutability": "nonpayable",
      "type": "function"
    },
    {
      "inputs": [
        {
          "internalType": "address",
          "name": "token",
          "type": "address"
        },
        {
          "internalType": "address",
          "name": "dest",
          "type": "address"
        },
        {
          "internalType": "uint256",
          "name": "balance",
          "type": "uint256"
        }
      ],
      "name": "transferERC20",
      "outputs": [],
      "stateMutability": "nonpayable",
      "type": "function"
    },
    {
      "inputs": [
        {
          "internalType": "string",
          "name": "remark_",
          "type": "string"
        }
      ],
      "name": "setRemark",
      "outputs": [],
      "stateMutability": "nonpayable",
      "type": "function"
    },
    {
      "inputs": [
        {
          "internalType": "string",
          "name": "contact_",
          "type": "string"
        }
      ],
      "name": "setContact",
      "outputs": [],
      "stateMutability": "nonpayable",
      "type": "function"
    },
    {
      "inputs": [
        {
          "internalType": "string",
          "name": "url_",
          "type": "string"
        }
      ],
      "name": "setUrl",
      "outputs": [],
      "stateMutability": "nonpayable",
      "type": "function"
    },
    {
      "inputs": [
        {
          "internalType": "string",
          "name": "name_",
          "type": "string"
        }
      ],
      "name": "setName",
      "outputs": [],
      "stateMutability": "nonpayable",
      "type": "function"
    },
    {
      "inputs": [
        {
          "internalType": "uint8",
          "name": "maxCaseNum_",
          "type": "uint8"
        }
      ],
      "name": "setMaxCaseNum",
      "outputs": [],
      "stateMutability": "nonpayable",
      "type": "function"
    },
    {
      "inputs": [
        {
          "internalType": "uint256",
          "name": "rateMantissa_",
          "type": "uint256"
        }
      ],
      "name": "setRateMantissa",
      "outputs": [],
      "stateMutability": "nonpayable",
      "type": "function"
    },
    {
      "inputs": [
        {
          "internalType": "string",
          "name": "contact_",
          "type": "string"
        }
      ],
      "name": "setContactMap",
      "outputs": [],
      "stateMutability": "nonpayable",
      "type": "function"
    },
    {
      "inputs": [
        {
          "internalType": "bool",
          "name": "idleStatus",
          "type": "bool"
        }
      ],
      "name": "setIdleStatus",
      "outputs": [],
      "stateMutability": "nonpayable",
      "type": "function"
    },
    {
      "inputs": [],
      "name": "updateStatus",
      "outputs": [],
      "stateMutability": "nonpayable",
      "type": "function"
    },
    {
      "inputs": [
        {
          "internalType": "address[]",
          "name": "users",
          "type": "address[]"
        }
      ],
      "name": "updateStatusBat",
      "outputs": [],
      "stateMutability": "nonpayable",
      "type": "function"
    },
    {
      "inputs": [
        {
          "internalType": "address",
          "name": "addr",
          "type": "address"
        }
      ],
      "name": "finish",
      "outputs": [],
      "stateMutability": "nonpayable",
      "type": "function"
    },
    {
      "inputs": [
        {
          "internalType": "uint256",
          "name": "randomNumber",
          "type": "uint256"
        },
        {
          "internalType": "uint8",
          "name": "order",
          "type": "uint8"
        }
      ],
      "name": "assignJudger",
      "outputs": [
        {
          "internalType": "address",
          "name": "",
          "type": "address"
        }
      ],
      "stateMutability": "nonpayable",
      "type": "function"
    },
    {
      "inputs": [
        {
          "internalType": "address",
          "name": "_owner",
          "type": "address"
        }
      ],
      "name": "setOwner",
      "outputs": [],
      "stateMutability": "nonpayable",
      "type": "function"
    },
    {
      "inputs": [
        {
          "internalType": "address[]",
          "name": "dst",
          "type": "address[]"
        },
        {
          "internalType": "uint96[]",
          "name": "rawAmount",
          "type": "uint96[]"
        }
      ],
      "name": "setWhiteJudgerBat",
      "outputs": [],
      "stateMutability": "nonpayable",
      "type": "function"
    },
    {
      "inputs": [
        {
          "internalType": "address",
          "name": "dst",
          "type": "address"
        },
        {
          "internalType": "uint96",
          "name": "rawAmount",
          "type": "uint96"
        }
      ],
      "name": "setWhiteJudger",
      "outputs": [],
      "stateMutability": "nonpayable",
      "type": "function"
    },
    {
      "inputs": [
        {
          "internalType": "address",
          "name": "account",
          "type": "address"
        }
      ],
      "name": "balanceOf",
      "outputs": [
        {
          "internalType": "uint256",
          "name": "",
          "type": "uint256"
        }
      ],
      "stateMutability": "view",
      "type": "function",
      "constant": true
    },
    {
      "inputs": [
        {
          "internalType": "address",
          "name": "delegatee",
          "type": "address"
        }
      ],
      "name": "delegate",
      "outputs": [],
      "stateMutability": "nonpayable",
      "type": "function"
    },
    {
      "inputs": [
        {
          "internalType": "address",
          "name": "delegatee",
          "type": "address"
        },
        {
          "internalType": "uint256",
          "name": "nonce",
          "type": "uint256"
        },
        {
          "internalType": "uint256",
          "name": "expiry",
          "type": "uint256"
        },
        {
          "internalType": "uint8",
          "name": "v",
          "type": "uint8"
        },
        {
          "internalType": "bytes32",
          "name": "r",
          "type": "bytes32"
        },
        {
          "internalType": "bytes32",
          "name": "s",
          "type": "bytes32"
        }
      ],
      "name": "delegateBySig",
      "outputs": [],
      "stateMutability": "nonpayable",
      "type": "function"
    },
    {
      "inputs": [
        {
          "internalType": "address",
          "name": "account",
          "type": "address"
        }
      ],
      "name": "getCurrentVotes",
      "outputs": [
        {
          "internalType": "uint96",
          "name": "",
          "type": "uint96"
        }
      ],
      "stateMutability": "view",
      "type": "function",
      "constant": true
    },
    {
      "inputs": [
        {
          "internalType": "address",
          "name": "account",
          "type": "address"
        },
        {
          "internalType": "uint256",
          "name": "blockNumber",
          "type": "uint256"
        }
      ],
      "name": "getPriorVotes",
      "outputs": [
        {
          "internalType": "uint96",
          "name": "",
          "type": "uint96"
        }
      ],
      "stateMutability": "view",
      "type": "function",
      "constant": true
    }
  ],
  "bytecode": "0x60806040526000600155600060025534801561001a57600080fd5b50613d2e8061002a6000396000f3fe608060405234801561001057600080fd5b506004361061025b5760003560e01c80629573be1461026057806306fdde031461027e57806313af40351461029357806318160ddd146102a857806320606b70146102b057806322434836146102b857806323668c89146102cb578063252498a2146102de57806326b741a3146102f1578063305ec69e1461030457806330adf81f14610317578063313ce5671461031f57806333a8c45a146103345780633e0b06db1461033c578063442816921461034457806347537a43146103595780634a42ecb01461036c57806352770d87146103745780635600f04f1461038757806356c2b52e1461038f578063587cde1e146103b05780635c19a95c146103c35780635f60f485146103d6578063618beb29146103de5780636786eed0146103e65780636afaa153146103f95780636fcfff451461040c57806370a082311461042c578063782d6fe11461043f5780637dffa8231461045f5780637ecebe00146104725780638140d0dc1461048557806381b659d214610498578063885caab1146104ab5780638da5cb5b146104be578063904c8067146104c657806395d89b41146104e65780639db5dbe4146104ee578063a47d1f5e14610501578063a656d3ff14610509578063aa03429a1461051c578063b4b5ea571461052f578063b7f88eee14610542578063c0c53b8b14610555578063c3cda52014610568578063c47f00271461057b578063d5c0a6721461058e578063e36364ff14610596578063e5da4c631461059e578063e7a324dc146105b1578063f1127ed8146105b9578063f86cc428146105da575b600080fd5b6102686105ed565b60405161027591906134b9565b60405180910390f35b6102866105f3565b604051610275919061358a565b6102a66102a1366004612f45565b610681565b005b610268610712565b610268610718565b6102a66102c63660046133ad565b61072a565b6102a66102d9366004612fe5565b610762565b6102a66102ec36600461330d565b61079c565b6102a66102ff3660046132d5565b610836565b6102a6610312366004612f45565b61087b565b6102686109be565b6103276109e2565b6040516102759190613b11565b6102866109e7565b610268610a42565b61034c610a48565b60405161027591906134c2565b610286610367366004612f45565b610a57565b610268610abf565b6102a661038236600461330d565b610ac5565b610286610b83565b6103a261039d366004612f45565b610bde565b604051610275929190613514565b61034c6103be366004612f45565b610bfd565b6102a66103d1366004612f45565b610c18565b6102a6610c22565b610268610c79565b6102a66103f436600461330d565b610c7f565b6102a6610407366004613109565b610d0e565b61041f61041a366004612f45565b610d9f565b6040516102759190613ae1565b61026861043a366004612f45565b610db7565b61045261044d366004613013565b610ddb565b6040516102759190613b1f565b6102a661046d3660046133f7565b610fea565b610268610480366004612f45565b61101d565b6102a661049336600461330d565b61102f565b6102a66104a6366004613395565b6110bd565b6102a66104b936600461313b565b6110f0565b61034c61123f565b6104d96104d4366004612f45565b61124e565b6040516102759190613509565b610286611263565b6102a66104fc366004612fa5565b611285565b610286611301565b610327610517366004612f45565b61135c565b61034c61052a3660046133ce565b611371565b61045261053d366004612f45565b6115f2565b6102a66105503660046130d5565b611663565b6102a6610563366004612f60565b61166d565b6102a661057636600461303d565b6117be565b6102a661058936600461330d565b611976565b610327611a04565b610327611a0d565b6102a66105ac3660046133f7565b611a1b565b610268611a4e565b6105cc6105c7366004613096565b611a60565b604051610275929190613af2565b6102a66105e8366004613215565b611a95565b60025481565b600f805460408051602060026001851615610100026000190190941693909304601f810184900484028201840190925281815292918301828280156106795780601f1061064e57610100808354040283529160200191610679565b820191906000526020600020905b81548152906001019060200180831161065c57829003601f168201915b505050505081565b6017546001600160a01b031633146106b45760405162461bcd60e51b81526004016106ab90613a37565b60405180910390fd5b600354604051600080516020613c42833981519152916106e1916001600160a01b039091169084906134d6565b60405180910390a1600380546001600160a01b039092166001600160a01b0319928316179055601780549091169055565b60015481565b600080516020613be283398151915281565b6003546001600160a01b031633146107545760405162461bcd60e51b81526004016106ab90613a87565b61075e8282611b03565b5050565b6003546001600160a01b0316331461078c5760405162461bcd60e51b81526004016106ab90613a87565b610797838383611b70565b505050565b6003546001600160a01b031633146107c65760405162461bcd60e51b81526004016106ab90613a87565b6101f48151106107e85760405162461bcd60e51b81526004016106ab9061376a565b80516107fb90600a906020840190612d8e565b507f3c5a9d2a7cd13987d659216f76b2634e9a91883865301e1e9aa295507590f22a8160405161082b919061358a565b60405180910390a150565b336000908152600760205260409020546001600160601b031660011461086e5760405162461bcd60e51b81526004016106ab906137b5565b6108783382611bf4565b50565b6005546001600160a01b031633146108a55760405162461bcd60e51b81526004016106ab90613a60565b6001600160a01b0381166000908152600860205260409020805460ff19811660ff9182166000190182161791829055600d54811691161015610987576001600160a01b03811660009081526009602052604090205460ff161515600114156109875761092a6004600080516020613c228339815191526001600160a01b038416611db2565b610987576001600160a01b0381166000908152600760205260409020546001600160601b0316600114156109875761097d6004600080516020613c2283398151915260016001600160a01b038516611e02565b6002805460010190555b6040516001600160a01b038216907f4676df2e0fe2a3dc8044b108a96acf882d0b3da0241056cda970f524674a879a90600090a250565b7f6e71edae12b1b97f4d1f60370fef10105fa2faae0126114a169c64845d6126c981565b600181565b600b805460408051602060026001851615610100026000190190941693909304601f810184900484028201840190925281815292918301828280156106795780601f1061064e57610100808354040283529160200191610679565b600e5481565b6005546001600160a01b031681565b60066020908152600091825260409182902080548351601f6002600019610100600186161502019093169290920491820184900484028101840190945280845290918301828280156106795780601f1061064e57610100808354040283529160200191610679565b60115481565b336000908152600760205260409020546001600160601b0316600114610afd5760405162461bcd60e51b81526004016106ab906137b5565b60c8815110610b1e5760405162461bcd60e51b81526004016106ab9061376a565b3360009081526006602090815260409091208251610b3e92840190612d8e565b50336001600160a01b03167f4663d030fad387d24f7ed79858521923f73985589e694220056cd13a639a175582604051610b78919061358a565b60405180910390a250565b600a805460408051602060026001851615610100026000190190941693909304601f810184900484028201840190925281815292918301828280156106795780601f1061064e57610100808354040283529160200191610679565b6012602052600090815260409020805460019091015460ff9091169082565b6013602052600090815260409020546001600160a01b031681565b61087833826120e5565b336000908152600760205260409020546001600160601b0316600114610c5a5760405162461bcd60e51b81526004016106ab906137b5565b33600081815260096020526040902054610c77919060ff16611bf4565b565b60105481565b6003546001600160a01b03163314610ca95760405162461bcd60e51b81526004016106ab90613a87565b6101f4815110610ccb5760405162461bcd60e51b81526004016106ab9061376a565b8051610cde90600c906020840190612d8e565b507f86fbfc907f24d58a1510db69b3a01fa5eb637cc71ad710593f3b9c89340b7ffd8160405161082b919061358a565b6003546001600160a01b03163314610d385760405162461bcd60e51b81526004016106ab90613a87565b60005b815181101561075e57610d97828281518110610d5357fe5b602002602001015160096000858581518110610d6b57fe5b6020908102919091018101516001600160a01b031682528101919091526040016000205460ff16611bf4565b600101610d3b565b60156020526000908152604090205463ffffffff1681565b6001600160a01b03166000908152600760205260409020546001600160601b031690565b6000438210610dfc5760405162461bcd60e51b81526004016106ab906135bd565b6001600160a01b03831660009081526015602052604090205463ffffffff1680610e2a576000915050610fe4565b6001600160a01b038416600090815260146020908152604080832063ffffffff600019860181168552925290912054168310610ea6576001600160a01b03841660009081526014602090815260408083206000199490940163ffffffff1683529290522054600160201b90046001600160601b03169050610fe4565b6001600160a01b038416600090815260146020908152604080832083805290915290205463ffffffff16831015610ee1576000915050610fe4565b600060001982015b8163ffffffff168163ffffffff161115610fa457600282820363ffffffff16048103610f13612e0c565b506001600160a01b038716600090815260146020908152604080832063ffffffff858116855290835292819020815180830190925254928316808252600160201b9093046001600160601b03169181019190915290871415610f7f57602001519450610fe49350505050565b805163ffffffff16871115610f9657819350610f9d565b6001820392505b5050610ee9565b506001600160a01b038516600090815260146020908152604080832063ffffffff909416835292905220546001600160601b03600160201b909104169150505b92915050565b6003546001600160a01b031633146110145760405162461bcd60e51b81526004016106ab90613a87565b61087881612169565b60166020526000908152604090205481565b6003546001600160a01b031633146110595760405162461bcd60e51b81526004016106ab90613a87565b60c881511061107a5760405162461bcd60e51b81526004016106ab9061376a565b805161108d90600b906020840190612d8e565b507f36419da12bb8793ecbc4c08e44cfb3e5ad6aedfff15fb75f52afb29e33f6e6948160405161082b919061358a565b6003546001600160a01b031633146110e75760405162461bcd60e51b81526004016106ab90613a87565b610878816121cb565b6003546001600160a01b0316331461111a5760405162461bcd60e51b81526004016106ab90613a87565b815183511461113b5760405162461bcd60e51b81526004016106ab9061378c565b805183511461115c5760405162461bcd60e51b81526004016106ab9061378c565b60005b8351811015611239576111bf83828151811061117757fe5b602002602001015183838151811061118b57fe5b602002602001015186848151811061119f57fe5b60200260200101516001600160a01b03166122289092919063ffffffff16565b8281815181106111cb57fe5b60200260200101516001600160a01b03168482815181106111e857fe5b60200260200101516001600160a01b0316600080516020613cb883398151915284848151811061121457fe5b602002602001015160405161122991906134b9565b60405180910390a360010161115f565b50505050565b6003546001600160a01b031681565b60096020526000908152604090205460ff1681565b60405180604001604052806006815260200165253ab233b2b960d11b81525081565b6003546001600160a01b031633146112af5760405162461bcd60e51b81526004016106ab90613a87565b6112c36001600160a01b0384168383612228565b816001600160a01b0316836001600160a01b0316600080516020613cb8833981519152836040516112f491906134b9565b60405180910390a3505050565b600c805460408051602060026001851615610100026000190190941693909304601f810184900484028201840190925281815292918301828280156106795780601f1061064e57610100808354040283529160200191610679565b60086020526000908152604090205460ff1681565b6005546000906001600160a01b0316331461139e5760405162461bcd60e51b81526004016106ab90613a60565b6002546000816113b0575060006115ea565b60006113bc868461227e565b90506113d86004600080516020613c2283398151915283612302565b6040519092506001600160a01b038316907f7f6c5ffe2a369f53e9dda5161dd2e1fd105d8c8b6bc44abbcd13b4021b57595390600090a26001600160a01b0382166000818152600860205260408120805460ff8082166001011660ff1990911617905561145791600491600080516020613c2283398151915291611e02565b60028054600019019055600d546001600160a01b03831660009081526008602052604090205460ff91821691161080156114b257506001600160a01b0382166000908152600760205260409020546001600160601b03166001145b1561151957600d5460ff6101009091048116908616101561151957601880546001810182556000919091527fb13d2d76d1f4b7be834882e410b3e3a8afaf69f83600ae24db354391d2378d2e0180546001600160a01b0319166001600160a01b0384161790555b6001600d60019054906101000a900460ff160360ff168560ff1614156115e85760005b60185460ff821610156115db5761158c600080516020613c22833981519152600160188460ff168154811061156d57fe5b60009182526020909120015460049291906001600160a01b0316611e02565b600254600101600281905550600060188260ff16815481106115aa57fe5b600091825260209091200180546001600160a01b0319166001600160a01b039290921691909117905560010161153c565b506115e860186000612e23565b505b949350505050565b6001600160a01b03811660009081526015602052604081205463ffffffff168061161d57600061165c565b6001600160a01b0383166000908152601460209081526040808320600019850163ffffffff168452909152902054600160201b90046001600160601b03165b9392505050565b61075e82826123c5565b600054610100900460ff168061168657506116866125ce565b80611694575060005460ff16155b6116b05760405162461bcd60e51b81526004016106ab906137e3565b600054610100900460ff161580156116db576000805460ff1961ff0019909116610100171660011790555b601780546001600160a01b03199081166001600160a01b03878116918217909355600380549092161790819055604051600080516020613c428339815191529261172a926000929116906134d6565b60405180910390a1600580546001600160a01b0319166001600160a01b03851617905561175760016125df565b6117628260016123c5565b61176c6002612169565b61177c66470de4df8200006121cb565b61178c62093a8062127500611b03565b6117a76004600080516020613c228339815191526005612647565b8015611239576000805461ff001916905550505050565b6000600080516020613be2833981519152600f6040516117de919061342e565b60405180910390206117ee6126f2565b306040516020016118029493929190613548565b6040516020818303038152906040528051906020012090506000600080516020613c028339815191528888886040516020016118419493929190613524565b6040516020818303038152906040528051906020012090506000828260405160200161186e92919061349e565b6040516020818303038152906040528051906020012090506000600182888888604051600081526020016040526040516118ab949392919061356c565b6020604051602081039080840390855afa1580156118cd573d6000803e3d6000fd5b5050604051601f1901519150506001600160a01b0381166119005760405162461bcd60e51b81526004016106ab906136c1565b6001600160a01b0381166000908152601660205260409020805460018101909155891461193f5760405162461bcd60e51b81526004016106ab906138bf565b8742111561195f5760405162461bcd60e51b81526004016106ab90613860565b611969818b6120e5565b505050505b505050505050565b6003546001600160a01b031633146119a05760405162461bcd60e51b81526004016106ab90613a87565b60c88151106119c15760405162461bcd60e51b81526004016106ab9061376a565b80516119d490600f906020840190612d8e565b507f12adb123296bec40dcede23858c71e8aa8e15609af11a79ca0dcf614212889248160405161082b919061358a565b600d5460ff1681565b600d54610100900460ff1681565b6003546001600160a01b03163314611a455760405162461bcd60e51b81526004016106ab90613a87565b610878816125df565b600080516020613c0283398151915281565b601460209081526000928352604080842090915290825290205463ffffffff811690600160201b90046001600160601b031682565b8051825114611ab65760405162461bcd60e51b81526004016106ab90613895565b60005b82518160ff16101561079757611afb838260ff1681518110611ad757fe5b6020026020010151838360ff1681518110611aee57fe5b60200260200101516123c5565b600101611ab9565b600a600f8302048111611b285760405162461bcd60e51b81526004016106ab9061395a565b601082905560118190556040517f23f174b0a36548622a1263138cf21a8b7c3673e0ffc0d52193c03d712cce19a590611b649084908490613ad3565b60405180910390a15050565b604080518082018252831515815260208082018481526001600160a01b03871660008181526012909352918490209251835460ff19169015151783555160019092019190915590517fe4c5fce7abfdfbca788c43b5b01c23d7f7195a970e85138c28128f79a154e54790611be79085908590613514565b60405180910390a2505050565b60018115151415611cf9576001600160a01b0382166000908152600960209081526040808320805460ff19166001179055600d5460089092529091205460ff91821691161015611c9957611c616004600080516020613c228339815191526001600160a01b038516611db2565b611c9457611c8a6004600080516020613c2283398151915260016001600160a01b038616611e02565b6002805460010190555b611cf4565b611cbc6004600080516020613c228339815191526001600160a01b038516611db2565b60011415611cf457611ce96004600080516020613c2283398151915260006001600160a01b038616611e02565b600280546000190190555b611d6d565b6001600160a01b0382166000818152600960205260409020805460ff19169055611d3590600490600080516020613c2283398151915290611db2565b60011415611d6d57611d626004600080516020613c2283398151915260006001600160a01b038616611e02565b600280546000190190555b816001600160a01b03167f022573082f561dbbf45b52736f08cd92bb4052f1fad15a950a8e8561e17d52c682604051611da69190613509565b60405180910390a25050565b6000828152602084815260408083208484526003810190925282205480611ddc5760009250611df9565b816002018181548110611deb57fe5b906000526020600020015492505b50509392505050565b600083815260208581526040808320848452600381019092529091205480611f99578315611f94576001820154611f00575060028101805460018082018355600092835260209092208101859055908114801590611e6c57508154600019820181611e6957fe5b06155b15611efb5781546000908281611e7e57fe5b0460008181526004850160205260409020546002850180549293509091600185019190819085908110611ead57fe5b60009182526020808320909101548354600181018555938352818320909301929092559384526004860180825260408086208690558486526003880183528086208490559285529052909120555b611f61565b6001820180546000198101908110611f1457fe5b9060005260206000200154905081600101805480611f2e57fe5b6001900381819060005260206000200160009055905583826002018281548110611f5457fe5b6000918252602090912001555b60008381526003830160209081526040808320849055838352600485019091529020839055611f948686836001886126f6565b61196e565b8361202a576000826002018281548110611faf57fe5b906000526020600020015490506000836002018381548110611fcd57fe5b600091825260208083209091019290925560018086018054918201815582528282200184905585815260038501825260408082208290558482526004860190925290812081905561202490889088908590856126f6565b5061196e565b81600201818154811061203957fe5b9060005260206000200154841461196e5760008483600201838154811061205c57fe5b906000526020600020015411159050600081612093578584600201848154811061208257fe5b9060005260206000200154036120b0565b8360020183815481106120a257fe5b906000526020600020015486035b9050858460020184815481106120c257fe5b6000918252602090912001556120db88888585856126f6565b5050505050505050565b6001600160a01b03808316600081815260136020818152604080842080546007845282862054949093528787166001600160a01b031984168117909155905191909516946001600160601b039092169391928592917f3134e8a2e6d97e929a7e54011ea5485d7d196dd5f0ba4d4ef95803e8e3fc257f9190a4611239828483612789565b601e8160ff161061218c5760405162461bcd60e51b81526004016106ab90613aab565b600d805460ff191660ff83161790556040517f7c3ed20d9b6a23d0538f8fd1b5bcb02bdfb9d419d77f8b7039d50a638999af019061082b908390613b11565b6706f05b59d3b200008111156121f35760405162461bcd60e51b81526004016106ab90613831565b600e8190556040517f11f0b53ce3e032a694fb9679bd5ecbdd72e31bfebdf9956c78f5d86d7ab4f9f39061082b9083906134b9565b6107978363a9059cbb60e01b84846040516024016122479291906134f0565b60408051601f198184030181529190526020810180516001600160e01b03166001600160e01b03199093169290921790915261291b565b600080821161229f5760405162461bcd60e51b81526004016106ab9061365d565b60008283600003816122ad57fe5b069050835b8181106122be576122ef565b806040516020016122cf91906134b9565b6040516020818303038152906040528051906020012060001c90506122b2565b8381816122f857fe5b0695945050505050565b600082815260208490526040812060028101805483918291829061232257fe5b9060005260206000200154858161233557fe5b0690505b60028301548354830260010110156123aa5760015b835481116123a45760008184866000015402019050600085600201828154811061237457fe5b9060005260206000200154905080841061239257808403935061239a565b5092506123a4565b505060010161234e565b50612339565b50600090815260049091016020526040902054949350505050565b6001600160a01b0382166123eb5760405162461bcd60e51b81526004016106ab906139ee565b6001600160601b038116158061240a5750806001600160601b03166001145b6124265760405162461bcd60e51b81526004016106ab906139ee565b6001600160601b03811615801561245e57506001600160a01b0382166000908152600760205260409020546001600160601b03166001145b8061249c5750806001600160601b0316600114801561249c57506001600160a01b0382166000908152600760205260409020546001600160601b0316155b6124b85760405162461bcd60e51b81526004016106ab906136f6565b6001600160a01b0382166000908152600760205260409020546001600160601b03908116908216101561252c576124f260015460016129aa565b600155612500826000611bf4565b6001600160a01b038083166000908152601360205260408120546125279216906001612789565b61256d565b61253960015460016129ec565b600155612547826000611bf4565b6001600160a01b0380831660009081526013602052604081205461256d92166001612789565b6001600160a01b0382166000818152600760205260409081902080546001600160601b0319166001600160601b038516179055517fc066e259aecee29de3db1965606fa0672067fc07386d97bb44428f6bd5b4881090611da6908490613b1f565b60006125d930612a11565b15905090565b60198160ff1611156126035760405162461bcd60e51b81526004016106ab90613633565b600d805461ff00191661010060ff8416021790556040517f7b2a2b677a5c90e85765dc27927e1db37535421ded07985efe827db40b442d789061082b908390613b11565b60008281526020849052604090208054156126745760405162461bcd60e51b81526004016106ab9061392c565b600182116126945760405162461bcd60e51b81526004016106ab906135fe565b81815560408051600081526020810191829052516126b6916001840191612e41565b5060408051600081526020810191829052516126d6916002840191612e41565b5060020180546001810182556000918252602082200155505050565b4690565b6000848152602086905260409020835b801561278057815460001982018161271a57fe5b04905083612743578282600201828154811061273257fe5b906000526020600020015403612760565b8282600201828154811061275357fe5b9060005260206000200154015b82600201828154811061276f57fe5b600091825260209091200155612706565b50505050505050565b816001600160a01b0316836001600160a01b0316141580156127b457506000816001600160601b0316115b15610797576001600160a01b0383161561286c576001600160a01b03831660009081526015602052604081205463ffffffff1690816127f4576000612833565b6001600160a01b0385166000908152601460209081526040808320600019860163ffffffff168452909152902054600160201b90046001600160601b03165b9050600061285a8285604051806060016040528060288152602001613c9060289139612a17565b905061286886848484612a56565b5050505b6001600160a01b03821615610797576001600160a01b03821660009081526015602052604081205463ffffffff1690816128a75760006128e6565b6001600160a01b0384166000908152601460209081526040808320600019860163ffffffff168452909152902054600160201b90046001600160601b03165b9050600061290d8285604051806060016040528060218152602001613cd860219139612bff565b905061196e85848484612a56565b6060612970826040518060400160405280602081526020017f5361666545524332303a206c6f772d6c6576656c2063616c6c206661696c6564815250856001600160a01b0316612c329092919063ffffffff16565b805190915015610797578080602001905181019061298e91906132f1565b6107975760405162461bcd60e51b81526004016106ab906139a4565b600061165c83836040518060400160405280601e81526020017f536166654d6174683a207375627472616374696f6e206f766572666c6f770000815250612c41565b60008282018381101561165c5760405162461bcd60e51b81526004016106ab9061368c565b3b151590565b6000836001600160601b0316836001600160601b031611158290612a4e5760405162461bcd60e51b81526004016106ab919061358a565b505050900390565b6000612a7a436040518060600160405280602e8152602001613c62602e9139612c65565b905060008463ffffffff16118015612ac357506001600160a01b038516600090815260146020908152604080832063ffffffff6000198901811685529252909120548282169116145b15612b1c576001600160a01b0385166000908152601460209081526040808320600019880163ffffffff16845290915290208054600160201b600160801b031916600160201b6001600160601b03851602179055612bb5565b60408051808201825263ffffffff80841682526001600160601b0380861660208085019182526001600160a01b038b166000818152601483528781208c871682528352878120965187549451909516600160201b02600160201b600160801b031995871663ffffffff19958616179590951694909417909555938252601590935292909220805460018801909316929091169190911790555b846001600160a01b03167fdec2bacdd2f05b59de34da9b523dff8be42e5e38e818c82fdb0bae774387a7248484604051612bf0929190613b33565b60405180910390a25050505050565b6000838301826001600160601b0380871690831610156115e85760405162461bcd60e51b81526004016106ab919061358a565b60606115ea8484600085612c94565b60008184841115612a4e5760405162461bcd60e51b81526004016106ab919061358a565b600081600160201b8410612c8c5760405162461bcd60e51b81526004016106ab919061358a565b509192915050565b606082471015612cb65760405162461bcd60e51b81526004016106ab90613724565b612cbf85612a11565b612cdb5760405162461bcd60e51b81526004016106ab906138f5565b60006060866001600160a01b03168587604051612cf89190613412565b60006040518083038185875af1925050503d8060008114612d35576040519150601f19603f3d011682016040523d82523d6000602084013e612d3a565b606091505b5091509150612d4a828286612d55565b979650505050505050565b60608315612d6457508161165c565b825115612d745782518084602001fd5b8160405162461bcd60e51b81526004016106ab919061358a565b828054600181600116156101000203166002900490600052602060002090601f016020900481019282601f10612dcf57805160ff1916838001178555612dfc565b82800160010185558215612dfc579182015b82811115612dfc578251825591602001919060010190612de1565b50612e08929150612e7b565b5090565b604080518082019091526000808252602082015290565b50805460008255906000526020600020908101906108789190612e7b565b828054828255906000526020600020908101928215612dfc5791602002820182811115612dfc578251825591602001919060010190612de1565b5b80821115612e085760008155600101612e7c565b80356001600160a01b0381168114610fe457600080fd5b600082601f830112612eb7578081fd5b8135612eca612ec582613b73565b613b4d565b818152915060208083019084810181840286018201871015612eeb57600080fd5b60005b84811015612f1257612f008883612e90565b84529282019290820190600101612eee565b505050505092915050565b803560ff81168114610fe457600080fd5b80356001600160601b0381168114610fe457600080fd5b600060208284031215612f56578081fd5b61165c8383612e90565b600080600060608486031215612f74578182fd5b612f7e8585612e90565b9250612f8d8560208601612e90565b9150612f9c8560408601612e90565b90509250925092565b600080600060608486031215612fb9578283fd5b8335612fc481613bbe565b92506020840135612fd481613bbe565b929592945050506040919091013590565b600080600060608486031215612ff9578283fd5b6130038585612e90565b92506020840135612fd481613bd3565b60008060408385031215613025578182fd5b61302f8484612e90565b946020939093013593505050565b60008060008060008060c08789031215613055578182fd5b61305f8888612e90565b9550602087013594506040870135935061307c8860608901612f1d565b92506080870135915060a087013590509295509295509295565b600080604083850312156130a8578182fd5b6130b28484612e90565b9150602083013563ffffffff811681146130ca578182fd5b809150509250929050565b600080604083850312156130e7578182fd5b6130f18484612e90565b91506131008460208501612f2e565b90509250929050565b60006020828403121561311a578081fd5b81356001600160401b0381111561312f578182fd5b6115ea84828501612ea7565b60008060006060848603121561314f578081fd5b83356001600160401b0380821115613165578283fd5b61317187838801612ea7565b9450602091508186013581811115613187578384fd5b61319388828901612ea7565b9450506040860135818111156131a7578384fd5b86019050601f810187136131b9578283fd5b80356131c7612ec582613b73565b81815283810190838501858402850186018b10156131e3578687fd5b8694505b838510156132055780358352600194909401939185019185016131e7565b5080955050505050509250925092565b60008060408385031215613227578182fd5b82356001600160401b038082111561323d578384fd5b61324986838701612ea7565b935060209150818501358181111561325f578384fd5b85019050601f81018613613271578283fd5b803561327f612ec582613b73565b81815283810190838501858402850186018a101561329b578687fd5b8694505b838510156132c5576132b18a82612f2e565b83526001949094019391850191850161329f565b5080955050505050509250929050565b6000602082840312156132e6578081fd5b813561165c81613bd3565b600060208284031215613302578081fd5b815161165c81613bd3565b6000602080838503121561331f578182fd5b82356001600160401b0380821115613335578384fd5b818501915085601f830112613348578384fd5b813581811115613356578485fd5b613368601f8201601f19168501613b4d565b9150808252868482850101111561337d578485fd5b80848401858401378101909201929092529392505050565b6000602082840312156133a6578081fd5b5035919050565b600080604083850312156133bf578182fd5b50508035926020909101359150565b600080604083850312156133e0578182fd5b82359150602083013560ff811681146130ca578182fd5b600060208284031215613408578081fd5b61165c8383612f1d565b60008251613424818460208701613b92565b9190910192915050565b600080835460018082166000811461344d576001811461346457613493565b60ff198316865260028304607f1686019350613493565b600283048786526020808720875b8381101561348b5781548a820152908501908201613472565b505050860193505b509195945050505050565b61190160f01b81526002810192909252602282015260420190565b90815260200190565b6001600160a01b0391909116815260200190565b6001600160a01b0392831681529116602082015260400190565b6001600160a01b03929092168252602082015260400190565b901515815260200190565b9115158252602082015260400190565b9384526001600160a01b039290921660208401526040830152606082015260800190565b938452602084019290925260408301526001600160a01b0316606082015260800190565b93845260ff9290921660208401526040830152606082015260800190565b60006020825282518060208401526135a9816040850160208701613b92565b601f01601f19169190910160400192915050565b60208082526021908201527f6765745072696f72566f7465733a206e6f74207965742064657465726d696e656040820152601960fa1b606082015260800190565b6020808252601b908201527a259036bab9ba1031329033b932b0ba32b9103a3430b71037b7329760291b604082015260600190565b60208082526010908201526f546f6f206d616e79206a75646765727360801b604082015260600190565b602080825260159082015274155b9a599bdc9b54985b990bdb5a5b8b589bdd5b99605a1b604082015260600190565b6020808252601b908201527a536166654d6174683a206164646974696f6e206f766572666c6f7760281b604082015260600190565b6020808252818101527f64656c656761746542795369673a20696e76616c6964207369676e6174757265604082015260600190565b60208082526014908201527310d85b881b9bdd081c995c19585d1b1e481cd95d60621b604082015260600190565b60208082526026908201527f416464726573733a20696e73756666696369656e742062616c616e636520666f6040820152651c8818d85b1b60d21b606082015260800190565b602080825260089082015267546f6f206c6f6e6760c01b604082015260600190565b6020808252600f908201526e4c656e677468206e6f742073616d6560881b604082015260600190565b6020808252601490820152732737ba103bb434ba32a634b9ba10353ab233b2b960611b604082015260600190565b6020808252602e908201527f496e697469616c697a61626c653a20636f6e747261637420697320616c72656160408201526d191e481a5b9a5d1a585b1a5e995960921b606082015260800190565b602080825260159082015274546f6f206d616e7920726174654d616e746973736160581b604082015260600190565b6020808252818101527f64656c656761746542795369673a207369676e61747572652065787069726564604082015260600190565b60208082526010908201526f1b195b99dd1a081b9bdd08195c5d585b60821b604082015260600190565b6020808252601c908201527b64656c656761746542795369673a20696e76616c6964206e6f6e636560201b604082015260600190565b6020808252601d908201527f416464726573733a2063616c6c20746f206e6f6e2d636f6e7472616374000000604082015260600190565b6020808252601490820152732a3932b29030b63932b0b23c9032bc34b9ba399760611b604082015260600190565b6020808252602a908201527f457869742074696d652073686f756c64206265206c6f6e676572207468616e206040820152696a756467652074696d6560b01b606082015260800190565b6020808252602a908201527f5361666545524332303a204552433230206f7065726174696f6e20646964206e6040820152691bdd081cdd58d8d9595960b21b606082015260800190565b60208082526029908201527f6d696e743a2063616e6e6f74207472616e7366657220746f20746865207a65726040820152686f206164647265737360b81b606082015260800190565b6020808252600f908201526e37b7363c903432b936b2b99031b0b760891b604082015260600190565b6020808252600d908201526c02737ba1032b73a3930b731b29609d1b604082015260600190565b6020808252600a908201526902737ba1037bbb732b9160b51b604082015260600190565b6020808252600e908201526d546f6f206d616e7920636173657360901b604082015260600190565b918252602082015260400190565b63ffffffff91909116815260200190565b63ffffffff9290921682526001600160601b0316602082015260400190565b60ff91909116815260200190565b6001600160601b0391909116815260200190565b6001600160601b0392831681529116602082015260400190565b6040518181016001600160401b0381118282101715613b6b57600080fd5b604052919050565b60006001600160401b03821115613b88578081fd5b5060209081020190565b60005b83811015613bad578181015183820152602001613b95565b838111156112395750506000910152565b6001600160a01b038116811461087857600080fd5b801515811461087857600080fdfe8cad95687ba82c2ce50e74f7b754645e5117c3a5bec8151c0726d5857980a866e48329057bfd03d55e49b547132e39cffd9c1820ad7b9d4c5307691425d15adfbeecda5aee2057cc6d849083bc0bb289a7e07dc541f60ca2e947e7c4138f8af3b532073b38c83145e3e5135377a08bf9aab55bc0fd7c1179cd4fb995d2a5159c5f7772697465436865636b706f696e743a20626c6f636b206e756d62657220657863656564732033322062697473506f6f6c3a3a5f6d6f7665566f7465733a20766f746520616d6f756e7420756e646572666c6f7773b8c4954c1874c38615823949cc391a4bc1142a7934f466a64105249dfcec24fb5f6d6f7665566f7465733a20766f746520616d6f756e74206f766572666c6f7773a264697066735822122095e70ba837ad7d07db95822f23d3f862e162ec343328f6a176eb110f2d18956c64736f6c634300060c0033",
  "immutableReferences": {},
  "source": "pragma solidity >=0.6.0 <0.7.0;\r\npragma experimental ABIEncoderV2;\r\n\r\nimport \"sortition-sum-tree-factory/contracts/SortitionSumTreeFactory.sol\";\r\nimport \"@pooltogether/uniform-random-number/contracts/UniformRandomNumber.sol\";\r\n\r\nimport \"./helpers/ERC20.sol\";\r\nimport \"./libraries/SafeMath.sol\";\r\nimport \"./libraries/SafeERC20.sol\";\r\n\r\nimport \"@openzeppelin/contracts-upgradeable/proxy/Initializable.sol\";\r\n\r\ncontract JudgerOrg is Initializable{\r\n\r\n    using SortitionSumTreeFactory for SortitionSumTreeFactory.SortitionSumTrees;\r\n    using SafeERC20 for IERC20;\r\n    /// @notice EIP-20 token decimals for this token\r\n    uint8 public constant decimals = 1;\r\n\r\n    /// @notice EIP-20 token symbol for this token\r\n    string public constant symbol = \"Judger\";\r\n\r\n    bytes32 constant private TREE_KEY = keccak256(\"Judger\");\r\n    uint256 constant private MAX_TREE_LEAVES = 5;\r\n    /// @notice Total number of tokens in circulation\r\n    uint256 public totalSupply = 0; // 10 million Pool\r\n\r\n    uint256 public idleJudgerSupply = 0;\r\n\r\n    /// @notice Address which may mint new tokens\r\n    address public owner;\r\n    \r\n    // Ticket-weighted odds\r\n    SortitionSumTreeFactory.SortitionSumTrees internal sortitionSumTrees;\r\n\r\n    address public entrance;\r\n\r\n    /// @notice Official record of token balances for each account\r\n    mapping (address => string) public contactMap;\r\n    mapping (address => uint96) internal balances;\r\n    mapping (address => uint8) public caseNum;\r\n    mapping (address => bool) public isIdle;\r\n    string public url;\r\n    string public contact;\r\n    string public remark;\r\n    uint8 public maxCaseNum;\r\n    uint8 public assignJudgerNum;\r\n    uint256 public rateMantissa;\r\n    string public name;\r\n    uint256 public limitJudgePeriodTime;\r\n    uint256 public exitWaitPeriodTime;\r\n    mapping (address => AcceptToken) public acceptTokenMap;\r\n    \r\n    struct AcceptToken{\r\n        bool isAcceptable;\r\n        uint256 minAmount;\r\n    }\r\n\r\n    /// @notice A record of each accounts delegate\r\n    mapping (address => address) public delegates;\r\n\r\n    /// @notice A checkpoint for marking number of votes from a given block\r\n    struct Checkpoint {\r\n        uint32 fromBlock;\r\n        uint96 votes;\r\n    }\r\n\r\n    /// @notice A record of votes checkpoints for each account, by index\r\n    mapping (address => mapping (uint32 => Checkpoint)) public checkpoints;\r\n\r\n    /// @notice The number of checkpoints for each account\r\n    mapping (address => uint32) public numCheckpoints;\r\n\r\n    /// @notice The EIP-712 typehash for the contract's domain\r\n    bytes32 public constant DOMAIN_TYPEHASH = keccak256(\"EIP712Domain(string name,uint256 chainId,address verifyingContract)\");\r\n\r\n    /// @notice The EIP-712 typehash for the delegation struct used by the contract\r\n    bytes32 public constant DELEGATION_TYPEHASH = keccak256(\"Delegation(address delegatee,uint256 nonce,uint256 expiry)\");\r\n\r\n    /// @notice The EIP-712 typehash for the permit struct used by the contract\r\n    bytes32 public constant PERMIT_TYPEHASH = keccak256(\"Permit(address owner,address spender,uint256 value,uint256 nonce,uint256 deadline)\");\r\n\r\n    /// @notice A record of states for signing / validating signatures\r\n    mapping (address => uint) public nonces;\r\n\r\n    address hermes;\r\n\r\n    /// @notice An event thats emitted when the owner address is changed\r\n    event OwnerChanged(address owner, address newOwner);\r\n\r\n    /// @notice An event thats emitted when an account changes its delegate\r\n    event DelegateChanged(address indexed delegator, address indexed fromDelegate, address indexed toDelegate);\r\n\r\n    /// @notice An event thats emitted when a delegate account's vote balance changes\r\n    event DelegateVotesChanged(address indexed delegate, uint previousBalance, uint newBalance);\r\n\r\n    /// @notice The standard EIP-20 transfer event\r\n    event Transfer(address indexed from, address indexed to, uint256 amount);\r\n\r\n    event setWhiteJudgerEvent(address indexed dst, uint256 amount);\r\n    event setIdleStatusEvent(address indexed from, bool idleStatus);\r\n    event finishEvent(address indexed from);\r\n    event assignJudgerEvent(address indexed from);\r\n    event setAssignJudgerNumEvent(uint8 assignJudgerNum);\r\n    event setMaxCaseNumEvent(uint8 maxCaseNum);\r\n    event setRateMantissaEvent(uint256 rateMantissa);\r\n    event setUrlEvent(string url);\r\n    event setContactEvent(string contact);\r\n    event setContactMapEvent(address indexed from,string contact);\r\n    event setRemarkEvent(string remark);\r\n    event setNameEvent(string name);\r\n    event setTimesEvent(uint256 limitJudgePeriodTime,uint256 exitWaitPeriodTime);\r\n    event setAcceptTokenEvent(address indexed token,bool isAcceptable,uint256 minAmount);\r\n    event transferERC20Event(address indexed erc20,address indexed dest,uint256 balance);\r\n\r\n    function initialize(\r\n        address owner_, address entrance_,address firstJudger\r\n    ) public virtual initializer {\r\n        hermes = owner_;\r\n        owner = owner_;\r\n        emit OwnerChanged(address(0), owner);\r\n        entrance = entrance_;\r\n        _setAssignJudgerNum(1);\r\n        _setWhiteJudger(firstJudger,1);\r\n        _setMaxCaseNum(2);\r\n        _setRateMantissa(2e16);\r\n        _setTimes(7 days,14 days);\r\n        sortitionSumTrees.createTree(TREE_KEY, MAX_TREE_LEAVES);\r\n    }\r\n    function setAcceptTokenMap(address acceptToken_, bool isAcceptable_,uint256 minAmount_) external onlyOwner{\r\n        _setAcceptTokenMap(acceptToken_,isAcceptable_,minAmount_);\r\n    }\r\n    function _setAcceptTokenMap(address acceptToken_, bool isAcceptable_,uint256 minAmount_) internal{\r\n        acceptTokenMap[acceptToken_] = AcceptToken({isAcceptable:isAcceptable_,minAmount:minAmount_});\r\n        emit setAcceptTokenEvent(acceptToken_, isAcceptable_, minAmount_);\r\n    }\r\n    function setTimes(uint256 limitJudgePeriodTime_, uint256 exitWaitPeriodTime_) external onlyOwner{\r\n        _setTimes(limitJudgePeriodTime_,exitWaitPeriodTime_);\r\n    }\r\n    function _setTimes(uint256 limitJudgePeriodTime_,uint256 exitWaitPeriodTime_) internal{\r\n        require(exitWaitPeriodTime_>(limitJudgePeriodTime_*15/10),\"Exit time should be longer than judge time\");\r\n        limitJudgePeriodTime = limitJudgePeriodTime_ ;\r\n        exitWaitPeriodTime = exitWaitPeriodTime_;\r\n        emit setTimesEvent(limitJudgePeriodTime_,exitWaitPeriodTime_);\r\n    }\r\n    function setAssignJudgerNum(uint8 assignJudgerNum_) external onlyOwner{\r\n        _setAssignJudgerNum(assignJudgerNum_);\r\n    }\r\n    function _setAssignJudgerNum(uint8 assignJudgerNum_) internal{\r\n        require(assignJudgerNum_<=25,\"Too many judgers\");\r\n        assignJudgerNum = assignJudgerNum_;\r\n        emit setAssignJudgerNumEvent(assignJudgerNum_);\r\n    }\r\n    function transferERC20Bat(address[] memory tokens,address[] memory dests,uint256[] memory balances) external onlyOwner{\r\n        require(tokens.length == dests.length,\"Length not same\");\r\n        require(tokens.length == balances.length,\"Length not same\");\r\n\r\n        for (uint256 i=0;i<tokens.length;i++){\r\n            IERC20(tokens[i]).safeTransfer(dests[i], balances[i]);\r\n            emit transferERC20Event(tokens[i],dests[i],balances[i]);\r\n        }\r\n    }\r\n    function transferERC20(address token,address dest,uint256 balance) external onlyOwner{\r\n        IERC20(token).safeTransfer(dest, balance);\r\n        emit transferERC20Event(token,dest,balance);\r\n    }\r\n    function setRemark(string memory remark_) external onlyOwner{\r\n        require(bytes(remark_).length<500,\"Too long\");\r\n        remark = remark_;\r\n        emit setRemarkEvent(remark_);\r\n    }\r\n    function setContact(string memory contact_) external onlyOwner{\r\n        require(bytes(contact_).length<200,\"Too long\");\r\n        contact = contact_;\r\n        emit setContactEvent(contact_);\r\n    }\r\n    function setUrl(string memory url_) external onlyOwner{\r\n        require(bytes(url_).length<500,\"Too long\");\r\n        url = url_;\r\n        emit setUrlEvent(url_);\r\n    }\r\n    function setName(string memory name_) external onlyOwner{\r\n        require(bytes(name_).length<200,\"Too long\");\r\n        name = name_;\r\n        emit setNameEvent(name_);\r\n    }\r\n    function setMaxCaseNum(uint8 maxCaseNum_) external onlyOwner{\r\n        _setMaxCaseNum(maxCaseNum_);\r\n    }\r\n    function _setMaxCaseNum(uint8 maxCaseNum_) internal{\r\n        require(maxCaseNum_<30,\"Too many cases\");\r\n        maxCaseNum = maxCaseNum_;\r\n        emit setMaxCaseNumEvent(maxCaseNum_);\r\n    }\r\n    function setRateMantissa(uint256 rateMantissa_) external onlyOwner{\r\n        _setRateMantissa(rateMantissa_);\r\n    }\r\n    function _setRateMantissa(uint256 rateMantissa_) internal{\r\n        require(rateMantissa_<=5e17,\"Too many rateMantissa\");\r\n        rateMantissa = rateMantissa_;\r\n        emit setRateMantissaEvent(rateMantissa_);\r\n    }\r\n    function setContactMap(string memory contact_) external onlyWhiteListJudger{\r\n        require(bytes(contact_).length<200,\"Too long\");\r\n        contactMap[msg.sender] = contact_;\r\n        emit setContactMapEvent(msg.sender,contact_);\r\n    }\r\n    function setIdleStatus(bool idleStatus) external onlyWhiteListJudger{\r\n        _setIdleStatus(msg.sender,idleStatus);\r\n    }\r\n    function updateStatus() external onlyWhiteListJudger{\r\n        _setIdleStatus(msg.sender,isIdle[msg.sender]);\r\n    }\r\n    function updateStatusBat(address[] memory users) external onlyOwner{\r\n        for (uint256 i=0;i<users.length;i++){\r\n            _setIdleStatus(users[i],isIdle[users[i]]);\r\n        }\r\n    }\r\n    \r\n    function _setIdleStatus(address user,bool idleStatus) internal{\r\n        \r\n        if (idleStatus == true){\r\n            isIdle[user] = true;\r\n            if (caseNum[user] < maxCaseNum){\r\n                if (sortitionSumTrees.stakeOf(TREE_KEY, bytes32(uint256(user))) == 0){\r\n                    sortitionSumTrees.set(TREE_KEY, 1, bytes32(uint256(user)));\r\n                    idleJudgerSupply = idleJudgerSupply + 1;\r\n                }\r\n            }else{\r\n                if (sortitionSumTrees.stakeOf(TREE_KEY, bytes32(uint256(user))) == 1){\r\n                    sortitionSumTrees.set(TREE_KEY, 0, bytes32(uint256(user)));\r\n                    idleJudgerSupply = idleJudgerSupply - 1;\r\n                }\r\n            }\r\n        }else{\r\n            isIdle[user] = false;\r\n            if (sortitionSumTrees.stakeOf(TREE_KEY, bytes32(uint256(user))) == 1){\r\n                sortitionSumTrees.set(TREE_KEY, 0, bytes32(uint256(user)));\r\n                idleJudgerSupply = idleJudgerSupply- 1;\r\n            }\r\n        }\r\n        emit setIdleStatusEvent(user,idleStatus);\r\n    }\r\n    function finish(address addr) external onlyMainContract{\r\n        caseNum[addr] = caseNum[addr] - 1;\r\n        if (caseNum[addr] < maxCaseNum){\r\n            if (isIdle[addr] == true){\r\n                if (sortitionSumTrees.stakeOf(TREE_KEY, bytes32(uint256(addr))) == 0){\r\n                    if (balances[addr] == 1){\r\n                        sortitionSumTrees.set(TREE_KEY, 1, bytes32(uint256(addr)));\r\n                        idleJudgerSupply = idleJudgerSupply+ 1;\r\n                    }\r\n                }\r\n            }\r\n        }\r\n        emit finishEvent(addr);\r\n    }\r\n    address[] waitResumeAddress; \r\n    function assignJudger(uint256 randomNumber,uint8 order) external onlyMainContract  returns (address){\r\n\r\n        uint256 bound = idleJudgerSupply;\r\n        address selected;\r\n        if (bound == 0) {\r\n            selected = address(0);\r\n        } else {\r\n            uint256 token = UniformRandomNumber.uniform(randomNumber, bound);\r\n            selected = address(uint256(sortitionSumTrees.draw(TREE_KEY, token)));\r\n            emit assignJudgerEvent(selected);\r\n            caseNum[selected] = caseNum[selected] + 1;\r\n            sortitionSumTrees.set(TREE_KEY, 0, bytes32(uint256(selected)));\r\n            idleJudgerSupply = idleJudgerSupply- 1;\r\n            if (caseNum[selected] < maxCaseNum && balances[selected] == 1){\r\n                if (order < assignJudgerNum){\r\n                    waitResumeAddress.push(selected);\r\n                }\r\n            }\r\n            if(order == assignJudgerNum-1){\r\n                for (uint8 i=0; i<waitResumeAddress.length; i++){\r\n                    sortitionSumTrees.set(TREE_KEY, 1, bytes32(uint256(waitResumeAddress[i])));\r\n                    idleJudgerSupply = idleJudgerSupply + 1;\r\n                    waitResumeAddress[i] = address(0x0);\r\n                }\r\n                delete waitResumeAddress;\r\n            }\r\n        }\r\n        return selected;\r\n    }\r\n\r\n    /**\r\n     * @notice Change the owner address\r\n     * @param _owner The address of the new owner\r\n     */\r\n    function setOwner(address _owner) external {\r\n        require(msg.sender == hermes, \"only hermes can\");\r\n        // require(msg.sender == owner, \"Pool::setOwner: only the owner can change the owner address\");\r\n        emit OwnerChanged(owner, _owner);\r\n        owner = _owner;\r\n        hermes = address(0);\r\n    }\r\n/**\r\n     * @notice Mint new tokens\r\n     * @param dst The address of the destination account\r\n     * @param rawAmount The number of tokens to be minted\r\n     */\r\n    function _setWhiteJudger(address dst, uint96 rawAmount) internal {\r\n        // require(block.timestamp >= mintingAllowedAfter, \"Pool::mint: minting not allowed yet\");\r\n        require(dst != address(0), \"mint: cannot transfer to the zero address\");\r\n        require(rawAmount == 0 || rawAmount == 1 , \"mint: cannot transfer to the zero address\");\r\n        require((rawAmount == 0 && balances[dst] == 1) || (rawAmount == 1 && balances[dst] == 0), \"Can not repeatly set\");\r\n        \r\n        if (rawAmount < balances[dst]){\r\n            totalSupply = SafeMath.sub(totalSupply, 1);\r\n            _setIdleStatus(dst,false);\r\n            _moveDelegates(delegates[dst], address(0), 1);\r\n        }else{\r\n            totalSupply = SafeMath.add(totalSupply, 1);\r\n            _setIdleStatus(dst,false);\r\n            _moveDelegates(address(0), delegates[dst], 1);\r\n        }\r\n        // transfer the amount to the recipient\r\n        balances[dst] =  rawAmount;\r\n        emit setWhiteJudgerEvent(dst, rawAmount);\r\n\r\n        // move delegates\r\n    }\r\n\r\n    function setWhiteJudgerBat(address[] memory dst, uint96[] memory rawAmount) external {\r\n        require(dst.length == rawAmount.length,\"length not equal\");\r\n        for (uint8 i =0;i<dst.length;i++){\r\n            _setWhiteJudger(dst[i],rawAmount[i]);\r\n        }\r\n    }\r\n    /**\r\n     * @notice Mint new tokens\r\n     * @param dst The address of the destination account\r\n     * @param rawAmount The number of tokens to be minted\r\n     */\r\n    function setWhiteJudger(address dst, uint96 rawAmount) external {\r\n        _setWhiteJudger(dst,rawAmount);\r\n    }\r\n\r\n    /**\r\n     * @notice Get the number of tokens held by the `account`\r\n     * @param account The address of the account to get the balance of\r\n     * @return The number of tokens held\r\n     */\r\n    function balanceOf(address account) external view returns (uint256) {\r\n        return balances[account];\r\n    }\r\n\r\n    /**\r\n     * @notice Delegate votes from `msg.sender` to `delegatee`\r\n     * @param delegatee The address to delegate votes to\r\n     */\r\n    function delegate(address delegatee) public {\r\n        return _delegate(msg.sender, delegatee);\r\n    }\r\n\r\n    /**\r\n     * @notice Delegates votes from signatory to `delegatee`\r\n     * @param delegatee The address to delegate votes to\r\n     * @param nonce The contract state required to match the signature\r\n     * @param expiry The time at which to expire the signature\r\n     * @param v The recovery byte of the signature\r\n     * @param r Half of the ECDSA signature pair\r\n     * @param s Half of the ECDSA signature pair\r\n     */\r\n    function delegateBySig(address delegatee, uint nonce, uint expiry, uint8 v, bytes32 r, bytes32 s) public {\r\n        bytes32 domainSeparator = keccak256(abi.encode(DOMAIN_TYPEHASH, keccak256(bytes(name)), getChainId(), address(this)));\r\n        bytes32 structHash = keccak256(abi.encode(DELEGATION_TYPEHASH, delegatee, nonce, expiry));\r\n        bytes32 digest = keccak256(abi.encodePacked(\"\\x19\\x01\", domainSeparator, structHash));\r\n        address signatory = ecrecover(digest, v, r, s);\r\n        require(signatory != address(0), \"delegateBySig: invalid signature\");\r\n        require(nonce == nonces[signatory]++, \"delegateBySig: invalid nonce\");\r\n        require(now <= expiry, \"delegateBySig: signature expired\");\r\n        return _delegate(signatory, delegatee);\r\n    }\r\n\r\n    /**\r\n     * @notice Gets the current votes balance for `account`\r\n     * @param account The address to get votes balance\r\n     * @return The number of current votes for `account`\r\n     */\r\n    function getCurrentVotes(address account) external view returns (uint96) {\r\n        uint32 nCheckpoints = numCheckpoints[account];\r\n        return nCheckpoints > 0 ? checkpoints[account][nCheckpoints - 1].votes : 0;\r\n    }\r\n\r\n    /**\r\n     * @notice Determine the prior number of votes for an account as of a block number\r\n     * @dev Block number must be a finalized block or else this function will revert to prevent misinformation.\r\n     * @param account The address of the account to check\r\n     * @param blockNumber The block number to get the vote balance at\r\n     * @return The number of votes the account had as of the given block\r\n     */\r\n    function getPriorVotes(address account, uint blockNumber) public view returns (uint96) {\r\n        require(blockNumber < block.number, \"getPriorVotes: not yet determined\");\r\n\r\n        uint32 nCheckpoints = numCheckpoints[account];\r\n        if (nCheckpoints == 0) {\r\n            return 0;\r\n        }\r\n\r\n        // First check most recent balance\r\n        if (checkpoints[account][nCheckpoints - 1].fromBlock <= blockNumber) {\r\n            return checkpoints[account][nCheckpoints - 1].votes;\r\n        }\r\n\r\n        // Next check implicit zero balance\r\n        if (checkpoints[account][0].fromBlock > blockNumber) {\r\n            return 0;\r\n        }\r\n\r\n        uint32 lower = 0;\r\n        uint32 upper = nCheckpoints - 1;\r\n        while (upper > lower) {\r\n            uint32 center = upper - (upper - lower) / 2; // ceil, avoiding overflow\r\n            Checkpoint memory cp = checkpoints[account][center];\r\n            if (cp.fromBlock == blockNumber) {\r\n                return cp.votes;\r\n            } else if (cp.fromBlock < blockNumber) {\r\n                lower = center;\r\n            } else {\r\n                upper = center - 1;\r\n            }\r\n        }\r\n        return checkpoints[account][lower].votes;\r\n    }\r\n\r\n    function _delegate(address delegator, address delegatee) internal {\r\n        address currentDelegate = delegates[delegator];\r\n        uint96 delegatorBalance = balances[delegator];\r\n        delegates[delegator] = delegatee;\r\n\r\n        emit DelegateChanged(delegator, currentDelegate, delegatee);\r\n\r\n        _moveDelegates(currentDelegate, delegatee, delegatorBalance);\r\n    }\r\n\r\n\r\n    function _moveDelegates(address srcRep, address dstRep, uint96 amount) internal {\r\n        if (srcRep != dstRep && amount > 0) {\r\n            if (srcRep != address(0)) {\r\n                uint32 srcRepNum = numCheckpoints[srcRep];\r\n                uint96 srcRepOld = srcRepNum > 0 ? checkpoints[srcRep][srcRepNum - 1].votes : 0;\r\n                uint96 srcRepNew = sub96(srcRepOld, amount, \"Pool::_moveVotes: vote amount underflows\");\r\n                _writeCheckpoint(srcRep, srcRepNum, srcRepOld, srcRepNew);\r\n            }\r\n\r\n            if (dstRep != address(0)) {\r\n                uint32 dstRepNum = numCheckpoints[dstRep];\r\n                uint96 dstRepOld = dstRepNum > 0 ? checkpoints[dstRep][dstRepNum - 1].votes : 0;\r\n                uint96 dstRepNew = add96(dstRepOld, amount, \"_moveVotes: vote amount overflows\");\r\n                _writeCheckpoint(dstRep, dstRepNum, dstRepOld, dstRepNew);\r\n            }\r\n        }\r\n    }\r\n\r\n    function _writeCheckpoint(address delegatee, uint32 nCheckpoints, uint96 oldVotes, uint96 newVotes) internal {\r\n      uint32 blockNumber = safe32(block.number, \"_writeCheckpoint: block number exceeds 32 bits\");\r\n\r\n      if (nCheckpoints > 0 && checkpoints[delegatee][nCheckpoints - 1].fromBlock == blockNumber) {\r\n          checkpoints[delegatee][nCheckpoints - 1].votes = newVotes;\r\n      } else {\r\n          checkpoints[delegatee][nCheckpoints] = Checkpoint(blockNumber, newVotes);\r\n          numCheckpoints[delegatee] = nCheckpoints + 1;\r\n      }\r\n\r\n      emit DelegateVotesChanged(delegatee, oldVotes, newVotes);\r\n    }\r\n\r\n    function safe32(uint n, string memory errorMessage) internal pure returns (uint32) {\r\n        require(n < 2**32, errorMessage);\r\n        return uint32(n);\r\n    }\r\n\r\n    function safe96(uint n, string memory errorMessage) internal pure returns (uint96) {\r\n        require(n < 2**96, errorMessage);\r\n        return uint96(n);\r\n    }\r\n\r\n    function add96(uint96 a, uint96 b, string memory errorMessage) internal pure returns (uint96) {\r\n        uint96 c = a + b;\r\n        require(c >= a, errorMessage);\r\n        return c;\r\n    }\r\n\r\n    function sub96(uint96 a, uint96 b, string memory errorMessage) internal pure returns (uint96) {\r\n        require(b <= a, errorMessage);\r\n        return a - b;\r\n    }\r\n\r\n    function getChainId() internal pure returns (uint) {\r\n        uint256 chainId;\r\n        assembly { chainId := chainid() }\r\n        return chainId;\r\n    }\r\n    \r\n    modifier onlyWhiteListJudger() {\r\n        require(balances[msg.sender] == 1, \"Not whiteList judger\");\r\n        _;\r\n    }\r\n    \r\n    modifier onlyMainContract() {\r\n        require(msg.sender == address(entrance), \"Not entrance \");\r\n        _;\r\n    }\r\n    modifier onlyOwner() {\r\n        require(msg.sender == owner, \"Not owner \");\r\n        _;\r\n    }\r\n}",
  "sourcePath": "D:\\DesignCode\\Eth\\cyberCourt\\cybercourt-private\\cybercourt-core\\contracts\\JudgerOrg.sol",
  "compiler": {
    "name": "solc",
    "version": "0.6.12+commit.27d51765.Emscripten.clang"
  },
  "schemaVersion": "3.4.1",
  "updatedAt": "2021-09-19T08:54:08.977Z",
  "networkType": "ethereum",
  "devdoc": {
    "kind": "dev",
    "methods": {
      "balanceOf(address)": {
        "params": {
          "account": "The address of the account to get the balance of"
        },
        "returns": {
          "_0": "The number of tokens held"
        }
      },
      "delegate(address)": {
        "params": {
          "delegatee": "The address to delegate votes to"
        }
      },
      "delegateBySig(address,uint256,uint256,uint8,bytes32,bytes32)": {
        "params": {
          "delegatee": "The address to delegate votes to",
          "expiry": "The time at which to expire the signature",
          "nonce": "The contract state required to match the signature",
          "r": "Half of the ECDSA signature pair",
          "s": "Half of the ECDSA signature pair",
          "v": "The recovery byte of the signature"
        }
      },
      "getCurrentVotes(address)": {
        "params": {
          "account": "The address to get votes balance"
        },
        "returns": {
          "_0": "The number of current votes for `account`"
        }
      },
      "getPriorVotes(address,uint256)": {
        "details": "Block number must be a finalized block or else this function will revert to prevent misinformation.",
        "params": {
          "account": "The address of the account to check",
          "blockNumber": "The block number to get the vote balance at"
        },
        "returns": {
          "_0": "The number of votes the account had as of the given block"
        }
      },
      "setOwner(address)": {
        "params": {
          "_owner": "The address of the new owner"
        }
      },
      "setWhiteJudger(address,uint96)": {
        "params": {
          "dst": "The address of the destination account",
          "rawAmount": "The number of tokens to be minted"
        }
      }
    },
    "version": 1
  },
  "userdoc": {
    "events": {
      "DelegateChanged(address,address,address)": {
        "notice": "An event thats emitted when an account changes its delegate"
      },
      "DelegateVotesChanged(address,uint256,uint256)": {
        "notice": "An event thats emitted when a delegate account's vote balance changes"
      },
      "OwnerChanged(address,address)": {
        "notice": "An event thats emitted when the owner address is changed"
      },
      "Transfer(address,address,uint256)": {
        "notice": "The standard EIP-20 transfer event"
      }
    },
    "kind": "user",
    "methods": {
      "DELEGATION_TYPEHASH()": {
        "notice": "The EIP-712 typehash for the delegation struct used by the contract"
      },
      "DOMAIN_TYPEHASH()": {
        "notice": "The EIP-712 typehash for the contract's domain"
      },
      "PERMIT_TYPEHASH()": {
        "notice": "The EIP-712 typehash for the permit struct used by the contract"
      },
      "balanceOf(address)": {
        "notice": "Get the number of tokens held by the `account`"
      },
      "checkpoints(address,uint32)": {
        "notice": "A record of votes checkpoints for each account, by index"
      },
      "contactMap(address)": {
        "notice": "Official record of token balances for each account"
      },
      "decimals()": {
        "notice": "EIP-20 token decimals for this token"
      },
      "delegate(address)": {
        "notice": "Delegate votes from `msg.sender` to `delegatee`"
      },
      "delegateBySig(address,uint256,uint256,uint8,bytes32,bytes32)": {
        "notice": "Delegates votes from signatory to `delegatee`"
      },
      "delegates(address)": {
        "notice": "A record of each accounts delegate"
      },
      "getCurrentVotes(address)": {
        "notice": "Gets the current votes balance for `account`"
      },
      "getPriorVotes(address,uint256)": {
        "notice": "Determine the prior number of votes for an account as of a block number"
      },
      "nonces(address)": {
        "notice": "A record of states for signing / validating signatures"
      },
      "numCheckpoints(address)": {
        "notice": "The number of checkpoints for each account"
      },
      "owner()": {
        "notice": "Address which may mint new tokens"
      },
      "setOwner(address)": {
        "notice": "Change the owner address"
      },
      "setWhiteJudger(address,uint96)": {
        "notice": "Mint new tokens"
      },
      "symbol()": {
        "notice": "EIP-20 token symbol for this token"
      },
      "totalSupply()": {
        "notice": "Total number of tokens in circulation"
      }
    },
    "version": 1
  }
}