{
  "contractName": "MainContract",
  "abi": [
    {
      "anonymous": false,
      "inputs": [
        {
          "indexed": true,
          "internalType": "address",
          "name": "previousOwner",
          "type": "address"
        },
        {
          "indexed": true,
          "internalType": "address",
          "name": "newOwner",
          "type": "address"
        }
      ],
      "name": "OwnershipTransferred",
      "type": "event"
    },
    {
      "inputs": [],
      "name": "basicInfo",
      "outputs": [
        {
          "internalType": "uint256",
          "name": "startBlockTime",
          "type": "uint256"
        },
        {
          "internalType": "uint256",
          "name": "endBlockTime",
          "type": "uint256"
        },
        {
          "internalType": "uint256",
          "name": "applyExitBlockTime",
          "type": "uint256"
        },
        {
          "internalType": "uint256",
          "name": "applyJudgeBlockTime",
          "type": "uint256"
        },
        {
          "internalType": "uint256",
          "name": "exitWaitPeriodTime",
          "type": "uint256"
        },
        {
          "internalType": "contract ControlledToken",
          "name": "controlledToken",
          "type": "address"
        },
        {
          "internalType": "uint256",
          "name": "limitJudgePeriodTime",
          "type": "uint256"
        },
        {
          "internalType": "int256",
          "name": "succJudgeProposalOrder",
          "type": "int256"
        },
        {
          "internalType": "int256",
          "name": "succConPersonProposalOrder",
          "type": "int256"
        },
        {
          "internalType": "uint256",
          "name": "totalStake",
          "type": "uint256"
        },
        {
          "internalType": "int8",
          "name": "status",
          "type": "int8"
        },
        {
          "internalType": "contract IERC20",
          "name": "token",
          "type": "address"
        },
        {
          "internalType": "uint256",
          "name": "firstApplyJudgeBlockTime",
          "type": "uint256"
        }
      ],
      "stateMutability": "view",
      "type": "function"
    },
    {
      "inputs": [
        {
          "internalType": "uint256",
          "name": "",
          "type": "uint256"
        }
      ],
      "name": "conPersonProposalMap",
      "outputs": [
        {
          "internalType": "uint8",
          "name": "assignAddrMapNum",
          "type": "uint8"
        },
        {
          "internalType": "uint8",
          "name": "agreeNum",
          "type": "uint8"
        },
        {
          "internalType": "uint8",
          "name": "rejectNum",
          "type": "uint8"
        },
        {
          "internalType": "address",
          "name": "proposer",
          "type": "address"
        }
      ],
      "stateMutability": "view",
      "type": "function"
    },
    {
      "inputs": [],
      "name": "conPersonProposalMapNum",
      "outputs": [
        {
          "internalType": "uint256",
          "name": "",
          "type": "uint256"
        }
      ],
      "stateMutability": "view",
      "type": "function"
    },
    {
      "inputs": [
        {
          "internalType": "uint8",
          "name": "",
          "type": "uint8"
        }
      ],
      "name": "contractMap",
      "outputs": [
        {
          "internalType": "uint256",
          "name": "startBlockTime",
          "type": "uint256"
        }
      ],
      "stateMutability": "view",
      "type": "function"
    },
    {
      "inputs": [],
      "name": "contractMapNum",
      "outputs": [
        {
          "internalType": "uint8",
          "name": "",
          "type": "uint8"
        }
      ],
      "stateMutability": "view",
      "type": "function"
    },
    {
      "inputs": [
        {
          "internalType": "uint8",
          "name": "",
          "type": "uint8"
        }
      ],
      "name": "contractPersonAddrMap",
      "outputs": [
        {
          "internalType": "address",
          "name": "",
          "type": "address"
        }
      ],
      "stateMutability": "view",
      "type": "function"
    },
    {
      "inputs": [],
      "name": "contractPersonAddrMapNum",
      "outputs": [
        {
          "internalType": "uint8",
          "name": "",
          "type": "uint8"
        }
      ],
      "stateMutability": "view",
      "type": "function"
    },
    {
      "inputs": [
        {
          "internalType": "address",
          "name": "",
          "type": "address"
        }
      ],
      "name": "contractPersonMap",
      "outputs": [
        {
          "internalType": "bool",
          "name": "isJoined",
          "type": "bool"
        },
        {
          "internalType": "uint256",
          "name": "balance",
          "type": "uint256"
        }
      ],
      "stateMutability": "view",
      "type": "function"
    },
    {
      "inputs": [],
      "name": "judgerBalance",
      "outputs": [
        {
          "internalType": "uint256",
          "name": "",
          "type": "uint256"
        }
      ],
      "stateMutability": "view",
      "type": "function"
    },
    {
      "inputs": [
        {
          "internalType": "address",
          "name": "",
          "type": "address"
        }
      ],
      "name": "judgerExistedMap",
      "outputs": [
        {
          "internalType": "bool",
          "name": "",
          "type": "bool"
        }
      ],
      "stateMutability": "view",
      "type": "function"
    },
    {
      "inputs": [
        {
          "internalType": "uint8",
          "name": "",
          "type": "uint8"
        }
      ],
      "name": "judgerMap",
      "outputs": [
        {
          "internalType": "address",
          "name": "",
          "type": "address"
        }
      ],
      "stateMutability": "view",
      "type": "function"
    },
    {
      "inputs": [],
      "name": "judgerMapNum",
      "outputs": [
        {
          "internalType": "uint8",
          "name": "",
          "type": "uint8"
        }
      ],
      "stateMutability": "view",
      "type": "function"
    },
    {
      "inputs": [],
      "name": "judgerOrg",
      "outputs": [
        {
          "internalType": "contract JudgerOrg",
          "name": "",
          "type": "address"
        }
      ],
      "stateMutability": "view",
      "type": "function"
    },
    {
      "inputs": [
        {
          "internalType": "uint256",
          "name": "",
          "type": "uint256"
        }
      ],
      "name": "judgerProposalMap",
      "outputs": [
        {
          "internalType": "uint8",
          "name": "assignAddrMapNum",
          "type": "uint8"
        },
        {
          "internalType": "uint8",
          "name": "agreeNum",
          "type": "uint8"
        },
        {
          "internalType": "uint8",
          "name": "rejectNum",
          "type": "uint8"
        },
        {
          "internalType": "address",
          "name": "proposer",
          "type": "address"
        }
      ],
      "stateMutability": "view",
      "type": "function"
    },
    {
      "inputs": [],
      "name": "judgerProposalMapNum",
      "outputs": [
        {
          "internalType": "uint256",
          "name": "",
          "type": "uint256"
        }
      ],
      "stateMutability": "view",
      "type": "function"
    },
    {
      "inputs": [],
      "name": "judgerRateMantissa",
      "outputs": [
        {
          "internalType": "uint256",
          "name": "",
          "type": "uint256"
        }
      ],
      "stateMutability": "view",
      "type": "function"
    },
    {
      "inputs": [],
      "name": "owner",
      "outputs": [
        {
          "internalType": "address",
          "name": "",
          "type": "address"
        }
      ],
      "stateMutability": "view",
      "type": "function"
    },
    {
      "inputs": [],
      "name": "renounceOwnership",
      "outputs": [],
      "stateMutability": "nonpayable",
      "type": "function"
    },
    {
      "inputs": [
        {
          "internalType": "address",
          "name": "newOwner",
          "type": "address"
        }
      ],
      "name": "transferOwnership",
      "outputs": [],
      "stateMutability": "nonpayable",
      "type": "function"
    },
    {
      "inputs": [
        {
          "internalType": "uint8",
          "name": "contractOrder",
          "type": "uint8"
        },
        {
          "internalType": "address",
          "name": "user",
          "type": "address"
        }
      ],
      "name": "getContractSignInfo",
      "outputs": [
        {
          "internalType": "uint256",
          "name": "",
          "type": "uint256"
        },
        {
          "internalType": "int8",
          "name": "",
          "type": "int8"
        }
      ],
      "stateMutability": "view",
      "type": "function"
    },
    {
      "inputs": [
        {
          "internalType": "bool",
          "name": "isJudgerProposal",
          "type": "bool"
        },
        {
          "internalType": "uint256",
          "name": "proposalOrder",
          "type": "uint256"
        },
        {
          "internalType": "address",
          "name": "user",
          "type": "address"
        }
      ],
      "name": "getProposalSignInfo",
      "outputs": [
        {
          "internalType": "uint256",
          "name": "",
          "type": "uint256"
        },
        {
          "internalType": "int8",
          "name": "",
          "type": "int8"
        }
      ],
      "stateMutability": "view",
      "type": "function"
    },
    {
      "inputs": [
        {
          "internalType": "bool",
          "name": "isJudgerProposal",
          "type": "bool"
        },
        {
          "internalType": "uint256",
          "name": "proposalOrder",
          "type": "uint256"
        },
        {
          "internalType": "uint8",
          "name": "order",
          "type": "uint8"
        }
      ],
      "name": "getProposalAssignAddr",
      "outputs": [
        {
          "internalType": "address",
          "name": "",
          "type": "address"
        }
      ],
      "stateMutability": "view",
      "type": "function"
    },
    {
      "inputs": [
        {
          "internalType": "bool",
          "name": "isJudgerProposal",
          "type": "bool"
        },
        {
          "internalType": "uint256",
          "name": "proposalOrder",
          "type": "uint256"
        },
        {
          "internalType": "address",
          "name": "user",
          "type": "address"
        }
      ],
      "name": "getProposalAssignBalance",
      "outputs": [
        {
          "internalType": "uint256",
          "name": "",
          "type": "uint256"
        }
      ],
      "stateMutability": "view",
      "type": "function"
    },
    {
      "inputs": [],
      "name": "initialize",
      "outputs": [],
      "stateMutability": "nonpayable",
      "type": "function"
    },
    {
      "inputs": [
        {
          "internalType": "address",
          "name": "sponsor",
          "type": "address"
        },
        {
          "internalType": "address[]",
          "name": "persons",
          "type": "address[]"
        },
        {
          "internalType": "uint256",
          "name": "stakeBalance",
          "type": "uint256"
        },
        {
          "internalType": "contract ERC20",
          "name": "token",
          "type": "address"
        },
        {
          "internalType": "contract ControlledToken",
          "name": "controlledToken",
          "type": "address"
        },
        {
          "internalType": "address",
          "name": "judgerOrg_",
          "type": "address"
        }
      ],
      "name": "createMainContract",
      "outputs": [],
      "stateMutability": "nonpayable",
      "type": "function"
    },
    {
      "inputs": [
        {
          "internalType": "address",
          "name": "person",
          "type": "address"
        }
      ],
      "name": "clearContractPersonBalance",
      "outputs": [],
      "stateMutability": "nonpayable",
      "type": "function"
    },
    {
      "inputs": [
        {
          "internalType": "address",
          "name": "sponsor",
          "type": "address"
        }
      ],
      "name": "addContract",
      "outputs": [],
      "stateMutability": "nonpayable",
      "type": "function"
    },
    {
      "inputs": [],
      "name": "token",
      "outputs": [
        {
          "internalType": "address",
          "name": "",
          "type": "address"
        }
      ],
      "stateMutability": "view",
      "type": "function"
    },
    {
      "inputs": [
        {
          "internalType": "address",
          "name": "sponsor",
          "type": "address"
        },
        {
          "internalType": "uint256",
          "name": "finalBalance",
          "type": "uint256"
        }
      ],
      "name": "addStakeBalance",
      "outputs": [],
      "stateMutability": "nonpayable",
      "type": "function"
    },
    {
      "inputs": [
        {
          "internalType": "address",
          "name": "sponsor",
          "type": "address"
        }
      ],
      "name": "applyExit",
      "outputs": [],
      "stateMutability": "nonpayable",
      "type": "function"
    },
    {
      "inputs": [
        {
          "internalType": "address",
          "name": "sponsor",
          "type": "address"
        },
        {
          "internalType": "uint256",
          "name": "stakeBalance",
          "type": "uint256"
        }
      ],
      "name": "exitStakeBalance",
      "outputs": [
        {
          "internalType": "bool",
          "name": "",
          "type": "bool"
        },
        {
          "internalType": "bool",
          "name": "",
          "type": "bool"
        }
      ],
      "stateMutability": "nonpayable",
      "type": "function"
    },
    {
      "inputs": [
        {
          "internalType": "address",
          "name": "sponsor",
          "type": "address"
        },
        {
          "internalType": "uint8",
          "name": "contractOrder",
          "type": "uint8"
        },
        {
          "internalType": "int8",
          "name": "signStatus",
          "type": "int8"
        }
      ],
      "name": "signContract",
      "outputs": [
        {
          "internalType": "bool",
          "name": "",
          "type": "bool"
        }
      ],
      "stateMutability": "nonpayable",
      "type": "function"
    },
    {
      "inputs": [
        {
          "internalType": "address",
          "name": "sponsor",
          "type": "address"
        },
        {
          "internalType": "address[]",
          "name": "persons",
          "type": "address[]"
        },
        {
          "internalType": "uint256[]",
          "name": "balance",
          "type": "uint256[]"
        }
      ],
      "name": "launchProposal",
      "outputs": [],
      "stateMutability": "nonpayable",
      "type": "function"
    },
    {
      "inputs": [
        {
          "internalType": "address",
          "name": "sponsor",
          "type": "address"
        },
        {
          "internalType": "uint256",
          "name": "proposalOrder",
          "type": "uint256"
        },
        {
          "internalType": "int8",
          "name": "signStatus",
          "type": "int8"
        }
      ],
      "name": "signProposal",
      "outputs": [
        {
          "internalType": "bool",
          "name": "",
          "type": "bool"
        }
      ],
      "stateMutability": "nonpayable",
      "type": "function"
    },
    {
      "inputs": [
        {
          "internalType": "address",
          "name": "sponsor",
          "type": "address"
        },
        {
          "internalType": "address[]",
          "name": "persons",
          "type": "address[]"
        },
        {
          "internalType": "uint256[]",
          "name": "balance",
          "type": "uint256[]"
        }
      ],
      "name": "launchJudgerProposal",
      "outputs": [],
      "stateMutability": "nonpayable",
      "type": "function"
    },
    {
      "inputs": [
        {
          "internalType": "address",
          "name": "sponsor",
          "type": "address"
        },
        {
          "internalType": "uint256",
          "name": "proposalOrder",
          "type": "uint256"
        },
        {
          "internalType": "int8",
          "name": "signStatus",
          "type": "int8"
        }
      ],
      "name": "signJudgerProposal",
      "outputs": [
        {
          "internalType": "bool",
          "name": "",
          "type": "bool"
        }
      ],
      "stateMutability": "nonpayable",
      "type": "function"
    },
    {
      "inputs": [
        {
          "internalType": "address",
          "name": "sponsor",
          "type": "address"
        },
        {
          "internalType": "uint8",
          "name": "judgerNum_",
          "type": "uint8"
        }
      ],
      "name": "applyJudge",
      "outputs": [],
      "stateMutability": "nonpayable",
      "type": "function"
    },
    {
      "inputs": [
        {
          "internalType": "uint256",
          "name": "judgerOrder",
          "type": "uint256"
        },
        {
          "internalType": "uint8",
          "name": "order",
          "type": "uint8"
        },
        {
          "internalType": "address",
          "name": "judger",
          "type": "address"
        }
      ],
      "name": "setJudger",
      "outputs": [],
      "stateMutability": "nonpayable",
      "type": "function"
    }
  ],
  "bytecode": "0x608060405234801561001057600080fd5b5061355b806100206000396000f3fe608060405234801561001057600080fd5b50600436106101c25760003560e01c806308cf4ad3146101c757806317e43c08146101f0578063424c8056146102055780634476d5af146102265780634f2d4fd4146102495780634fb095e81461026a5780635321d9411461027f57806355504951146102925780635f539d69146102b25780635f58f950146102c55780636125ff52146102cd5780636bfb61b4146102e05780637035eeaa146102f3578063715018a6146103145780637f9ca4941461031c5780637fb34564146103245780638129fc1c146103375780638b77949d1461033f5780638da5cb5b1461035257806390607a711461035a57806390fd161b1461036d578063914eab291461038057806392accd37146103935780639a246ada146103a8578063a02b2ee6146103b0578063a442966d146103b8578063a5e0109c146103cb578063c5625911146103de578063cb26d99f146103f1578063cfc1d524146103f9578063d285ae8b1461040c578063dbda5beb14610414578063e59abe9614610427578063e7de534a1461043a578063ee0a39511461044d578063f2fde38b1461046e578063f6eb1f3614610481578063fc0c546a14610494575b600080fd5b6101da6101d5366004612a58565b61049c565b6040516101e79190612ce1565b60405180910390f35b6102036101fe3660046128d5565b6104fb565b005b610218610213366004612a2d565b6107f9565b6040516101e7929190612cec565b610239610234366004612bcd565b61098d565b6040516101e79493929190613432565b61025c6102573660046128b9565b6109c5565b6040516101e7929190612cfe565b6102726109e4565b6040516101e7919061339b565b61027261028d366004612c33565b6109ea565b6102a56102a0366004612b97565b6109fc565b6040516101e79190612cb4565b6102036102c03660046128b9565b610a62565b610272610b3c565b6102396102db366004612bcd565b610b42565b6102726102ee366004612b61565b610b7a565b610306610301366004612c6b565b610bda565b6040516101e79291906133a4565b610203610c15565b610272610c8c565b610203610332366004612a9d565b610c92565b610203610de6565b6102a561034d366004612c33565b610e71565b6102a5610e8c565b6101da610368366004612a58565b610e9b565b6101da61037b3660046128b9565b610ee7565b61030661038e366004612b61565b610efc565b61039b610f77565b6040516101e79190613424565b610272610f80565b6102a5610f86565b6102036103c6366004612bfd565b610f95565b6102036103d9366004612a2d565b610fde565b6102036103ec36600461299e565b6110b6565b61039b611601565b6101da610407366004612ad5565b61160a565b61039b611656565b6102036104223660046128d5565b61165f565b6102036104353660046128b9565b6118e0565b6102a5610448366004612c33565b611ae0565b610455611afb565b6040516101e79d9c9b9a999897969594939291906133b5565b61020361047c3660046128b9565b611b3b565b61020361048f3660046128b9565b611bea565b6102a5611c46565b60006104a6611c5a565b6001600160a01b03166104b7610e8c565b6001600160a01b0316146104e65760405162461bcd60e51b81526004016104dd9061305c565b60405180910390fd5b6104f1848484611c5e565b90505b9392505050565b610503611c5a565b6001600160a01b0316610514610e8c565b6001600160a01b03161461053a5760405162461bcd60e51b81526004016104dd9061305c565b805182511461055b5760405162461bcd60e51b81526004016104dd906132bf565b600a82511061057c5760405162461bcd60e51b81526004016104dd90613101565b606f54600090810b900b6001146105a55760405162461bcd60e51b81526004016104dd90612f3e565b6105ae83611ecb565b60408051608081018252835160ff9081168252600060208084018281528486018381526001600160a01b038a811660608801908152607254865260719094529684209551865492519151935160ff199093169086161761ff001916610100918616919091021762ff00001916620100009290941691909102929092176301000000600160b81b03191663010000009290941691909102929092179055606e54905b83518160ff1610156107cb57607c6000858360ff168151811061066e57fe5b6020908102919091018101516001600160a01b031682528101919091526040016000205460ff1615156001146106b65760405162461bcd60e51b81526004016104dd90613091565b81838260ff16815181106106c657fe5b602002602001015111156106ec5760405162461bcd60e51b81526004016104dd90612ece565b828160ff16815181106106fb57fe5b602002602001015182039150838160ff168151811061071657fe5b602090810291909101810151607254600090815260718352604080822060ff86168084526001909101909452902080546001600160a01b0319166001600160a01b039092169190911790558351849190811061076e57fe5b60200260200101516071600060725481526020019081526020016000206002016000868460ff168151811061079f57fe5b6020908102919091018101516001600160a01b031682528101919091526040016000205560010161064f565b5080156107ea5760405162461bcd60e51b81526004016104dd906131e4565b50506072805460010190555050565b600080610804611c5a565b6001600160a01b0316610815610e8c565b6001600160a01b03161461083b5760405162461bcd60e51b81526004016104dd9061305c565b61084484611ecb565b6001600160a01b0384166000908152607c602052604090206001015483111561087f5760405162461bcd60e51b81526004016104dd9061336c565b6000831161089f5760405162461bcd60e51b81526004016104dd9061333c565b606f54600090810b900b15806108be5750606f54600090810b900b6003145b806108dc5750606754158015906108dc575060695460675442910111155b6108f85760405162461bcd60e51b81526004016104dd90612e02565b6001600160a01b038085166000908152607c6020526040902060010180548590039055606f5461093091610100909104168585611f08565b606e80548490039055606f54600090810b810b6002141561094f575060015b606f805460ff19166003179055606e5461097f57606f805460ff1916600417905542606655600192509050610986565b6000925090505b9250929050565b60766020526000908152604090205460ff8082169161010081048216916201000082041690630100000090046001600160a01b031684565b607c602052600090815260409020805460019091015460ff9091169082565b60775481565b60786020526000908152604090205481565b60008315610a335750600082815260766020908152604080832060ff851684526001019091529020546001600160a01b03166104f4565b50600082815260716020908152604080832060ff851684526001019091529020546001600160a01b03166104f4565b610a6a611c5a565b6001600160a01b0316610a7b610e8c565b6001600160a01b031614610aa15760405162461bcd60e51b81526004016104dd9061305c565b610aaa81611ecb565b606f54600090810b900b600114610ad35760405162461bcd60e51b81526004016104dd90612f3e565b60795460ff90811610610af85760405162461bcd60e51b81526004016104dd90613215565b5060408051602080820183524282526079805460ff90811660009081526078909352939091209151909155805480831660010190921660ff19909216919091179055565b607d5481565b60716020526000908152604090205460ff8082169161010081048216916201000082041690630100000090046001600160a01b031684565b60008315610bae575060008281526076602090815260408083206001600160a01b03851684526002019091529020546104f4565b5060008281526071602090815260408083206001600160a01b03851684526002019091529020546104f4565b60ff9190911660009081526078602090815260408083206001600160a01b039094168352600193840190915281208054920154919291900b90565b610c1d611c5a565b6001600160a01b0316610c2e610e8c565b6001600160a01b031614610c545760405162461bcd60e51b81526004016104dd9061305c565b6033546040516000916001600160a01b031690600080516020613506833981519152908390a3603380546001600160a01b0319169055565b60725481565b610c9a611c5a565b6001600160a01b0316610cab610e8c565b6001600160a01b031614610cd15760405162461bcd60e51b81526004016104dd9061305c565b610cda82611ecb565b606f54600090810b900b60011480610d385750606b5460685442910111801590610d075750606d54600019145b8015610d165750606c54600019145b8015610d2b5750606f54600090810b900b6002145b8015610d38575060685415155b610d545760405162461bcd60e51b81526004016104dd9061312a565b60005b60755460ff9081169082161015610da05760ff81166000908152607360209081526040808320546001600160a01b0316835260749091529020805460ff19169055600101610d57565b506075805460ff831660ff1991821617909155606f80549091166002179055606854610dcb57426070555b42606855606e54607d54610ddf9190611f63565b607e555050565b600054610100900460ff1680610dff5750610dff611f8e565b80610e0d575060005460ff16155b610e295760405162461bcd60e51b81526004016104dd90612f9c565b600054610100900460ff16158015610e54576000805460ff1961ff0019909116610100171660011790555b610e5c611f9f565b8015610e6e576000805461ff00191690555b50565b6073602052600090815260409020546001600160a01b031681565b6033546001600160a01b031690565b6000610ea5611c5a565b6001600160a01b0316610eb6610e8c565b6001600160a01b031614610edc5760405162461bcd60e51b81526004016104dd9061305c565b6104f184848461201d565b60746020526000908152604090205460ff1681565b6000808415610f3c57505060008281526076602090815260408083206001600160a01b03851684526003019091528120805460019091015490910b610f6f565b505060008281526071602090815260408083206001600160a01b03851684526003019091528120805460019091015490910b5b935093915050565b60795460ff1681565b607e5481565b607f546001600160a01b031681565b60ff909116600090815260736020908152604080832080546001600160a01b039095166001600160a01b0319909516851790559282526074905220805460ff1916600117905550565b610fe6611c5a565b6001600160a01b0316610ff7610e8c565b6001600160a01b03161461101d5760405162461bcd60e51b81526004016104dd9061305c565b606f54600090810b900b6001148061103c5750606f54600090810b900b155b6110585760405162461bcd60e51b81526004016104dd90612f3e565b606a546001600160a01b03166110805760405162461bcd60e51b81526004016104dd90612d83565b61108982611ecb565b6001600160a01b039091166000908152607c60205260409020600101805482019055606e80549091019055565b6110be611c5a565b6001600160a01b03166110cf610e8c565b6001600160a01b0316146110f55760405162461bcd60e51b81526004016104dd9061305c565b607f80546001600160a01b0319166001600160a01b038381169190911791829055604051632b615a9760e11b8152600092839216906356c2b52e9061113e908890600401612cb4565b604080518083038186803b15801561115557600080fd5b505afa158015611169573d6000803e3d6000fd5b505050506040513d601f19601f8201168201806040525081019061118d9190612b34565b90925090506001821515146111b45760405162461bcd60e51b81526004016104dd906130be565b808610156111d45760405162461bcd60e51b81526004016104dd90612e57565b604051806101a00160405280428152602001600081526020016000815260200160008152602001607f60009054906101000a90046001600160a01b03166001600160a01b0316634a42ecb06040518163ffffffff1660e01b815260040160206040518083038186803b15801561124957600080fd5b505afa15801561125d573d6000803e3d6000fd5b505050506040513d601f19601f820116820180604052508101906112819190612be5565b8152602001856001600160a01b03168152602001607f60009054906101000a90046001600160a01b03166001600160a01b031663618beb296040518163ffffffff1660e01b815260040160206040518083038186803b1580156112e357600080fd5b505afa1580156112f7573d6000803e3d6000fd5b505050506040513d601f19601f8201168201806040525081019061131b9190612be5565b815260001960208083018290526040808401929092526000606080850182905260808086018390526001600160a01b03808d1660a08089019190915260c097880185905288516065558886015160665588870151606755928801516068559087015160695590860151606a80549183166001600160a01b031990921691909117905593850151606b5560e0850151606c5561010080860151606d55610120860151606e55610140860151606f8054610160890151909716909202610100600160a81b031991840b60ff1660ff1997881617919091161790556101809094015160705560728490556075805484169055607784905560798054607b8054861690558351808401909452428452858052607890925291517f081a134e404bb5bca49ef6b8477e647c1205f6d43d6a20bb692a968ac5aa71445590911660011790555b87518160ff16101561156157607c6000898360ff168151811061147a57fe5b6020908102919091018101516001600160a01b031682528101919091526040016000205460ff16156114be5760405162461bcd60e51b81526004016104dd90612dd5565b878160ff16815181106114cd57fe5b6020026020010151607a60008360ff1660ff16815260200190815260200160002060006101000a8154816001600160a01b0302191690836001600160a01b031602179055506001607c60008a8460ff168151811061152757fe5b6020908102919091018101516001600160a01b03168252810191909152604001600020805460ff191691151591909117905560010161145b565b508651607b805460ff191660ff909216919091179055607f5460408051633e0b06db60e01b815290516001600160a01b0390921691633e0b06db91600480820192602092909190829003018186803b1580156115bc57600080fd5b505afa1580156115d0573d6000803e3d6000fd5b505050506040513d601f19601f820116820180604052508101906115f49190612be5565b607d555050505050505050565b607b5460ff1681565b6000611614611c5a565b6001600160a01b0316611625610e8c565b6001600160a01b03161461164b5760405162461bcd60e51b81526004016104dd9061305c565b6104f1848484612296565b60755460ff1681565b61166883612408565b606f54600090810b900b6002146116915760405162461bcd60e51b81526004016104dd90612f3e565b60408051608081018252835160ff9081168252600060208084018281528486018381526001600160a01b038a811660608801908152607754865260769094529684209551865492519151935160ff199093169086161761ff001916610100918616919091021762ff00001916620100009290941691909102929092176301000000600160b81b03191663010000009290941691909102929092179055607e54606e5403905b83518160ff1610156118b257607c6000858360ff168151811061175557fe5b6020908102919091018101516001600160a01b031682528101919091526040016000205460ff16151560011461179d5760405162461bcd60e51b81526004016104dd90613091565b81838260ff16815181106117ad57fe5b602002602001015111156117d35760405162461bcd60e51b81526004016104dd90612ece565b828160ff16815181106117e257fe5b602002602001015182039150838160ff16815181106117fd57fe5b602090810291909101810151607754600090815260768352604080822060ff86168084526001909101909452902080546001600160a01b0319166001600160a01b039092169190911790558351849190811061185557fe5b60200260200101516076600060775481526020019081526020016000206002016000868460ff168151811061188657fe5b6020908102919091018101516001600160a01b0316825281019190915260400160002055600101611736565b5080156118d15760405162461bcd60e51b81526004016104dd906131e4565b50506077805460010190555050565b6118e8611c5a565b6001600160a01b03166118f9610e8c565b6001600160a01b03161461191f5760405162461bcd60e51b81526004016104dd9061305c565b61192881611ecb565b606f54600090810b900b6001148015611a4c5750607f60009054906101000a90046001600160a01b03166001600160a01b0316629573be6040518163ffffffff1660e01b815260040160206040518083038186803b15801561198957600080fd5b505afa15801561199d573d6000803e3d6000fd5b505050506040513d601f19601f820116820180604052508101906119c19190612be5565b607f60009054906101000a90046001600160a01b03166001600160a01b031663e36364ff6040518163ffffffff1660e01b815260040160206040518083038186803b158015611a0f57600080fd5b505afa158015611a23573d6000803e3d6000fd5b505050506040513d601f19601f82011682018060405250810190611a479190612c4f565b60ff16115b80611a9d5750606b5460705442910111801590611a6c5750606d54600019145b8015611a7b5750606c54600019145b8015611a905750606f54600090810b900b6002145b8015611a9d575060705415155b611ab95760405162461bcd60e51b81526004016104dd9061315b565b60675415611ad95760405162461bcd60e51b81526004016104dd90612f6a565b5042606755565b607a602052600090815260409020546001600160a01b031681565b606554606654606754606854606954606a54606b54606c54606d54606e54606f546070546001600160a01b0396871696600083900b92610100900416908d565b611b43611c5a565b6001600160a01b0316611b54610e8c565b6001600160a01b031614611b7a5760405162461bcd60e51b81526004016104dd9061305c565b6001600160a01b038116611ba05760405162461bcd60e51b81526004016104dd90612e88565b6033546040516001600160a01b0380841692169060008051602061350683398151915290600090a3603380546001600160a01b0319166001600160a01b0392909216919091179055565b611bf2611c5a565b6001600160a01b0316611c03610e8c565b6001600160a01b031614611c295760405162461bcd60e51b81526004016104dd9061305c565b6001600160a01b03166000908152607c6020526040812060010155565b606f5461010090046001600160a01b031690565b3390565b6000611c6983612445565b606f54600090810b900b600114611c925760405162461bcd60e51b81526004016104dd90612f3e565b611c9b84611ecb565b60008381526071602090815260408083206001600160a01b0388168452600381019092528220428155600181015491929091810b900b15611cee5760405162461bcd60e51b81526004016104dd90613278565b6001818101805460ff191660ff600088900b908116919091179091551415611d3257815460ff61010080830482166001019091160261ff0019909116178255611d60565b8360000b6000191415611d60578154600160ff62010000808404821692909201160262ff0000199091161782555b8154607b54610100820460ff9081166201000090930481169290920182169116811415611ebe57825462010000900460ff16611ebe5760005b835460ff9081169082161015611df65760ff811660009081526001850160209081526040808320546001600160a01b0390811680855260028901909352922054606f54611dee93610100909104169190611f08565b600101611d99565b50606f546040516370a0823160e01b81526101009091046001600160a01b0316906370a0823190611e2b903090600401612cb4565b60206040518083038186803b158015611e4357600080fd5b505afa158015611e57573d6000803e3d6000fd5b505050506040513d601f19601f82011682018060405250810190611e7b9190612be5565b15611e985760405162461bcd60e51b81526004016104dd90612d41565b505050606d839055506000606e5542606655606f805460ff1916600417905560016104f4565b5060009695505050505050565b6001600160a01b0381166000908152607c602052604090205460ff161515600114610e6e5760405162461bcd60e51b81526004016104dd90613091565b611f5e8363a9059cbb60e01b8484604051602401611f27929190612cc8565b60408051601f198184030181529190526020810180516001600160e01b03166001600160e01b031990931692909217909152612466565b505050565b600080611f7083856124f5565b9050611f8481670de0b6b3a764000061252f565b9150505b92915050565b6000611f993061256e565b15905090565b600054610100900460ff1680611fb85750611fb8611f8e565b80611fc6575060005460ff16155b611fe25760405162461bcd60e51b81526004016104dd90612f9c565b600054610100900460ff1615801561200d576000805460ff1961ff0019909116610100171660011790555b612015612574565b610e5c6125f5565b6000612028836126bd565b61203184612408565b606f54600090810b900b60021461205a5760405162461bcd60e51b81526004016104dd90612f3e565b60008381526076602090815260408083206001600160a01b0388168452600381019092528220428155600181015491929091810b900b156120ad5760405162461bcd60e51b81526004016104dd90613278565b6001818101805460ff191660ff600088900b9081169190911790915514156120f157815460ff61010080830482166001019091160261ff001990911617825561211f565b8360000b600019141561211f578154600160ff62010000808404821692909201160262ff0000199091161782555b8154607554610100820460ff9081166201000090930481168301811692600292821692909204161015611ebe57607f54607e54606f54612172926001600160a01b03610100909204821692911690611f08565b60005b835460ff90811690821610156121d25760ff811660009081526001850160209081526040808320546001600160a01b0390811680855260028901909352922054606f546121ca93610100909104169190611f08565b600101612175565b50606f546040516370a0823160e01b81526101009091046001600160a01b0316906370a0823190612207903090600401612cb4565b60206040518083038186803b15801561221f57600080fd5b505afa158015612233573d6000803e3d6000fd5b505050506040513d601f19601f820116820180604052508101906122579190612be5565b156122745760405162461bcd60e51b81526004016104dd90612d41565b50506000606e555050606c829055606f805460ff1916600417905560016104f4565b60006122a48360ff166126de565b6122ad84611ecb565b60ff831660009081526078602090815260408083206001600160a01b0388168452600190810190925282200154810b900b156122fb5760405162461bcd60e51b81526004016104dd90612db1565b60ff83811660008181526078602090815260408083206001600160a01b038a1684526001908101909252822042815501805460ff19169186900b909316179091556123fe57606f54600090810b900b156123675760405162461bcd60e51b81526004016104dd90612f3e565b42606655606f805460ff1916600117905560005b607b5460ff90811690821610156123e35760ff80851660009081526078602090815260408083209385168352607a8252808320546001600160a01b0316835260019384019091528120820154810b900b146123db57606f805460ff191690555b60010161237b565b50606f54600090810b900b600114156123fe575060016104f4565b5060009392505050565b6001600160a01b03811660009081526074602052604090205460ff161515600114610e6e5760405162461bcd60e51b81526004016104dd9061329c565b6072548110610e6e5760405162461bcd60e51b81526004016104dd906131b4565b60606124bb826040518060400160405280602081526020017f5361666545524332303a206c6f772d6c6576656c2063616c6c206661696c6564815250856001600160a01b03166127029092919063ffffffff16565b805190915015611f5e57808060200190518101906124d99190612b18565b611f5e5760405162461bcd60e51b81526004016104dd906132f2565b60008261250457506000611f88565b8282028284828161251157fe5b04146104f45760405162461bcd60e51b81526004016104dd9061301b565b60006104f483836040518060400160405280601a815260200179536166654d6174683a206469766973696f6e206279207a65726f60301b815250612711565b3b151590565b600054610100900460ff168061258d575061258d611f8e565b8061259b575060005460ff16155b6125b75760405162461bcd60e51b81526004016104dd90612f9c565b600054610100900460ff16158015610e5c576000805460ff1961ff0019909116610100171660011790558015610e6e576000805461ff001916905550565b600054610100900460ff168061260e575061260e611f8e565b8061261c575060005460ff16155b6126385760405162461bcd60e51b81526004016104dd90612f9c565b600054610100900460ff16158015612663576000805460ff1961ff0019909116610100171660011790555b600061266d611c5a565b603380546001600160a01b0319166001600160a01b03831690811790915560405191925090600090600080516020613506833981519152908290a3508015610e6e576000805461ff001916905550565b6077548110610e6e5760405162461bcd60e51b81526004016104dd906131b4565b60795460ff168110610e6e5760405162461bcd60e51b81526004016104dd90612fea565b60606104f18484600085612748565b600081836127325760405162461bcd60e51b81526004016104dd9190612d0e565b50600083858161273e57fe5b0495945050505050565b60608247101561276a5760405162461bcd60e51b81526004016104dd90612ef8565b6127738561256e565b61278f5760405162461bcd60e51b81526004016104dd90613241565b60006060866001600160a01b031685876040516127ac9190612c98565b60006040518083038185875af1925050503d80600081146127e9576040519150601f19603f3d011682016040523d82523d6000602084013e6127ee565b606091505b50915091506127fe828286612809565b979650505050505050565b606083156128185750816104f4565b8251156128285782518084602001fd5b8160405162461bcd60e51b81526004016104dd9190612d0e565b600082601f830112612852578081fd5b813561286561286082613484565b61345e565b81815291506020808301908481018184028601820187101561288657600080fd5b60005b848110156128ae57813561289c816134d3565b84529282019290820190600101612889565b505050505092915050565b6000602082840312156128ca578081fd5b81356104f4816134d3565b6000806000606084860312156128e9578182fd5b83356128f4816134d3565b92506020848101356001600160401b0380821115612910578485fd5b61291c88838901612842565b94506040870135915080821115612931578384fd5b508501601f81018713612942578283fd5b803561295061286082613484565b81815283810190838501858402850186018b101561296c578687fd5b8694505b8385101561298e578035835260019490940193918501918501612970565b5080955050505050509250925092565b60008060008060008060c087890312156129b6578182fd5b86356129c1816134d3565b955060208701356001600160401b038111156129db578283fd5b6129e789828a01612842565b9550506040870135935060608701356129ff816134d3565b92506080870135612a0f816134d3565b915060a0870135612a1f816134d3565b809150509295509295509295565b60008060408385031215612a3f578182fd5b8235612a4a816134d3565b946020939093013593505050565b600080600060608486031215612a6c578283fd5b8335612a77816134d3565b925060208401359150604084013580820b8114612a92578182fd5b809150509250925092565b60008060408385031215612aaf578182fd5b8235612aba816134d3565b91506020830135612aca816134f6565b809150509250929050565b600080600060608486031215612ae9578283fd5b8335612af4816134d3565b92506020840135612b04816134f6565b9150604084013580820b8114612a92578182fd5b600060208284031215612b29578081fd5b81516104f4816134e8565b60008060408385031215612b46578182fd5b8251612b51816134e8565b6020939093015192949293505050565b600080600060608486031215612b75578283fd5b8335612b80816134e8565b9250602084013591506040840135612a92816134d3565b600080600060608486031215612bab578081fd5b8335612bb6816134e8565b9250602084013591506040840135612a92816134f6565b600060208284031215612bde578081fd5b5035919050565b600060208284031215612bf6578081fd5b5051919050565b600080600060608486031215612c11578081fd5b833592506020840135612c23816134f6565b91506040840135612a92816134d3565b600060208284031215612c44578081fd5b81356104f4816134f6565b600060208284031215612c60578081fd5b81516104f4816134f6565b60008060408385031215612c7d578182fd5b8235612c88816134f6565b91506020830135612aca816134d3565b60008251612caa8184602087016134a3565b9190910192915050565b6001600160a01b0391909116815260200190565b6001600160a01b03929092168252602082015260400190565b901515815260200190565b91151582521515602082015260400190565b9115158252602082015260400190565b6000602082528251806020840152612d2d8160408501602087016134a3565b601f01601f19169190910160400192915050565b60208082526022908201527f5468652050726f706f73616c206e6f742061737369676e20616c6c20746f6b656040820152616e7360f01b606082015260800190565b6020808252601490820152732737ba103932b3b4b9ba32b932b2103a37b5b2b760611b604082015260600190565b6020808252600a908201526912185cc814da59db995960b21b604082015260600190565b602080825260139082015272111d5c1b1a58d85d19481c195c9cdbdb9b995b606a1b604082015260600190565b60208082526035908201527f436f6e747261637420686173206265656e207369676e6564206f722065786974604082015274081d1a5b59481a185cc81b9bdd08195e1c1a5c9959605a1b606082015260800190565b602080825260179082015276546f6b656e20616d6f756e7420697320746f6f206c6f7760481b604082015260600190565b60208082526026908201527f4f776e61626c653a206e6577206f776e657220697320746865207a65726f206160408201526564647265737360d01b606082015260800190565b60208082526010908201526f42616c616e6365206f766572666c6f7760801b604082015260600190565b60208082526026908201527f416464726573733a20696e73756666696369656e742062616c616e636520666f6040820152651c8818d85b1b60d21b606082015260800190565b6020808252601290820152714e6f7420636f72726563742073746174757360701b604082015260600190565b6020808252601890820152776170706c794578697374426c6f636b206e6f74207a65726f60401b604082015260600190565b6020808252602e908201527f496e697469616c697a61626c653a20636f6e747261637420697320616c72656160408201526d191e481a5b9a5d1a585b1a5e995960921b606082015260800190565b6020808252601790820152762737ba103b30b634b21031b7b73a3930b1ba27b93232b960491b604082015260600190565b60208082526021908201527f536166654d6174683a206d756c7469706c69636174696f6e206f766572666c6f6040820152607760f81b606082015260800190565b6020808252818101527f4f776e61626c653a2063616c6c6572206973206e6f7420746865206f776e6572604082015260600190565b6020808252601390820152722737ba1031b7b73a3930b1ba103832b939b7b760691b604082015260600190565b60208082526023908201527f546f6b656e206973206e6f7420737570706f7274656420496e2074686973207460408201526265616d60e81b606082015260800190565b6020808252600f908201526e04172726179206c656e6774683e313608c1b604082015260600190565b6020808252601790820152764e6f74206d6565742074686520636f6e646974696f6e7360481b604082015260600190565b60208082526039908201527f436f6e747261637420686173206e6f74206265656e207369676e6564206f7220604082015278686173206265656e2061737369676e6564206a75646765727360381b606082015260800190565b6020808252601690820152752737ba103b30b634b21039bab6b6b0b93ca7b93232b960511b604082015260600190565b60208082526017908201527642616c616e63652072656d61696e206e6f74207a65726f60481b604082015260600190565b602080825260129082015271546f6f206d75636820436f6e74726163747360701b604082015260600190565b6020808252601d908201527f416464726573733a2063616c6c20746f206e6f6e2d636f6e7472616374000000604082015260600190565b6020808252600a908201526912185cc81cda59db995960b21b604082015260600190565b6020808252600990820152684e6f74206a7564676560b81b604082015260600190565b6020808252601990820152784172726179206c656e677468206d7573742062652073616d6560381b604082015260600190565b6020808252602a908201527f5361666545524332303a204552433230206f7065726174696f6e20646964206e6040820152691bdd081cdd58d8d9595960b21b606082015260800190565b602080825260169082015275616d6f756e742063616e206e6f74206265207a65726f60501b604082015260600190565b60208082526015908201527445786365656473207374616b652062616c616e636560581b604082015260600190565b90815260200190565b91825260000b602082015260400190565b9c8d5260208d019b909b5260408c019990995260608b019790975260808a01959095526001600160a01b0393841660a08a015260c089019290925260e088015261010087015261012086019190915260009190910b610140850152166101608301526101808201526101a00190565b60ff91909116815260200190565b60ff94851681529284166020840152921660408201526001600160a01b03909116606082015260800190565b6040518181016001600160401b038111828210171561347c57600080fd5b604052919050565b60006001600160401b03821115613499578081fd5b5060209081020190565b60005b838110156134be5781810151838201526020016134a6565b838111156134cd576000848401525b50505050565b6001600160a01b0381168114610e6e57600080fd5b8015158114610e6e57600080fd5b60ff81168114610e6e57600080fdfe8be0079c531659141344cd1fd0a4f28419497f9722a3daafe3b4186f6b6457e0a2646970667358221220a37c29a2302b55e42f12da4d8b4551718c274e0824e6eb6a81cd374f75071bb964736f6c634300060c0033",
  "immutableReferences": {},
  "source": "\r\npragma solidity 0.6.12;\r\npragma experimental ABIEncoderV2;\r\nimport \"./helpers/ERC20.sol\";\r\n\r\nimport \"./libraries/Address.sol\";\r\n\r\nimport \"./libraries/SafeERC20.sol\";\r\n\r\nimport \"./libraries/EnumerableSet.sol\";\r\n\r\nimport \"@openzeppelin/contracts-upgradeable/access/OwnableUpgradeable.sol\";\r\n\r\nimport \"@openzeppelin/contracts-upgradeable/utils/ReentrancyGuardUpgradeable.sol\";\r\n\r\nimport \"sortition-sum-tree-factory/contracts/SortitionSumTreeFactory.sol\";\r\n\r\nimport \"./JudgerOrg.sol\";\r\nimport \"./GovernorAlpha.sol\";\r\nimport \"./Timelock.sol\";\r\nimport \"@pooltogether/fixed-point/contracts/FixedPoint.sol\";\r\nimport \"./token/ControlledToken.sol\";\r\n\r\ncontract MainContract is OwnableUpgradeable {\r\n    using SafeMath for uint256;\r\n    using SafeERC20 for IERC20;\r\n\r\n    struct BasicInfo{\r\n        uint256 startBlockTime; \r\n        uint256 endBlockTime;\r\n        uint256 applyExitBlockTime;\r\n        uint256 applyJudgeBlockTime;\r\n        uint256 exitWaitPeriodTime;\r\n        ControlledToken controlledToken;\r\n        uint256 limitJudgePeriodTime; \r\n        int256 succJudgeProposalOrder;\r\n        int256 succConPersonProposalOrder;\r\n        uint256 totalStake;\r\n        int8 status;\r\n        IERC20 token;\r\n        uint256  firstApplyJudgeBlockTime;\r\n    }\r\n    BasicInfo public basicInfo;\r\n    mapping(uint256 => Proposal) public conPersonProposalMap;\r\n    uint256 public conPersonProposalMapNum;\r\n\r\n    mapping(uint8 => address) public judgerMap;\r\n    // mapping(uint256 => uint8) public judgerNumMap;\r\n    mapping(address => bool) public judgerExistedMap;\r\n    uint8 public judgerMapNum; \r\n    mapping(uint256 => Proposal) public judgerProposalMap;\r\n    uint256 public judgerProposalMapNum;\r\n\r\n    mapping(uint8 => ContractDetail) public contractMap;\r\n    uint8 public contractMapNum;\r\n    mapping(uint8 => address) public contractPersonAddrMap; \r\n    uint8 public contractPersonAddrMapNum;\r\n    mapping(address => AddrBalance) public contractPersonMap;\r\n    \r\n    struct Proposal{\r\n        uint8 assignAddrMapNum;\r\n        uint8 agreeNum;\r\n        uint8 rejectNum;\r\n        address proposer;\r\n        mapping(uint8 => address) assignAddrMap;\r\n        mapping(address => uint256) assignBalanceMap;\r\n        mapping(address => SignInfo) signInfoMap;\r\n    }\r\n\r\n    struct AddrBalance{\r\n        bool isJoined;\r\n        uint256 balance;\r\n    }\r\n\r\n    struct ContractDetail{\r\n        uint256 startBlockTime;\r\n        // string ipfsHash;\r\n        mapping(address => SignInfo) signInfoMap;\r\n    }\r\n\r\n    struct SignInfo{\r\n        uint256 blockTime; \r\n        int8 status;\r\n    }\r\n\r\n\r\n    uint256 public judgerRateMantissa;\r\n    uint256 public judgerBalance;\r\n    JudgerOrg public judgerOrg;\r\n\r\n    function getContractSignInfo(uint8 contractOrder,address user) external view returns(uint256,int8){\r\n        return (contractMap[contractOrder].signInfoMap[user].blockTime,contractMap[contractOrder].signInfoMap[user].status);\r\n    }\r\n    function getProposalSignInfo(bool isJudgerProposal,uint256 proposalOrder,address user) external view returns(uint256,int8){\r\n        if (isJudgerProposal){\r\n            return (judgerProposalMap[proposalOrder].signInfoMap[user].blockTime,judgerProposalMap[proposalOrder].signInfoMap[user].status);\r\n\r\n        }else{\r\n            return (conPersonProposalMap[proposalOrder].signInfoMap[user].blockTime,conPersonProposalMap[proposalOrder].signInfoMap[user].status);\r\n\r\n        }\r\n    }\r\n    function getProposalAssignAddr(bool isJudgerProposal,uint256 proposalOrder,uint8 order) external view returns(address){\r\n        if (isJudgerProposal){\r\n            return judgerProposalMap[proposalOrder].assignAddrMap[order];\r\n        }else{\r\n            return conPersonProposalMap[proposalOrder].assignAddrMap[order];\r\n        }\r\n    }\r\n    function getProposalAssignBalance(bool isJudgerProposal,uint256 proposalOrder,address user) external view returns(uint256){\r\n        if (isJudgerProposal){\r\n            return judgerProposalMap[proposalOrder].assignBalanceMap[user];\r\n        }else{\r\n            return conPersonProposalMap[proposalOrder].assignBalanceMap[user];\r\n        }\r\n    }\r\n    function initialize ()\r\n        public virtual initializer{\r\n        __Ownable_init();\r\n    }\r\n    function createMainContract(\r\n        address sponsor,\r\n        address[] memory persons,\r\n        uint256 stakeBalance,\r\n        ERC20 token,\r\n        ControlledToken controlledToken,\r\n        address judgerOrg_\r\n    ) public onlyOwner{\r\n        judgerOrg = JudgerOrg(judgerOrg_);\r\n        (bool isAcceptable,uint256 minAmount) = judgerOrg.acceptTokenMap(address(token));\r\n        require(isAcceptable == true, \"Token is not supported In this team\");\r\n        require(stakeBalance>=minAmount, \"Token amount is too low\");\r\n\r\n        basicInfo=BasicInfo({\r\n            startBlockTime: block.timestamp,\r\n            applyJudgeBlockTime: 0,\r\n            endBlockTime: 0,\r\n            controlledToken: controlledToken,\r\n            limitJudgePeriodTime: judgerOrg.limitJudgePeriodTime(),\r\n            exitWaitPeriodTime: judgerOrg.exitWaitPeriodTime(),\r\n            succJudgeProposalOrder: -1,\r\n            succConPersonProposalOrder: -1,\r\n            totalStake: 0,\r\n            token: token,\r\n            status: 0,\r\n            applyExitBlockTime: 0,\r\n            firstApplyJudgeBlockTime:0\r\n        });\r\n        conPersonProposalMapNum = 0;\r\n        judgerMapNum = 0;\r\n        judgerProposalMapNum = 0;\r\n        contractMapNum = 0;\r\n        contractPersonAddrMapNum = 0;\r\n        // contractMap[0] = ContractDetail(block.timestamp,ipfsHash);\r\n        contractMap[0] = ContractDetail(block.timestamp);\r\n        contractMapNum = 1;\r\n        \r\n\r\n        for (uint8 i=0;i<persons.length;i++){\r\n            require(contractPersonMap[persons[i]].isJoined == false,\"Duplicate personnel\");\r\n            contractPersonAddrMap[i] = persons[i];\r\n            contractPersonMap[persons[i]].isJoined = true;\r\n        }\r\n        contractPersonAddrMapNum = uint8(persons.length);\r\n        judgerRateMantissa = judgerOrg.rateMantissa();\r\n\r\n    }\r\n    function clearContractPersonBalance(address person) external  onlyOwner{\r\n        contractPersonMap[person].balance = 0;\r\n    }\r\n    function addContract(address sponsor) external  onlyOwner{\r\n        onlyContractPerson(sponsor);\r\n        \r\n        require(basicInfo.status == 1,\"Not correct status\");\r\n        require(contractMapNum < 255,\"Too much Contracts\");\r\n        // contractMap[contractMapNum] = ContractDetail(block.timestamp,ipfsHash);\r\n        contractMap[contractMapNum] = ContractDetail(block.timestamp);\r\n        contractMapNum = contractMapNum + 1;\r\n    }\r\n    function token() view external returns (address){\r\n        return address(basicInfo.token);\r\n    }\r\n    function addStakeBalance(address sponsor,uint256 finalBalance) external onlyOwner {\r\n        require(basicInfo.status == 1 || basicInfo.status == 0,\"Not correct status\");\r\n        require(address(basicInfo.controlledToken) != address(0),\"Not registered token\");\r\n        onlyContractPerson(sponsor);\r\n        contractPersonMap[sponsor].balance = contractPersonMap[sponsor].balance + finalBalance;\r\n        basicInfo.totalStake = basicInfo.totalStake + finalBalance;\r\n    }\r\n\r\n    function applyExit(address sponsor) external onlyOwner {\r\n        onlyContractPerson(sponsor);\r\n        require((basicInfo.status == 1 && judgerOrg.assignJudgerNum()>judgerOrg.idleJudgerSupply()) || \r\n        (basicInfo.firstApplyJudgeBlockTime + basicInfo.limitJudgePeriodTime <= block.timestamp\r\n          && basicInfo.succConPersonProposalOrder == -1\r\n          && basicInfo.succJudgeProposalOrder == -1\r\n          && basicInfo.status == 2\r\n          && basicInfo.firstApplyJudgeBlockTime !=0), \"Contract has not been signed or has been assigned judgers\");\r\n        require(basicInfo.applyExitBlockTime == 0,\"applyExistBlock not zero\"); \r\n        basicInfo.applyExitBlockTime = block.timestamp;\r\n    }\r\n    function exitStakeBalance(address sponsor,uint256 stakeBalance) external onlyOwner returns(bool,bool) {\r\n        onlyContractPerson(sponsor);\r\n        require(stakeBalance<=contractPersonMap[sponsor].balance, \"Exceeds stake balance\");\r\n        require(stakeBalance > 0,\"amount can not be zero\");\r\n        require(basicInfo.status == 0 || basicInfo.status == 3 || \r\n        (basicInfo.applyExitBlockTime !=0 && basicInfo.applyExitBlockTime + basicInfo.exitWaitPeriodTime <= block.timestamp),\"Contract has been signed or exit time has not expired\");\r\n        \r\n        contractPersonMap[sponsor].balance = contractPersonMap[sponsor].balance - stakeBalance;\r\n        IERC20(basicInfo.token).safeTransfer(sponsor, stakeBalance);\r\n        basicInfo.totalStake = basicInfo.totalStake - stakeBalance;\r\n        bool isJudgeFinished = false;\r\n        if (basicInfo.status == 2)\r\n            isJudgeFinished = true;\r\n\r\n        basicInfo.status = 3;\r\n\r\n        if(basicInfo.totalStake == 0){\r\n            basicInfo.status = 4;\r\n            basicInfo.endBlockTime = block.timestamp;\r\n            return (true,isJudgeFinished);\r\n        }\r\n        return (false,isJudgeFinished);\r\n    }\r\n     function _signContract(address sponsor,uint8 contractOrder,int8 signStatus) internal returns(bool) {\r\n        onlyValidContractOrder(contractOrder);\r\n        onlyContractPerson(sponsor);\r\n        require(contractMap[contractOrder].signInfoMap[sponsor].status == 0,\"Has Signed\");\r\n        contractMap[contractOrder].signInfoMap[sponsor].blockTime = block.timestamp;\r\n        contractMap[contractOrder].signInfoMap[sponsor].status = signStatus;\r\n       \r\n        if (contractOrder == 0){\r\n            require(basicInfo.status == 0,\"Not correct status\");\r\n\r\n            basicInfo.endBlockTime = block.timestamp;\r\n            basicInfo.status = 1;\r\n            for (uint8 i=0; i<contractPersonAddrMapNum; i++){\r\n                if (contractMap[contractOrder].signInfoMap[contractPersonAddrMap[i]].status != 1){\r\n                    basicInfo.status = 0;\r\n                }\r\n            }\r\n            if (basicInfo.status == 1){\r\n                return true;\r\n            }\r\n        }\r\n        return false;\r\n                \r\n    }\r\n    function signContract(address sponsor,uint8 contractOrder,int8 signStatus) external onlyOwner returns(bool){\r\n        return _signContract(sponsor,contractOrder,signStatus);\r\n    }\r\n\r\n    \r\n    function launchProposal(address sponsor,address[] memory persons,uint256[] memory balance) external onlyOwner {\r\n        require(persons.length == balance.length,\"Array length must be same\");\r\n        require(persons.length < 10,\"Array length>10\");\r\n\r\n        require(basicInfo.status == 1,\"Not correct status\");\r\n        onlyContractPerson(sponsor);\r\n        conPersonProposalMap[conPersonProposalMapNum] = Proposal(uint8(persons.length),0,0,sponsor);\r\n        \r\n        uint256 totalStakeTemp = basicInfo.totalStake;\r\n        for (uint8 i=0;i<persons.length;i++){\r\n            require(contractPersonMap[persons[i]].isJoined == true ,\"Not contract person\");\r\n            require(balance[i] <= totalStakeTemp, \"Balance overflow\" );\r\n            totalStakeTemp = totalStakeTemp - balance[i];\r\n            conPersonProposalMap[conPersonProposalMapNum].assignAddrMap[i] = persons[i];\r\n            conPersonProposalMap[conPersonProposalMapNum].assignBalanceMap[persons[i]] = balance[i];\r\n        }\r\n        require (totalStakeTemp == 0, \"Balance remain not zero\");\r\n        \r\n        conPersonProposalMapNum = conPersonProposalMapNum + 1;\r\n        // _signProposal(kindle,summaryOrder,summary.conPersonProposalMapNum-1, 1);\r\n        // emit launchProposalEvent(msg.sender,kindle,summaryOrder,summary.conPersonProposalMapNum-1);\r\n    }\r\n    function _signProposal(address sponsor,uint256 proposalOrder,int8 signStatus) internal  returns(bool){\r\n        onlyValidConPersonProposalOrder(proposalOrder);\r\n        require(basicInfo.status == 1,\"Not correct status\");\r\n        onlyContractPerson(sponsor);\r\n        Proposal storage proposal = conPersonProposalMap[proposalOrder];\r\n        SignInfo storage signInfo = conPersonProposalMap[proposalOrder].signInfoMap[sponsor];\r\n        signInfo.blockTime = block.timestamp;\r\n        require(signInfo.status == 0,\"Has signed\");\r\n        \r\n        signInfo.status = signStatus;\r\n        if (signStatus == 1){\r\n            proposal.agreeNum = proposal.agreeNum + 1;\r\n        }else if (signStatus == -1){\r\n            proposal.rejectNum = proposal.rejectNum + 1;    \r\n        }\r\n        uint256 signNum = proposal.agreeNum + proposal.rejectNum;\r\n        if(signNum == contractPersonAddrMapNum){\r\n            if (proposal.rejectNum == 0 ){\r\n                for (uint8 i=0; i<proposal.assignAddrMapNum; i++ ){\r\n                    IERC20(basicInfo.token).safeTransfer(proposal.assignAddrMap[i], proposal.assignBalanceMap[proposal.assignAddrMap[i]]);\r\n                }\r\n                require(IERC20(basicInfo.token).balanceOf(address(this))==0,\"The Proposal not assign all tokens\");\r\n                basicInfo.succConPersonProposalOrder = int256(proposalOrder);\r\n                basicInfo.totalStake = 0;\r\n                basicInfo.endBlockTime = block.timestamp;\r\n                basicInfo.status = 4;\r\n                return true;\r\n            }\r\n        }\r\n        return false;\r\n    }\r\n    function signProposal(address sponsor,uint256 proposalOrder,int8 signStatus) external onlyOwner returns(bool) {\r\n        return _signProposal(sponsor,proposalOrder, signStatus);\r\n    }\r\n\r\n    \r\n    function launchJudgerProposal(address sponsor,address[] memory persons,uint256[] memory balance) external{\r\n        onlyJudgerPerson(sponsor);\r\n        require(basicInfo.status == 2,\"Not correct status\");\r\n        judgerProposalMap[judgerProposalMapNum] = Proposal(uint8(persons.length),0,0,sponsor);\r\n        uint256 totalStakeTemp = basicInfo.totalStake-judgerBalance;\r\n        for (uint8 i=0;i<persons.length;i++){\r\n            require(contractPersonMap[persons[i]].isJoined == true ,\"Not contract person\");\r\n            require(balance[i] <= totalStakeTemp, \"Balance overflow\" );\r\n            totalStakeTemp = totalStakeTemp - balance[i];\r\n            judgerProposalMap[judgerProposalMapNum].assignAddrMap[i] = persons[i];\r\n            judgerProposalMap[judgerProposalMapNum].assignBalanceMap[persons[i]] = balance[i];\r\n        }\r\n        // summary.judgerProposalMap[summary.judgerProposalMapNum].assignAddrMapNum = persons.length;\r\n        require (totalStakeTemp == 0, \"Balance remain not zero\");\r\n        judgerProposalMapNum = judgerProposalMapNum + 1;\r\n        // _signJudgerProposal(kindle,summaryOrder,summary.judgerProposalMapNum-1, 1);\r\n        // emit launchJudgerProposalEvent(msg.sender,kindle,summaryOrder,summary.judgerProposalMapNum-1);\r\n    }\r\n    function _signJudgerProposal(address sponsor,uint256 proposalOrder,int8 signStatus) internal returns(bool) {\r\n        onlyValidJudgerProposalOrder(proposalOrder);\r\n        onlyJudgerPerson(sponsor);\r\n        require(basicInfo.status == 2,\"Not correct status\");\r\n        Proposal storage proposal = judgerProposalMap[proposalOrder];\r\n        SignInfo storage signInfo = judgerProposalMap[proposalOrder].signInfoMap[sponsor];\r\n        signInfo.blockTime = block.timestamp;\r\n        require(signInfo.status == 0,\"Has signed\");\r\n        \r\n        signInfo.status = signStatus;\r\n        if (signStatus == 1){\r\n            proposal.agreeNum = proposal.agreeNum + 1;\r\n        }else if (signStatus == -1){\r\n            proposal.rejectNum = proposal.rejectNum + 1;    \r\n        }\r\n        uint256 signNum = proposal.agreeNum + proposal.rejectNum;\r\n\r\n        if (proposal.agreeNum > (judgerMapNum/2) ){\r\n\r\n            IERC20(basicInfo.token).safeTransfer(address(judgerOrg), judgerBalance);\r\n            for (uint8 i=0; i<proposal.assignAddrMapNum; i++ ){\r\n                IERC20(basicInfo.token).safeTransfer(proposal.assignAddrMap[i], proposal.assignBalanceMap[proposal.assignAddrMap[i]]);\r\n            }\r\n            require(IERC20(basicInfo.token).balanceOf(address(this))==0,\"The Proposal not assign all tokens\");\r\n\r\n            basicInfo.totalStake = 0;\r\n            basicInfo.succJudgeProposalOrder = int256(proposalOrder);\r\n            basicInfo.status = 4;\r\n            return true;\r\n        }\r\n        return false;\r\n    }\r\n    function signJudgerProposal(address sponsor,uint256 proposalOrder,int8 signStatus) external onlyOwner returns(bool) {\r\n        return _signJudgerProposal(sponsor,proposalOrder, signStatus);\r\n    }\r\n    function applyJudge(address sponsor,uint8 judgerNum_) external onlyOwner {\r\n        onlyContractPerson(sponsor);\r\n        require(basicInfo.status == 1 || \r\n         (basicInfo.applyJudgeBlockTime + basicInfo.limitJudgePeriodTime <= block.timestamp\r\n          && basicInfo.succConPersonProposalOrder == -1 \r\n          && basicInfo.succJudgeProposalOrder == -1 \r\n          && basicInfo.status == 2 \r\n          && basicInfo.applyJudgeBlockTime != 0),\"Not meet the conditions\");\r\n\r\n        for(uint8 i=0;i<judgerMapNum;i++){\r\n            judgerExistedMap[judgerMap[i]] = false;\r\n        }\r\n        judgerMapNum = judgerNum_;\r\n        // judgerNumMap[judgerMapNum-1] = judgerNum;\r\n        basicInfo.status = 2;\r\n        if (basicInfo.applyJudgeBlockTime == 0){\r\n            basicInfo.firstApplyJudgeBlockTime = block.timestamp;\r\n        }\r\n        basicInfo.applyJudgeBlockTime = block.timestamp;\r\n        \r\n        judgerBalance = FixedPoint.multiplyUintByMantissa(basicInfo.totalStake, judgerRateMantissa);\r\n    }\r\n    function setJudger(uint256 judgerOrder,uint8 order,address judger) external  {\r\n        judgerMap[order] = judger;\r\n        judgerExistedMap[judger] = true;\r\n    }\r\n    function onlyValidContractOrder(uint256 contractOrder) private{\r\n        require(contractOrder < contractMapNum , \"Not valid contractOrder\");\r\n    }\r\n    \r\n    function onlyValidJudgerProposalOrder(uint256 proposalOrder) private{\r\n        require(proposalOrder < judgerProposalMapNum , \"Not valid summaryOrder\");\r\n    }\r\n    function onlyValidConPersonProposalOrder(uint256 proposalOrder) private{\r\n        require(proposalOrder < conPersonProposalMapNum , \"Not valid summaryOrder\");\r\n    }\r\n    function onlyJudgerPerson(address sponsor) private{\r\n        require(judgerExistedMap[sponsor] == true, \"Not judge\");\r\n    }\r\n    function onlyContractPerson(address sponsor) private{\r\n        require(contractPersonMap[sponsor].isJoined == true, \"Not contract person\");\r\n    }\r\n}\r\n",
  "sourcePath": "D:/DesignCode/Eth/cyberCourt/cybercourt-private/cybercourt-core/contracts/MainContract.sol",
  "compiler": {
    "name": "solc",
    "version": "0.6.12+commit.27d51765.Emscripten.clang"
  },
  "schemaVersion": "3.4.1",
  "updatedAt": "2021-09-19T08:52:46.277Z",
  "devdoc": {
    "kind": "dev",
    "methods": {
      "owner()": {
        "details": "Returns the address of the current owner."
      },
      "renounceOwnership()": {
        "details": "Leaves the contract without owner. It will not be possible to call `onlyOwner` functions anymore. Can only be called by the current owner. NOTE: Renouncing ownership will leave the contract without an owner, thereby removing any functionality that is only available to the owner."
      },
      "transferOwnership(address)": {
        "details": "Transfers ownership of the contract to a new account (`newOwner`). Can only be called by the current owner."
      }
    },
    "version": 1
  },
  "userdoc": {
    "kind": "user",
    "methods": {},
    "version": 1
  }
}